{"contracts/PancakePredictionV2.sol":{"PancakePredictionV2":{"abi":[{"inputs":[{"internalType":"address","name":"_adminAddress","type":"address"},{"internalType":"address","name":"_operatorAddress","type":"address"},{"internalType":"uint256","name":"_intervalSeconds","type":"uint256"},{"internalType":"uint256","name":"_bufferSeconds","type":"uint256"},{"internalType":"uint256","name":"_minBetAmount","type":"uint256"},{"internalType":"uint256","name":"_treasuryFee","type":"uint256"}],"stateMutability":"nonpayable","type":"constructor"},{"anonymous":false,"inputs":[{"indexed":true,"internalType":"address","name":"sender","type":"address"},{"indexed":true,"internalType":"uint256","name":"epoch","type":"uint256"},{"indexed":false,"internalType":"uint256","name":"amount","type":"uint256"}],"name":"BetBear","type":"event"},{"anonymous":false,"inputs":[{"indexed":true,"internalType":"address","name":"sender","type":"address"},{"indexed":true,"internalType":"uint256","name":"epoch","type":"uint256"},{"indexed":false,"internalType":"uint256","name":"amount","type":"uint256"}],"name":"BetBull","type":"event"},{"anonymous":false,"inputs":[{"indexed":true,"internalType":"address","name":"sender","type":"address"},{"indexed":true,"internalType":"uint256","name":"epoch","type":"uint256"},{"indexed":false,"internalType":"uint256","name":"amount","type":"uint256"}],"name":"Claim","type":"event"},{"anonymous":false,"inputs":[{"indexed":true,"internalType":"uint256","name":"epoch","type":"uint256"},{"indexed":false,"internalType":"int256","name":"price","type":"int256"}],"name":"EndRound","type":"event"},{"anonymous":false,"inputs":[{"indexed":true,"internalType":"uint256","name":"epoch","type":"uint256"},{"indexed":false,"internalType":"int256","name":"price","type":"int256"}],"name":"LockRound","type":"event"},{"anonymous":false,"inputs":[{"indexed":false,"internalType":"address","name":"admin","type":"address"}],"name":"NewAdminAddress","type":"event"},{"anonymous":false,"inputs":[{"indexed":false,"internalType":"uint256","name":"bufferSeconds","type":"uint256"},{"indexed":false,"internalType":"uint256","name":"intervalSeconds","type":"uint256"}],"name":"NewBufferAndIntervalSeconds","type":"event"},{"anonymous":false,"inputs":[{"indexed":true,"internalType":"uint256","name":"epoch","type":"uint256"},{"indexed":false,"internalType":"uint256","name":"minBetAmount","type":"uint256"}],"name":"NewMinBetAmount","type":"event"},{"anonymous":false,"inputs":[{"indexed":false,"internalType":"address","name":"operator","type":"address"}],"name":"NewOperatorAddress","type":"event"},{"anonymous":false,"inputs":[{"indexed":true,"internalType":"uint256","name":"epoch","type":"uint256"},{"indexed":false,"internalType":"uint256","name":"treasuryFee","type":"uint256"}],"name":"NewTreasuryFee","type":"event"},{"anonymous":false,"inputs":[{"indexed":true,"internalType":"address","name":"previousOwner","type":"address"},{"indexed":true,"internalType":"address","name":"newOwner","type":"address"}],"name":"OwnershipTransferred","type":"event"},{"anonymous":false,"inputs":[{"indexed":true,"internalType":"uint256","name":"epoch","type":"uint256"}],"name":"Pause","type":"event"},{"anonymous":false,"inputs":[{"indexed":false,"internalType":"address","name":"account","type":"address"}],"name":"Paused","type":"event"},{"anonymous":false,"inputs":[{"indexed":true,"internalType":"uint256","name":"epoch","type":"uint256"},{"indexed":false,"internalType":"uint256","name":"rewardBaseCalAmount","type":"uint256"},{"indexed":false,"internalType":"uint256","name":"rewardAmount","type":"uint256"},{"indexed":false,"internalType":"uint256","name":"treasuryAmount","type":"uint256"}],"name":"RewardsCalculated","type":"event"},{"anonymous":false,"inputs":[{"indexed":true,"internalType":"uint256","name":"epoch","type":"uint256"}],"name":"StartRound","type":"event"},{"anonymous":false,"inputs":[{"indexed":true,"internalType":"address","name":"token","type":"address"},{"indexed":false,"internalType":"uint256","name":"amount","type":"uint256"}],"name":"TokenRecovery","type":"event"},{"anonymous":false,"inputs":[{"indexed":false,"internalType":"uint256","name":"amount","type":"uint256"}],"name":"TreasuryClaim","type":"event"},{"anonymous":false,"inputs":[{"indexed":true,"internalType":"uint256","name":"epoch","type":"uint256"}],"name":"Unpause","type":"event"},{"anonymous":false,"inputs":[{"indexed":false,"internalType":"address","name":"account","type":"address"}],"name":"Unpaused","type":"event"},{"anonymous":false,"inputs":[{"indexed":true,"internalType":"uint256","name":"epoch","type":"uint256"}],"name":"epochUpdate","type":"event"},{"inputs":[],"name":"MAX_TREASURY_FEE","outputs":[{"internalType":"uint256","name":"","type":"uint256"}],"stateMutability":"view","type":"function"},{"inputs":[],"name":"adminAddress","outputs":[{"internalType":"address","name":"","type":"address"}],"stateMutability":"view","type":"function"},{"inputs":[{"internalType":"uint256","name":"epoch","type":"uint256"}],"name":"betBear","outputs":[],"stateMutability":"payable","type":"function"},{"inputs":[{"internalType":"uint256","name":"epoch","type":"uint256"}],"name":"betBull","outputs":[],"stateMutability":"payable","type":"function"},{"inputs":[],"name":"bufferSeconds","outputs":[{"internalType":"uint256","name":"","type":"uint256"}],"stateMutability":"view","type":"function"},{"inputs":[{"internalType":"uint256[]","name":"epochs","type":"uint256[]"}],"name":"claim","outputs":[],"stateMutability":"nonpayable","type":"function"},{"inputs":[],"name":"claimTreasury","outputs":[],"stateMutability":"nonpayable","type":"function"},{"inputs":[{"internalType":"uint256","name":"epoch","type":"uint256"},{"internalType":"address","name":"user","type":"address"}],"name":"claimable","outputs":[{"internalType":"bool","name":"","type":"bool"}],"stateMutability":"view","type":"function"},{"inputs":[],"name":"currentEpoch","outputs":[{"internalType":"uint256","name":"","type":"uint256"}],"stateMutability":"view","type":"function"},{"inputs":[{"internalType":"int256","name":"price","type":"int256"}],"name":"executeRound","outputs":[],"stateMutability":"nonpayable","type":"function"},{"inputs":[],"name":"genesisLockOnce","outputs":[{"internalType":"bool","name":"","type":"bool"}],"stateMutability":"view","type":"function"},{"inputs":[{"internalType":"int256","name":"price","type":"int256"}],"name":"genesisLockRound","outputs":[],"stateMutability":"nonpayable","type":"function"},{"inputs":[],"name":"genesisStartOnce","outputs":[{"internalType":"bool","name":"","type":"bool"}],"stateMutability":"view","type":"function"},{"inputs":[],"name":"genesisStartRound","outputs":[],"stateMutability":"nonpayable","type":"function"},{"inputs":[{"internalType":"address","name":"user","type":"address"},{"internalType":"uint256","name":"cursor","type":"uint256"},{"internalType":"uint256","name":"size","type":"uint256"}],"name":"getUserRounds","outputs":[{"internalType":"uint256[]","name":"","type":"uint256[]"},{"components":[{"internalType":"enum PancakePredictionV2.Position","name":"position","type":"uint8"},{"internalType":"uint256","name":"amount","type":"uint256"},{"internalType":"bool","name":"claimed","type":"bool"}],"internalType":"struct PancakePredictionV2.BetInfo[]","name":"","type":"tuple[]"},{"internalType":"uint256","name":"","type":"uint256"}],"stateMutability":"view","type":"function"},{"inputs":[{"internalType":"address","name":"user","type":"address"}],"name":"getUserRoundsLength","outputs":[{"internalType":"uint256","name":"","type":"uint256"}],"stateMutability":"view","type":"function"},{"inputs":[],"name":"intervalSeconds","outputs":[{"internalType":"uint256","name":"","type":"uint256"}],"stateMutability":"view","type":"function"},{"inputs":[{"internalType":"uint256","name":"","type":"uint256"},{"internalType":"address","name":"","type":"address"}],"name":"ledger","outputs":[{"internalType":"enum PancakePredictionV2.Position","name":"position","type":"uint8"},{"internalType":"uint256","name":"amount","type":"uint256"},{"internalType":"bool","name":"claimed","type":"bool"}],"stateMutability":"view","type":"function"},{"inputs":[],"name":"minBetAmount","outputs":[{"internalType":"uint256","name":"","type":"uint256"}],"stateMutability":"view","type":"function"},{"inputs":[],"name":"operatorAddress","outputs":[{"internalType":"address","name":"","type":"address"}],"stateMutability":"view","type":"function"},{"inputs":[],"name":"oracle","outputs":[{"internalType":"contract AggregatorV3Interface","name":"","type":"address"}],"stateMutability":"view","type":"function"},{"inputs":[],"name":"oracleUpdateAllowance","outputs":[{"internalType":"uint256","name":"","type":"uint256"}],"stateMutability":"view","type":"function"},{"inputs":[],"name":"owner","outputs":[{"internalType":"address","name":"","type":"address"}],"stateMutability":"view","type":"function"},{"inputs":[],"name":"pause","outputs":[],"stateMutability":"nonpayable","type":"function"},{"inputs":[],"name":"paused","outputs":[{"internalType":"bool","name":"","type":"bool"}],"stateMutability":"view","type":"function"},{"inputs":[{"internalType":"address","name":"_token","type":"address"},{"internalType":"uint256","name":"_amount","type":"uint256"}],"name":"recoverToken","outputs":[],"stateMutability":"nonpayable","type":"function"},{"inputs":[{"internalType":"uint256","name":"epoch","type":"uint256"},{"internalType":"address","name":"user","type":"address"}],"name":"refundable","outputs":[{"internalType":"bool","name":"","type":"bool"}],"stateMutability":"view","type":"function"},{"inputs":[],"name":"renounceOwnership","outputs":[],"stateMutability":"nonpayable","type":"function"},{"inputs":[{"internalType":"uint256","name":"","type":"uint256"}],"name":"rounds","outputs":[{"internalType":"uint256","name":"epoch","type":"uint256"},{"internalType":"uint256","name":"startTimestamp","type":"uint256"},{"internalType":"uint256","name":"lockTimestamp","type":"uint256"},{"internalType":"uint256","name":"closeTimestamp","type":"uint256"},{"internalType":"int256","name":"lockPrice","type":"int256"},{"internalType":"int256","name":"closePrice","type":"int256"},{"internalType":"uint256","name":"totalAmount","type":"uint256"},{"internalType":"uint256","name":"bullAmount","type":"uint256"},{"internalType":"uint256","name":"bearAmount","type":"uint256"},{"internalType":"uint256","name":"rewardBaseCalAmount","type":"uint256"},{"internalType":"uint256","name":"rewardAmount","type":"uint256"},{"internalType":"bool","name":"oracleCalled","type":"bool"}],"stateMutability":"view","type":"function"},{"inputs":[{"internalType":"address","name":"_adminAddress","type":"address"}],"name":"setAdmin","outputs":[],"stateMutability":"nonpayable","type":"function"},{"inputs":[{"internalType":"uint256","name":"_bufferSeconds","type":"uint256"},{"internalType":"uint256","name":"_intervalSeconds","type":"uint256"}],"name":"setBufferAndIntervalSeconds","outputs":[],"stateMutability":"nonpayable","type":"function"},{"inputs":[{"internalType":"uint256","name":"_minBetAmount","type":"uint256"}],"name":"setMinBetAmount","outputs":[],"stateMutability":"nonpayable","type":"function"},{"inputs":[{"internalType":"address","name":"_operatorAddress","type":"address"}],"name":"setOperator","outputs":[],"stateMutability":"nonpayable","type":"function"},{"inputs":[{"internalType":"uint256","name":"_treasuryFee","type":"uint256"}],"name":"setTreasuryFee","outputs":[],"stateMutability":"nonpayable","type":"function"},{"inputs":[{"internalType":"address","name":"newOwner","type":"address"}],"name":"transferOwnership","outputs":[],"stateMutability":"nonpayable","type":"function"},{"inputs":[],"name":"treasuryAmount","outputs":[{"internalType":"uint256","name":"","type":"uint256"}],"stateMutability":"view","type":"function"},{"inputs":[],"name":"treasuryFee","outputs":[{"internalType":"uint256","name":"","type":"uint256"}],"stateMutability":"view","type":"function"},{"inputs":[],"name":"unpause","outputs":[],"stateMutability":"nonpayable","type":"function"},{"inputs":[{"internalType":"address","name":"","type":"address"},{"internalType":"uint256","name":"","type":"uint256"}],"name":"userRounds","outputs":[{"internalType":"uint256","name":"","type":"uint256"}],"stateMutability":"view","type":"function"}],"evm":{"bytecode":{"linkReferences":{},"object":"60806040526002805461ffff60a01b191690553480156200001f57600080fd5b50604051620047f6380380620047f683398101604081905262000042916200016a565b6200004d33620000fd565b6000805460ff60a01b19169055600180556103e8811115620000b55760405162461bcd60e51b815260206004820152601560248201527f54726561737572792066656520746f6f20686967680000000000000000000000604482015260640160405180910390fd5b600380546001600160a01b039788166001600160a01b0319918216179091556004805496909716951694909417909455600691909155600555600791909155600855620001c6565b600080546001600160a01b038381166001600160a01b0319831681178455604051919092169283917f8be0079c531659141344cd1fd0a4f28419497f9722a3daafe3b4186f6b6457e09190a35050565b80516001600160a01b03811681146200016557600080fd5b919050565b60008060008060008060c0878903121562000183578182fd5b6200018e876200014d565b95506200019e602088016200014d565b945060408701519350606087015192506080870151915060a087015190509295509295509295565b61462080620001d66000396000f3fe60806040526004361061029f5760003560e01c80637dc0d1d01161016e578063b3ab15fb116100cb578063f2b3c8091161007f578063f7fdec2811610064578063f7fdec2814610843578063fa968eea14610876578063fc6f94681461088c57600080fd5b8063f2b3c8091461080d578063f2fde38b1461082357600080fd5b8063cdf09158116100b0578063cdf09158146107b7578063dd1f7596146107d7578063eaba2361146107f757600080fd5b8063b3ab15fb14610781578063cc32d176146107a157600080fd5b8063951fd60011610122578063aa6b873a11610107578063aa6b873a1461072e578063ac859a0114610741578063b29a81401461076157600080fd5b8063951fd600146106df578063a0c7f71c1461070e57600080fd5b8063890dc76611610153578063890dc766146105bc5780638c65c81f146105dc5780638da5cb5b146106b457600080fd5b80637dc0d1d01461057a5780638456cb59146105a757600080fd5b8063605540111161021c5780637285c58b116101d057806377e741c7116101b557806377e741c7146105245780637bf41254146105445780637d1cd04f1461056457600080fd5b80637285c58b146104b3578063766718081461050e57600080fd5b80636c188593116102015780636c1885931461045e578063704b6c021461047e578063715018a61461049e57600080fd5b806360554011146104285780636ba4c1381461043e57600080fd5b8063368acb0911610273578063452fd75a11610258578063452fd75a146103d057806357fb096f146103e55780635c975abb146103f857600080fd5b8063368acb09146103a55780633f4ba83a146103bb57600080fd5b80623bdc74146102a45780630f74174f146102bb578063127effb214610302578063273867d414610354575b600080fd5b3480156102b057600080fd5b506102b96108b9565b005b3480156102c757600080fd5b506002546102ed9074010000000000000000000000000000000000000000900460ff1681565b60405190151581526020015b60405180910390f35b34801561030e57600080fd5b5060045461032f9073ffffffffffffffffffffffffffffffffffffffff1681565b60405173ffffffffffffffffffffffffffffffffffffffff90911681526020016102f9565b34801561036057600080fd5b5061039761036f3660046141cf565b73ffffffffffffffffffffffffffffffffffffffff166000908152600e602052604090205490565b6040519081526020016102f9565b3480156103b157600080fd5b5061039760095481565b3480156103c757600080fd5b506102b96109b2565b3480156103dc57600080fd5b506102b9610a99565b6102b96103f33660046142db565b610c58565b34801561040457600080fd5b5060005474010000000000000000000000000000000000000000900460ff166102ed565b34801561043457600080fd5b50610397600b5481565b34801561044a57600080fd5b506102b961045936600461424b565b61100a565b34801561046a57600080fd5b506102b96104793660046142db565b6117c4565b34801561048a57600080fd5b506102b96104993660046141cf565b6118f3565b3480156104aa57600080fd5b506102b96119f2565b3480156104bf57600080fd5b506104ff6104ce3660046142f3565b600c60209081526000928352604080842090915290825290208054600182015460029092015460ff91821692911683565b6040516102f993929190614438565b34801561051a57600080fd5b50610397600a5481565b34801561053057600080fd5b506102b961053f3660046142db565b611a04565b34801561055057600080fd5b506102ed61055f3660046142f3565b611b31565b34801561057057600080fd5b5061039760065481565b34801561058657600080fd5b5060025461032f9073ffffffffffffffffffffffffffffffffffffffff1681565b3480156105b357600080fd5b506102b9611ce6565b3480156105c857600080fd5b506102b96105d736600461431e565b611dc7565b3480156105e857600080fd5b506106596105f73660046142db565b600d60205260009081526040902080546001820154600283015460038401546004850154600586015460068701546007880154600889015460098a0154600a8b0154600b909b0154999a98999798969795969495939492939192909160ff168c565b604080519c8d5260208d019b909b52998b019890985260608a0196909652608089019490945260a088019290925260c087015260e08601526101008501526101208401526101408301521515610160820152610180016102f9565b3480156106c057600080fd5b5060005473ffffffffffffffffffffffffffffffffffffffff1661032f565b3480156106eb57600080fd5b506106ff6106fa366004614219565b611f26565b6040516102f993929190614396565b34801561071a57600080fd5b506102ed6107293660046142f3565b612307565b6102b961073c3660046142db565b612562565b34801561074d57600080fd5b506102b961075c3660046142db565b612904565b34801561076d57600080fd5b506102b961077c3660046141f0565b612b7d565b34801561078d57600080fd5b506102b961079c3660046141cf565b612bfa565b3480156107ad57600080fd5b5061039760085481565b3480156107c357600080fd5b506102b96107d23660046142db565b612d6b565b3480156107e357600080fd5b506103976107f23660046141f0565b612f75565b34801561080357600080fd5b5061039760055481565b34801561081957600080fd5b506103976103e881565b34801561082f57600080fd5b506102b961083e3660046141cf565b612fa6565b34801561084f57600080fd5b506002546102ed907501000000000000000000000000000000000000000000900460ff1681565b34801561088257600080fd5b5061039760075481565b34801561089857600080fd5b5060035461032f9073ffffffffffffffffffffffffffffffffffffffff1681565b6108c161305a565b60035473ffffffffffffffffffffffffffffffffffffffff163314610947576040517f08c379a000000000000000000000000000000000000000000000000000000000815260206004820152600960248201527f4e6f742061646d696e000000000000000000000000000000000000000000000060448201526064015b60405180910390fd5b6009805460009091556003546109739073ffffffffffffffffffffffffffffffffffffffff16826130ce565b6040518181527fb9197c6b8e21274bd1e2d9c956a88af5cfee510f630fab3f046300f88b4223619060200160405180910390a1506109b060018055565b565b6109ba6131c3565b60035473ffffffffffffffffffffffffffffffffffffffff163314610a3b576040517f08c379a000000000000000000000000000000000000000000000000000000000815260206004820152600960248201527f4e6f742061646d696e0000000000000000000000000000000000000000000000604482015260640161093e565b600280547fffffffffffffffffffff0000ffffffffffffffffffffffffffffffffffffffff169055610a6b613247565b600a546040517faaa520fdd7d2c83061d632fa017b0432407e798818af63ea908589fceda39ab790600090a2565b610aa16132c4565b60045473ffffffffffffffffffffffffffffffffffffffff163314610b22576040517f08c379a000000000000000000000000000000000000000000000000000000000815260206004820152600c60248201527f4e6f74206f70657261746f720000000000000000000000000000000000000000604482015260640161093e565b6002547501000000000000000000000000000000000000000000900460ff1615610bce576040517f08c379a000000000000000000000000000000000000000000000000000000000815260206004820152602360248201527f43616e206f6e6c792072756e2067656e657369735374617274526f756e64206f60448201527f6e63650000000000000000000000000000000000000000000000000000000000606482015260840161093e565b600a54610bdc9060016144ad565b600a819055610bea90613349565b600280547fffffffffffffffffffff00ffffffffffffffffffffffffffffffffffffffffff167501000000000000000000000000000000000000000000179055600a546040517f72bd5c94e7723e61342608a0506d9111bc8964a94c3ad7e630735a51cc40bfe190600090a2565b610c606132c4565b610c6861305a565b333b15610cd1576040517f08c379a000000000000000000000000000000000000000000000000000000000815260206004820152601460248201527f436f6e7472616374206e6f7420616c6c6f776564000000000000000000000000604482015260640161093e565b333214610d3a576040517f08c379a000000000000000000000000000000000000000000000000000000000815260206004820152601a60248201527f50726f787920636f6e7472616374206e6f7420616c6c6f776564000000000000604482015260640161093e565b600a548114610da5576040517f08c379a000000000000000000000000000000000000000000000000000000000815260206004820152601560248201527f42657420697320746f6f206561726c792f6c6174650000000000000000000000604482015260640161093e565b610dae816133c7565b610e14576040517f08c379a000000000000000000000000000000000000000000000000000000000815260206004820152601260248201527f526f756e64206e6f74206265747461626c650000000000000000000000000000604482015260640161093e565b600754341015610ea6576040517f08c379a000000000000000000000000000000000000000000000000000000000815260206004820152602c60248201527f42657420616d6f756e74206d7573742062652067726561746572207468616e2060448201527f6d696e426574416d6f756e740000000000000000000000000000000000000000606482015260840161093e565b6000818152600c6020908152604080832033845290915290206001015415610f2a576040517f08c379a000000000000000000000000000000000000000000000000000000000815260206004820152601b60248201527f43616e206f6e6c7920626574206f6e63652070657220726f756e640000000000604482015260640161093e565b6000818152600d602052604090206006810154349190610f4b9083906144ad565b60068201556007810154610f609083906144ad565b60078201556000838152600c602090815260408083203380855290835281842080547fffffffffffffffffffffffffffffffffffffffffffffffffffffffffffffff001681556001808201889055600e855283862080549182018155865294849020909401879055905185815286927f438122d8cff518d18388099a5181f0d17a12b4f1b55faedf6e4a6acee0060c1291015b60405180910390a350505061100760018055565b50565b61101261305a565b333b1561107b576040517f08c379a000000000000000000000000000000000000000000000000000000000815260206004820152601460248201527f436f6e7472616374206e6f7420616c6c6f776564000000000000000000000000604482015260640161093e565b3332146110e4576040517f08c379a000000000000000000000000000000000000000000000000000000000815260206004820152601a60248201527f50726f787920636f6e7472616374206e6f7420616c6c6f776564000000000000604482015260640161093e565b6000805b828110156117a557600d600085858481811061112d577f4e487b7100000000000000000000000000000000000000000000000000000000600052603260045260246000fd5b90506020020135815260200190815260200160002060010154600014156111b0576040517f08c379a000000000000000000000000000000000000000000000000000000000815260206004820152601560248201527f526f756e6420686173206e6f7420737461727465640000000000000000000000604482015260640161093e565b600d60008585848181106111ed577f4e487b7100000000000000000000000000000000000000000000000000000000600052603260045260246000fd5b90506020020135815260200190815260200160002060030154421161126e576040517f08c379a000000000000000000000000000000000000000000000000000000000815260206004820152601360248201527f526f756e6420686173206e6f7420656e64656400000000000000000000000000604482015260640161093e565b6000600d60008686858181106112ad577f4e487b7100000000000000000000000000000000000000000000000000000000600052603260045260246000fd5b60209081029290920135835250810191909152604001600020600b015460ff161561151c5761131b85858481811061130e577f4e487b7100000000000000000000000000000000000000000000000000000000600052603260045260246000fd5b9050602002013533612307565b611381576040517f08c379a000000000000000000000000000000000000000000000000000000000815260206004820152601660248201527f4e6f7420656c696769626c6520666f7220636c61696d00000000000000000000604482015260640161093e565b6000600d60008787868181106113c0577f4e487b7100000000000000000000000000000000000000000000000000000000600052603260045260246000fd5b602090810292909201358352508181019290925260409081016000908120825161018081018452815481526001820154948101949094526002810154928401929092526003820154606084015260048201546080840152600582015460a0840152600682015460c0840152600782015460e0840152600882015461010084015260098201546101208401819052600a8301546101408501819052600b9093015460ff161515610160850152929350600c908989888181106114aa577f4e487b7100000000000000000000000000000000000000000000000000000000600052603260045260246000fd5b90506020020135815260200190815260200160002060003373ffffffffffffffffffffffffffffffffffffffff1673ffffffffffffffffffffffffffffffffffffffff1681526020019081526020016000206001015461150a91906144fe565b61151491906144c5565b915050611661565b611565858584818110611558577f4e487b7100000000000000000000000000000000000000000000000000000000600052603260045260246000fd5b9050602002013533611b31565b6115cb576040517f08c379a000000000000000000000000000000000000000000000000000000000815260206004820152601760248201527f4e6f7420656c696769626c6520666f7220726566756e64000000000000000000604482015260640161093e565b600c6000868685818110611608577f4e487b7100000000000000000000000000000000000000000000000000000000600052603260045260246000fd5b90506020020135815260200190815260200160002060003373ffffffffffffffffffffffffffffffffffffffff1673ffffffffffffffffffffffffffffffffffffffff1681526020019081526020016000206001015490505b6001600c60008787868181106116a0577f4e487b7100000000000000000000000000000000000000000000000000000000600052603260045260246000fd5b602090810292909201358352508181019290925260409081016000908120338252909252902060020180547fffffffffffffffffffffffffffffffffffffffffffffffffffffffffffffff001691151591909117905561170081846144ad565b925084848381811061173b577f4e487b7100000000000000000000000000000000000000000000000000000000600052603260045260246000fd5b905060200201353373ffffffffffffffffffffffffffffffffffffffff167f34fcbac0073d7c3d388e51312faf357774904998eeb8fca628b9e6f65ee1cbf78360405161178a91815260200190565b60405180910390a3508061179d81614582565b9150506110e8565b5080156117b6576117b633826130ce565b506117c060018055565b5050565b6117cc6131c3565b60035473ffffffffffffffffffffffffffffffffffffffff16331461184d576040517f08c379a000000000000000000000000000000000000000000000000000000000815260206004820152600960248201527f4e6f742061646d696e0000000000000000000000000000000000000000000000604482015260640161093e565b806118b4576040517f08c379a000000000000000000000000000000000000000000000000000000000815260206004820152601560248201527f4d757374206265207375706572696f7220746f20300000000000000000000000604482015260640161093e565b6007819055600a546040518281527f90eb87c560a0213754ceb3a7fa3012f01acab0a35602c1e1995adf69dabc9d50906020015b60405180910390a250565b6118fb613432565b73ffffffffffffffffffffffffffffffffffffffff8116611978576040517f08c379a000000000000000000000000000000000000000000000000000000000815260206004820152601660248201527f43616e6e6f74206265207a65726f206164647265737300000000000000000000604482015260640161093e565b600380547fffffffffffffffffffffffff00000000000000000000000000000000000000001673ffffffffffffffffffffffffffffffffffffffff83169081179091556040519081527f137b621413925496477d46e5055ac0d56178bdd724ba8bf843afceef18268ba3906020015b60405180910390a150565b6119fa613432565b6109b060006134b3565b611a0c6131c3565b60035473ffffffffffffffffffffffffffffffffffffffff163314611a8d576040517f08c379a000000000000000000000000000000000000000000000000000000000815260206004820152600960248201527f4e6f742061646d696e0000000000000000000000000000000000000000000000604482015260640161093e565b6103e8811115611af9576040517f08c379a000000000000000000000000000000000000000000000000000000000815260206004820152601560248201527f54726561737572792066656520746f6f20686967680000000000000000000000604482015260640161093e565b6008819055600a546040518281527fb1c4ee38d35556741133da7ff9b6f7ab0fa88d0406133126ff128f635490a857906020016118e8565b6000828152600c6020908152604080832073ffffffffffffffffffffffffffffffffffffffff85168452909152808220815160608101909252805483929190829060ff166001811115611bad577f4e487b7100000000000000000000000000000000000000000000000000000000600052602160045260246000fd5b6001811115611be5577f4e487b7100000000000000000000000000000000000000000000000000000000600052602160045260246000fd5b815260018281015460208084019190915260029384015460ff908116151560409485015260008a8152600d835284902084516101808101865281548152938101549284019290925293810154928201929092526003820154606082015260048201546080820152600582015460a0820152600682015460c0820152600782015460e082015260088201546101008201526009820154610120820152600a820154610140820152600b9091015490911615801561016083018190529293509091611cb057508160400151155b8015611ccc57506005548160600151611cc991906144ad565b42115b8015611cdb5750602082015115155b925050505b92915050565b611cee6132c4565b60035473ffffffffffffffffffffffffffffffffffffffff16331480611d2b575060045473ffffffffffffffffffffffffffffffffffffffff1633145b611d91576040517f08c379a000000000000000000000000000000000000000000000000000000000815260206004820152601260248201527f4e6f74206f70657261746f722f61646d696e0000000000000000000000000000604482015260640161093e565b611d99613528565b600a546040517f68b095021b1f40fe513109f513c66692f0b3219aee674a69f4efc57badb8201d90600090a2565b611dcf6131c3565b60035473ffffffffffffffffffffffffffffffffffffffff163314611e50576040517f08c379a000000000000000000000000000000000000000000000000000000000815260206004820152600960248201527f4e6f742061646d696e0000000000000000000000000000000000000000000000604482015260640161093e565b808210611edf576040517f08c379a000000000000000000000000000000000000000000000000000000000815260206004820152603160248201527f6275666665725365636f6e6473206d75737420626520696e666572696f72207460448201527f6f20696e74657276616c5365636f6e6473000000000000000000000000000000606482015260840161093e565b6005829055600681905560408051838152602081018390527fe60149e0431fec12df63dfab5fce2a9cefe9a4d3df5f41cb626f579ae1f2b91a910160405180910390a15050565b73ffffffffffffffffffffffffffffffffffffffff83166000908152600e602052604081205460609182918490611f5e90879061453b565b811115611f995773ffffffffffffffffffffffffffffffffffffffff87166000908152600e6020526040902054611f9690879061453b565b90505b60008167ffffffffffffffff811115611fdb577f4e487b7100000000000000000000000000000000000000000000000000000000600052604160045260246000fd5b604051908082528060200260200182016040528015612004578160200160208202803683370190505b50905060008267ffffffffffffffff811115612049577f4e487b7100000000000000000000000000000000000000000000000000000000600052604160045260246000fd5b6040519080825280602002602001820160405280156120b257816020015b60408051606081018252600080825260208083018290529282015282527fffffffffffffffffffffffffffffffffffffffffffffffffffffffffffffffff9092019101816120675790505b50905060005b838110156122e85773ffffffffffffffffffffffffffffffffffffffff8a166000908152600e602052604090206120ef828b6144ad565b81548110612126577f4e487b7100000000000000000000000000000000000000000000000000000000600052603260045260246000fd5b906000526020600020015483828151811061216a577f4e487b7100000000000000000000000000000000000000000000000000000000600052603260045260246000fd5b602002602001018181525050600c60008483815181106121b3577f4e487b7100000000000000000000000000000000000000000000000000000000600052603260045260246000fd5b6020908102919091018101518252818101929092526040908101600090812073ffffffffffffffffffffffffffffffffffffffff8e168252909252908190208151606081019092528054829060ff16600181111561223a577f4e487b7100000000000000000000000000000000000000000000000000000000600052602160045260246000fd5b6001811115612272577f4e487b7100000000000000000000000000000000000000000000000000000000600052602160045260246000fd5b81526001820154602082015260029091015460ff16151560409091015282518390839081106122ca577f4e487b7100000000000000000000000000000000000000000000000000000000600052603260045260246000fd5b602002602001018190525080806122e090614582565b9150506120b8565b5081816122f5858b6144ad565b95509550955050505093509350939050565b6000828152600c6020908152604080832073ffffffffffffffffffffffffffffffffffffffff85168452909152808220815160608101909252805483929190829060ff166001811115612383577f4e487b7100000000000000000000000000000000000000000000000000000000600052602160045260246000fd5b60018111156123bb577f4e487b7100000000000000000000000000000000000000000000000000000000600052602160045260246000fd5b815260018281015460208084019190915260029384015460ff908116151560409485015260008a8152600d8352849020845161018081018652815481529381015492840192909252938101549282019290925260038201546060820152600482015460808201819052600583015460a08301819052600684015460c0840152600784015460e084015260088401546101008401526009840154610120840152600a840154610140840152600b909301549093161515610160820152929350141561248a57600092505050611ce0565b806101600151801561249f5750602082015115155b80156124ad57508160400151155b8015611cdb575080608001518160a001511380156125045750600082516001811115612502577f4e487b7100000000000000000000000000000000000000000000000000000000600052602160045260246000fd5b145b80611cdb575080608001518160a00151128015611cdb5750600182516001811115612558577f4e487b7100000000000000000000000000000000000000000000000000000000600052602160045260246000fd5b1495945050505050565b61256a6132c4565b61257261305a565b333b156125db576040517f08c379a000000000000000000000000000000000000000000000000000000000815260206004820152601460248201527f436f6e7472616374206e6f7420616c6c6f776564000000000000000000000000604482015260640161093e565b333214612644576040517f08c379a000000000000000000000000000000000000000000000000000000000815260206004820152601a60248201527f50726f787920636f6e7472616374206e6f7420616c6c6f776564000000000000604482015260640161093e565b600a5481146126af576040517f08c379a000000000000000000000000000000000000000000000000000000000815260206004820152601560248201527f42657420697320746f6f206561726c792f6c6174650000000000000000000000604482015260640161093e565b6126b8816133c7565b61271e576040517f08c379a000000000000000000000000000000000000000000000000000000000815260206004820152601260248201527f526f756e64206e6f74206265747461626c650000000000000000000000000000604482015260640161093e565b6007543410156127b0576040517f08c379a000000000000000000000000000000000000000000000000000000000815260206004820152602c60248201527f42657420616d6f756e74206d7573742062652067726561746572207468616e2060448201527f6d696e426574416d6f756e740000000000000000000000000000000000000000606482015260840161093e565b6000818152600c6020908152604080832033845290915290206001015415612834576040517f08c379a000000000000000000000000000000000000000000000000000000000815260206004820152601b60248201527f43616e206f6e6c7920626574206f6e63652070657220726f756e640000000000604482015260640161093e565b6000818152600d6020526040902060068101543491906128559083906144ad565b6006820155600881015461286a9083906144ad565b60088201556000838152600c602090815260408083203380855290835281842080547fffffffffffffffffffffffffffffffffffffffffffffffffffffffffffffff001660019081178255808201889055600e855283862080549182018155865294849020909401879055905185815286927f0d8c1fe3e67ab767116a81f122b83c2557a8c2564019cb7c4f83de1aeb1f1f0d9101610ff3565b61290c6132c4565b60045473ffffffffffffffffffffffffffffffffffffffff16331461298d576040517f08c379a000000000000000000000000000000000000000000000000000000000815260206004820152600c60248201527f4e6f74206f70657261746f720000000000000000000000000000000000000000604482015260640161093e565b6002547501000000000000000000000000000000000000000000900460ff16612a38576040517f08c379a000000000000000000000000000000000000000000000000000000000815260206004820152603160248201527f43616e206f6e6c792072756e2061667465722067656e6573697353746172745260448201527f6f756e6420697320747269676765726564000000000000000000000000000000606482015260840161093e565b60025474010000000000000000000000000000000000000000900460ff1615612ae3576040517f08c379a000000000000000000000000000000000000000000000000000000000815260206004820152602260248201527f43616e206f6e6c792072756e2067656e657369734c6f636b526f756e64206f6e60448201527f6365000000000000000000000000000000000000000000000000000000000000606482015260840161093e565b600a548190612af29082613597565b600a54612b009060016144ad565b600a819055612b0e90613349565b600280547fffffffffffffffffffffff00ffffffffffffffffffffffffffffffffffffffff1674010000000000000000000000000000000000000000179055600a546040517f72bd5c94e7723e61342608a0506d9111bc8964a94c3ad7e630735a51cc40bfe190600090a25050565b612b85613432565b612ba673ffffffffffffffffffffffffffffffffffffffff831633836137e6565b8173ffffffffffffffffffffffffffffffffffffffff167f14f11966a996e0629572e51064726d2057a80fbd34efc066682c06a71dbb6e9882604051612bee91815260200190565b60405180910390a25050565b60035473ffffffffffffffffffffffffffffffffffffffff163314612c7b576040517f08c379a000000000000000000000000000000000000000000000000000000000815260206004820152600960248201527f4e6f742061646d696e0000000000000000000000000000000000000000000000604482015260640161093e565b73ffffffffffffffffffffffffffffffffffffffff8116612cf8576040517f08c379a000000000000000000000000000000000000000000000000000000000815260206004820152601660248201527f43616e6e6f74206265207a65726f206164647265737300000000000000000000604482015260640161093e565b600480547fffffffffffffffffffffffff00000000000000000000000000000000000000001673ffffffffffffffffffffffffffffffffffffffff83169081179091556040519081527fc47d127c07bdd56c5ccba00463ce3bd3c1bca71b4670eea6e5d0c02e4aa156e2906020016119e7565b612d736132c4565b60045473ffffffffffffffffffffffffffffffffffffffff163314612df4576040517f08c379a000000000000000000000000000000000000000000000000000000000815260206004820152600c60248201527f4e6f74206f70657261746f720000000000000000000000000000000000000000604482015260640161093e565b6002547501000000000000000000000000000000000000000000900460ff168015612e39575060025474010000000000000000000000000000000000000000900460ff165b612eeb576040517f08c379a000000000000000000000000000000000000000000000000000000000815260206004820152604660248201527f43616e206f6e6c792072756e2061667465722067656e6573697353746172745260448201527f6f756e6420616e642067656e657369734c6f636b526f756e642069732074726960648201527f6767657265640000000000000000000000000000000000000000000000000000608482015260a40161093e565b600a548190612efa9082613597565b612f126001600a54612f0c919061453b565b82613873565b612f296001600a54612f24919061453b565b613ad7565b600a54612f379060016144ad565b600a819055612f4590613c79565b600a546040517f72bd5c94e7723e61342608a0506d9111bc8964a94c3ad7e630735a51cc40bfe190600090a25050565b600e6020528160005260406000208181548110612f9157600080fd5b90600052602060002001600091509150505481565b612fae613432565b73ffffffffffffffffffffffffffffffffffffffff8116613051576040517f08c379a000000000000000000000000000000000000000000000000000000000815260206004820152602660248201527f4f776e61626c653a206e6577206f776e657220697320746865207a65726f206160448201527f6464726573730000000000000000000000000000000000000000000000000000606482015260840161093e565b611007816134b3565b600260015414156130c7576040517f08c379a000000000000000000000000000000000000000000000000000000000815260206004820152601f60248201527f5265656e7472616e637947756172643a207265656e7472616e742063616c6c00604482015260640161093e565b6002600155565b60008273ffffffffffffffffffffffffffffffffffffffff168260405160006040518083038185875af1925050503d8060008114613128576040519150601f19603f3d011682016040523d82523d6000602084013e61312d565b606091505b50509050806131be576040517f08c379a000000000000000000000000000000000000000000000000000000000815260206004820152602360248201527f5472616e7366657248656c7065723a20424e425f5452414e534645525f46414960448201527f4c45440000000000000000000000000000000000000000000000000000000000606482015260840161093e565b505050565b60005474010000000000000000000000000000000000000000900460ff166109b0576040517f08c379a000000000000000000000000000000000000000000000000000000000815260206004820152601460248201527f5061757361626c653a206e6f7420706175736564000000000000000000000000604482015260640161093e565b61324f6131c3565b600080547fffffffffffffffffffffff00ffffffffffffffffffffffffffffffffffffffff1690557f5db9ee0a495bf2e6ff9c91a7834c1ba4fdd244a5e8aa4e537bd38aeae4b073aa335b60405173ffffffffffffffffffffffffffffffffffffffff909116815260200160405180910390a1565b60005474010000000000000000000000000000000000000000900460ff16156109b0576040517f08c379a000000000000000000000000000000000000000000000000000000000815260206004820152601060248201527f5061757361626c653a2070617573656400000000000000000000000000000000604482015260640161093e565b6000818152600d60205260409020426001820181905560065461336b916144ad565b600280830191909155600654613380916144fe565b61338a90426144ad565b600382015581815560006006820181905560405183917f939f42374aa9bf1d8d8cd56d8a9110cb040cd8dfeae44080c6fcf2645e51b45291a25050565b6000818152600d6020526040812060010154158015906133f757506000828152600d602052604090206002015415155b801561341357506000828152600d602052604090206001015442115b8015611ce05750506000908152600d6020526040902060020154421090565b60005473ffffffffffffffffffffffffffffffffffffffff1633146109b0576040517f08c379a000000000000000000000000000000000000000000000000000000000815260206004820181905260248201527f4f776e61626c653a2063616c6c6572206973206e6f7420746865206f776e6572604482015260640161093e565b6000805473ffffffffffffffffffffffffffffffffffffffff8381167fffffffffffffffffffffffff0000000000000000000000000000000000000000831681178455604051919092169283917f8be0079c531659141344cd1fd0a4f28419497f9722a3daafe3b4186f6b6457e09190a35050565b6135306132c4565b600080547fffffffffffffffffffffff00ffffffffffffffffffffffffffffffffffffffff16740100000000000000000000000000000000000000001790557f62e78cea01bee320cd4e420270b5ea74000d11b0c9f74754ebdbfc544b05a25861329a3390565b6000828152600d6020526040902060010154613635576040517f08c379a000000000000000000000000000000000000000000000000000000000815260206004820152602b60248201527f43616e206f6e6c79206c6f636b20726f756e6420616674657220726f756e642060448201527f6861732073746172746564000000000000000000000000000000000000000000606482015260840161093e565b6000828152600d60205260409020600201544210156136d6576040517f08c379a000000000000000000000000000000000000000000000000000000000815260206004820152602760248201527f43616e206f6e6c79206c6f636b20726f756e64206166746572206c6f636b546960448201527f6d657374616d7000000000000000000000000000000000000000000000000000606482015260840161093e565b6005546000838152600d60205260409020600201546136f591906144ad565b421115613784576040517f08c379a000000000000000000000000000000000000000000000000000000000815260206004820152602860248201527f43616e206f6e6c79206c6f636b20726f756e642077697468696e20627566666560448201527f725365636f6e6473000000000000000000000000000000000000000000000000606482015260840161093e565b6000828152600d6020526040902060065461379f90426144ad565b60038201556004810182905560405182815283907feef94cbda40aa01b9b02b7dbd6075caa3662c0fabf77a84ed674b09b0ff9cb1e906020015b60405180910390a2505050565b6040805173ffffffffffffffffffffffffffffffffffffffff8416602482015260448082018490528251808303909101815260649091019091526020810180517bffffffffffffffffffffffffffffffffffffffffffffffffffffffff167fa9059cbb000000000000000000000000000000000000000000000000000000001790526131be908490613e8e565b6000828152600d6020526040902060020154613911576040517f08c379a000000000000000000000000000000000000000000000000000000000815260206004820152602960248201527f43616e206f6e6c7920656e6420726f756e6420616674657220726f756e64206860448201527f6173206c6f636b65640000000000000000000000000000000000000000000000606482015260840161093e565b6000828152600d60205260409020600301544210156139b2576040517f08c379a000000000000000000000000000000000000000000000000000000000815260206004820152602760248201527f43616e206f6e6c7920656e6420726f756e6420616674657220636c6f7365546960448201527f6d657374616d7000000000000000000000000000000000000000000000000000606482015260840161093e565b6005546000838152600d60205260409020600301546139d191906144ad565b421115613a60576040517f08c379a000000000000000000000000000000000000000000000000000000000815260206004820152602760248201527f43616e206f6e6c7920656e6420726f756e642077697468696e2062756666657260448201527f5365636f6e647300000000000000000000000000000000000000000000000000606482015260840161093e565b6000828152600d60205260409081902060058101839055600b810180547fffffffffffffffffffffffffffffffffffffffffffffffffffffffffffffff00166001179055905183907fcee1a52460a80134ed9fbda5e300b8aecaf44ba60b7fe91a80a3fef96d5c5b7a906137d99085815260200190565b6000818152600d6020526040902060090154158015613b0557506000818152600d60205260409020600a0154155b613b6b576040517f08c379a000000000000000000000000000000000000000000000000000000000815260206004820152601260248201527f526577617264732063616c63756c617465640000000000000000000000000000604482015260640161093e565b6000818152600d6020526040812060048101546005820154919291829182911315613bcf57836007015492506127106008548560060154613bac91906144fe565b613bb691906144c5565b9150818460060154613bc8919061453b565b9050613c08565b836004015484600501541215613bfb57836008015492506127106008548560060154613bac91906144fe565b5050506006810154600090815b6009808501849055600a85018290558054839190600090613c2a9084906144ad565b9091555050604080518481526020810183905290810183905285907f6dfdfcb09c8804d0058826cd2539f1acfbe3cb887c9be03d928035bce0f1a58d9060600160405180910390a25050505050565b6002547501000000000000000000000000000000000000000000900460ff16613d24576040517f08c379a000000000000000000000000000000000000000000000000000000000815260206004820152603160248201527f43616e206f6e6c792072756e2061667465722067656e6573697353746172745260448201527f6f756e6420697320747269676765726564000000000000000000000000000000606482015260840161093e565b600d6000613d3360028461453b565b81526020019081526020016000206003015460001415613dd5576040517f08c379a000000000000000000000000000000000000000000000000000000000815260206004820152602e60248201527f43616e206f6e6c7920737461727420726f756e6420616674657220726f756e6460448201527f206e2d322068617320656e646564000000000000000000000000000000000000606482015260840161093e565b600d6000613de460028461453b565b815260200190815260200160002060030154421015613e85576040517f08c379a000000000000000000000000000000000000000000000000000000000815260206004820152603760248201527f43616e206f6e6c79207374617274206e657720726f756e64206166746572207260448201527f6f756e64206e2d3220636c6f736554696d657374616d70000000000000000000606482015260840161093e565b61100781613349565b6000613ef0826040518060400160405280602081526020017f5361666545524332303a206c6f772d6c6576656c2063616c6c206661696c65648152508573ffffffffffffffffffffffffffffffffffffffff16613f9a9092919063ffffffff16565b8051909150156131be5780806020019051810190613f0e91906142bb565b6131be576040517f08c379a000000000000000000000000000000000000000000000000000000000815260206004820152602a60248201527f5361666545524332303a204552433230206f7065726174696f6e20646964206e60448201527f6f74207375636365656400000000000000000000000000000000000000000000606482015260840161093e565b6060613fa98484600085613fb1565b949350505050565b606082471015614043576040517f08c379a000000000000000000000000000000000000000000000000000000000815260206004820152602660248201527f416464726573733a20696e73756666696369656e742062616c616e636520666f60448201527f722063616c6c0000000000000000000000000000000000000000000000000000606482015260840161093e565b6000808673ffffffffffffffffffffffffffffffffffffffff16858760405161406c919061437a565b60006040518083038185875af1925050503d80600081146140a9576040519150601f19603f3d011682016040523d82523d6000602084013e6140ae565b606091505b50915091506140bf878383876140ca565b979650505050505050565b6060831561415d5782516141565773ffffffffffffffffffffffffffffffffffffffff85163b614156576040517f08c379a000000000000000000000000000000000000000000000000000000000815260206004820152601d60248201527f416464726573733a2063616c6c20746f206e6f6e2d636f6e7472616374000000604482015260640161093e565b5081613fa9565b613fa983838151156141725781518083602001fd5b806040517f08c379a000000000000000000000000000000000000000000000000000000000815260040161093e919061445c565b803573ffffffffffffffffffffffffffffffffffffffff811681146141ca57600080fd5b919050565b6000602082840312156141e0578081fd5b6141e9826141a6565b9392505050565b60008060408385031215614202578081fd5b61420b836141a6565b946020939093013593505050565b60008060006060848603121561422d578081fd5b614236846141a6565b95602085013595506040909401359392505050565b6000806020838503121561425d578182fd5b823567ffffffffffffffff80821115614274578384fd5b818501915085601f830112614287578384fd5b813581811115614295578485fd5b8660208260051b85010111156142a9578485fd5b60209290920196919550909350505050565b6000602082840312156142cc578081fd5b815180151581146141e9578182fd5b6000602082840312156142ec578081fd5b5035919050565b60008060408385031215614305578182fd5b82359150614315602084016141a6565b90509250929050565b60008060408385031215614330578182fd5b50508035926020909101359150565b60028110614376577f4e487b7100000000000000000000000000000000000000000000000000000000600052602160045260246000fd5b9052565b6000825161438c818460208701614552565b9190910192915050565b60608082528451828201819052600091906020906080850190828901855b828110156143d0578151845292840192908401906001016143b4565b50505084810382860152865180825287830191830190855b818110156144215783516143fd84825161433f565b808601518487015260409081015115159084015292840192918501916001016143e8565b505080945050505050826040830152949350505050565b60608101614446828661433f565b8360208301528215156040830152949350505050565b602081526000825180602084015261447b816040850160208701614552565b601f017fffffffffffffffffffffffffffffffffffffffffffffffffffffffffffffffe0169190910160400192915050565b600082198211156144c0576144c06145bb565b500190565b6000826144f9577f4e487b710000000000000000000000000000000000000000000000000000000081526012600452602481fd5b500490565b6000817fffffffffffffffffffffffffffffffffffffffffffffffffffffffffffffffff0483118215151615614536576145366145bb565b500290565b60008282101561454d5761454d6145bb565b500390565b60005b8381101561456d578181015183820152602001614555565b8381111561457c576000848401525b50505050565b60007fffffffffffffffffffffffffffffffffffffffffffffffffffffffffffffffff8214156145b4576145b46145bb565b5060010190565b7f4e487b7100000000000000000000000000000000000000000000000000000000600052601160045260246000fdfea2646970667358221220d6be4dcb086919f26036a7cc661f57cba4ad7ec36364bb222e6c7fe04d3acb7964736f6c63430008040033","opcodes":"PUSH1 0x80 PUSH1 0x40 MSTORE PUSH1 0x2 DUP1 SLOAD PUSH2 0xFFFF PUSH1 0xA0 SHL NOT AND SWAP1 SSTORE CALLVALUE DUP1 ISZERO PUSH3 0x1F JUMPI PUSH1 0x0 DUP1 REVERT JUMPDEST POP PUSH1 0x40 MLOAD PUSH3 0x47F6 CODESIZE SUB DUP1 PUSH3 0x47F6 DUP4 CODECOPY DUP2 ADD PUSH1 0x40 DUP2 SWAP1 MSTORE PUSH3 0x42 SWAP2 PUSH3 0x16A JUMP JUMPDEST PUSH3 0x4D CALLER PUSH3 0xFD JUMP JUMPDEST PUSH1 0x0 DUP1 SLOAD PUSH1 0xFF PUSH1 0xA0 SHL NOT AND SWAP1 SSTORE PUSH1 0x1 DUP1 SSTORE PUSH2 0x3E8 DUP2 GT ISZERO PUSH3 0xB5 JUMPI PUSH1 0x40 MLOAD PUSH3 0x461BCD PUSH1 0xE5 SHL DUP2 MSTORE PUSH1 0x20 PUSH1 0x4 DUP3 ADD MSTORE PUSH1 0x15 PUSH1 0x24 DUP3 ADD MSTORE PUSH32 0x54726561737572792066656520746F6F20686967680000000000000000000000 PUSH1 0x44 DUP3 ADD MSTORE PUSH1 0x64 ADD PUSH1 0x40 MLOAD DUP1 SWAP2 SUB SWAP1 REVERT JUMPDEST PUSH1 0x3 DUP1 SLOAD PUSH1 0x1 PUSH1 0x1 PUSH1 0xA0 SHL SUB SWAP8 DUP9 AND PUSH1 0x1 PUSH1 0x1 PUSH1 0xA0 SHL SUB NOT SWAP2 DUP3 AND OR SWAP1 SWAP2 SSTORE PUSH1 0x4 DUP1 SLOAD SWAP7 SWAP1 SWAP8 AND SWAP6 AND SWAP5 SWAP1 SWAP5 OR SWAP1 SWAP5 SSTORE PUSH1 0x6 SWAP2 SWAP1 SWAP2 SSTORE PUSH1 0x5 SSTORE PUSH1 0x7 SWAP2 SWAP1 SWAP2 SSTORE PUSH1 0x8 SSTORE PUSH3 0x1C6 JUMP JUMPDEST PUSH1 0x0 DUP1 SLOAD PUSH1 0x1 PUSH1 0x1 PUSH1 0xA0 SHL SUB DUP4 DUP2 AND PUSH1 0x1 PUSH1 0x1 PUSH1 0xA0 SHL SUB NOT DUP4 AND DUP2 OR DUP5 SSTORE PUSH1 0x40 MLOAD SWAP2 SWAP1 SWAP3 AND SWAP3 DUP4 SWAP2 PUSH32 0x8BE0079C531659141344CD1FD0A4F28419497F9722A3DAAFE3B4186F6B6457E0 SWAP2 SWAP1 LOG3 POP POP JUMP JUMPDEST DUP1 MLOAD PUSH1 0x1 PUSH1 0x1 PUSH1 0xA0 SHL SUB DUP2 AND DUP2 EQ PUSH3 0x165 JUMPI PUSH1 0x0 DUP1 REVERT JUMPDEST SWAP2 SWAP1 POP JUMP JUMPDEST PUSH1 0x0 DUP1 PUSH1 0x0 DUP1 PUSH1 0x0 DUP1 PUSH1 0xC0 DUP8 DUP10 SUB SLT ISZERO PUSH3 0x183 JUMPI DUP2 DUP3 REVERT JUMPDEST PUSH3 0x18E DUP8 PUSH3 0x14D JUMP JUMPDEST SWAP6 POP PUSH3 0x19E PUSH1 0x20 DUP9 ADD PUSH3 0x14D JUMP JUMPDEST SWAP5 POP PUSH1 0x40 DUP8 ADD MLOAD SWAP4 POP PUSH1 0x60 DUP8 ADD MLOAD SWAP3 POP PUSH1 0x80 DUP8 ADD MLOAD SWAP2 POP PUSH1 0xA0 DUP8 ADD MLOAD SWAP1 POP SWAP3 SWAP6 POP SWAP3 SWAP6 POP SWAP3 SWAP6 JUMP JUMPDEST PUSH2 0x4620 DUP1 PUSH3 0x1D6 PUSH1 0x0 CODECOPY PUSH1 0x0 RETURN INVALID PUSH1 0x80 PUSH1 0x40 MSTORE PUSH1 0x4 CALLDATASIZE LT PUSH2 0x29F JUMPI PUSH1 0x0 CALLDATALOAD PUSH1 0xE0 SHR DUP1 PUSH4 0x7DC0D1D0 GT PUSH2 0x16E JUMPI DUP1 PUSH4 0xB3AB15FB GT PUSH2 0xCB JUMPI DUP1 PUSH4 0xF2B3C809 GT PUSH2 0x7F JUMPI DUP1 PUSH4 0xF7FDEC28 GT PUSH2 0x64 JUMPI DUP1 PUSH4 0xF7FDEC28 EQ PUSH2 0x843 JUMPI DUP1 PUSH4 0xFA968EEA EQ PUSH2 0x876 JUMPI DUP1 PUSH4 0xFC6F9468 EQ PUSH2 0x88C JUMPI PUSH1 0x0 DUP1 REVERT JUMPDEST DUP1 PUSH4 0xF2B3C809 EQ PUSH2 0x80D JUMPI DUP1 PUSH4 0xF2FDE38B EQ PUSH2 0x823 JUMPI PUSH1 0x0 DUP1 REVERT JUMPDEST DUP1 PUSH4 0xCDF09158 GT PUSH2 0xB0 JUMPI DUP1 PUSH4 0xCDF09158 EQ PUSH2 0x7B7 JUMPI DUP1 PUSH4 0xDD1F7596 EQ PUSH2 0x7D7 JUMPI DUP1 PUSH4 0xEABA2361 EQ PUSH2 0x7F7 JUMPI PUSH1 0x0 DUP1 REVERT JUMPDEST DUP1 PUSH4 0xB3AB15FB EQ PUSH2 0x781 JUMPI DUP1 PUSH4 0xCC32D176 EQ PUSH2 0x7A1 JUMPI PUSH1 0x0 DUP1 REVERT JUMPDEST DUP1 PUSH4 0x951FD600 GT PUSH2 0x122 JUMPI DUP1 PUSH4 0xAA6B873A GT PUSH2 0x107 JUMPI DUP1 PUSH4 0xAA6B873A EQ PUSH2 0x72E JUMPI DUP1 PUSH4 0xAC859A01 EQ PUSH2 0x741 JUMPI DUP1 PUSH4 0xB29A8140 EQ PUSH2 0x761 JUMPI PUSH1 0x0 DUP1 REVERT JUMPDEST DUP1 PUSH4 0x951FD600 EQ PUSH2 0x6DF JUMPI DUP1 PUSH4 0xA0C7F71C EQ PUSH2 0x70E JUMPI PUSH1 0x0 DUP1 REVERT JUMPDEST DUP1 PUSH4 0x890DC766 GT PUSH2 0x153 JUMPI DUP1 PUSH4 0x890DC766 EQ PUSH2 0x5BC JUMPI DUP1 PUSH4 0x8C65C81F EQ PUSH2 0x5DC JUMPI DUP1 PUSH4 0x8DA5CB5B EQ PUSH2 0x6B4 JUMPI PUSH1 0x0 DUP1 REVERT JUMPDEST DUP1 PUSH4 0x7DC0D1D0 EQ PUSH2 0x57A JUMPI DUP1 PUSH4 0x8456CB59 EQ PUSH2 0x5A7 JUMPI PUSH1 0x0 DUP1 REVERT JUMPDEST DUP1 PUSH4 0x60554011 GT PUSH2 0x21C JUMPI DUP1 PUSH4 0x7285C58B GT PUSH2 0x1D0 JUMPI DUP1 PUSH4 0x77E741C7 GT PUSH2 0x1B5 JUMPI DUP1 PUSH4 0x77E741C7 EQ PUSH2 0x524 JUMPI DUP1 PUSH4 0x7BF41254 EQ PUSH2 0x544 JUMPI DUP1 PUSH4 0x7D1CD04F EQ PUSH2 0x564 JUMPI PUSH1 0x0 DUP1 REVERT JUMPDEST DUP1 PUSH4 0x7285C58B EQ PUSH2 0x4B3 JUMPI DUP1 PUSH4 0x76671808 EQ PUSH2 0x50E JUMPI PUSH1 0x0 DUP1 REVERT JUMPDEST DUP1 PUSH4 0x6C188593 GT PUSH2 0x201 JUMPI DUP1 PUSH4 0x6C188593 EQ PUSH2 0x45E JUMPI DUP1 PUSH4 0x704B6C02 EQ PUSH2 0x47E JUMPI DUP1 PUSH4 0x715018A6 EQ PUSH2 0x49E JUMPI PUSH1 0x0 DUP1 REVERT JUMPDEST DUP1 PUSH4 0x60554011 EQ PUSH2 0x428 JUMPI DUP1 PUSH4 0x6BA4C138 EQ PUSH2 0x43E JUMPI PUSH1 0x0 DUP1 REVERT JUMPDEST DUP1 PUSH4 0x368ACB09 GT PUSH2 0x273 JUMPI DUP1 PUSH4 0x452FD75A GT PUSH2 0x258 JUMPI DUP1 PUSH4 0x452FD75A EQ PUSH2 0x3D0 JUMPI DUP1 PUSH4 0x57FB096F EQ PUSH2 0x3E5 JUMPI DUP1 PUSH4 0x5C975ABB EQ PUSH2 0x3F8 JUMPI PUSH1 0x0 DUP1 REVERT JUMPDEST DUP1 PUSH4 0x368ACB09 EQ PUSH2 0x3A5 JUMPI DUP1 PUSH4 0x3F4BA83A EQ PUSH2 0x3BB JUMPI PUSH1 0x0 DUP1 REVERT JUMPDEST DUP1 PUSH3 0x3BDC74 EQ PUSH2 0x2A4 JUMPI DUP1 PUSH4 0xF74174F EQ PUSH2 0x2BB JUMPI DUP1 PUSH4 0x127EFFB2 EQ PUSH2 0x302 JUMPI DUP1 PUSH4 0x273867D4 EQ PUSH2 0x354 JUMPI JUMPDEST PUSH1 0x0 DUP1 REVERT JUMPDEST CALLVALUE DUP1 ISZERO PUSH2 0x2B0 JUMPI PUSH1 0x0 DUP1 REVERT JUMPDEST POP PUSH2 0x2B9 PUSH2 0x8B9 JUMP JUMPDEST STOP JUMPDEST CALLVALUE DUP1 ISZERO PUSH2 0x2C7 JUMPI PUSH1 0x0 DUP1 REVERT JUMPDEST POP PUSH1 0x2 SLOAD PUSH2 0x2ED SWAP1 PUSH21 0x10000000000000000000000000000000000000000 SWAP1 DIV PUSH1 0xFF AND DUP2 JUMP JUMPDEST PUSH1 0x40 MLOAD SWAP1 ISZERO ISZERO DUP2 MSTORE PUSH1 0x20 ADD JUMPDEST PUSH1 0x40 MLOAD DUP1 SWAP2 SUB SWAP1 RETURN JUMPDEST CALLVALUE DUP1 ISZERO PUSH2 0x30E JUMPI PUSH1 0x0 DUP1 REVERT JUMPDEST POP PUSH1 0x4 SLOAD PUSH2 0x32F SWAP1 PUSH20 0xFFFFFFFFFFFFFFFFFFFFFFFFFFFFFFFFFFFFFFFF AND DUP2 JUMP JUMPDEST PUSH1 0x40 MLOAD PUSH20 0xFFFFFFFFFFFFFFFFFFFFFFFFFFFFFFFFFFFFFFFF SWAP1 SWAP2 AND DUP2 MSTORE PUSH1 0x20 ADD PUSH2 0x2F9 JUMP JUMPDEST CALLVALUE DUP1 ISZERO PUSH2 0x360 JUMPI PUSH1 0x0 DUP1 REVERT JUMPDEST POP PUSH2 0x397 PUSH2 0x36F CALLDATASIZE PUSH1 0x4 PUSH2 0x41CF JUMP JUMPDEST PUSH20 0xFFFFFFFFFFFFFFFFFFFFFFFFFFFFFFFFFFFFFFFF AND PUSH1 0x0 SWAP1 DUP2 MSTORE PUSH1 0xE PUSH1 0x20 MSTORE PUSH1 0x40 SWAP1 KECCAK256 SLOAD SWAP1 JUMP JUMPDEST PUSH1 0x40 MLOAD SWAP1 DUP2 MSTORE PUSH1 0x20 ADD PUSH2 0x2F9 JUMP JUMPDEST CALLVALUE DUP1 ISZERO PUSH2 0x3B1 JUMPI PUSH1 0x0 DUP1 REVERT JUMPDEST POP PUSH2 0x397 PUSH1 0x9 SLOAD DUP2 JUMP JUMPDEST CALLVALUE DUP1 ISZERO PUSH2 0x3C7 JUMPI PUSH1 0x0 DUP1 REVERT JUMPDEST POP PUSH2 0x2B9 PUSH2 0x9B2 JUMP JUMPDEST CALLVALUE DUP1 ISZERO PUSH2 0x3DC JUMPI PUSH1 0x0 DUP1 REVERT JUMPDEST POP PUSH2 0x2B9 PUSH2 0xA99 JUMP JUMPDEST PUSH2 0x2B9 PUSH2 0x3F3 CALLDATASIZE PUSH1 0x4 PUSH2 0x42DB JUMP JUMPDEST PUSH2 0xC58 JUMP JUMPDEST CALLVALUE DUP1 ISZERO PUSH2 0x404 JUMPI PUSH1 0x0 DUP1 REVERT JUMPDEST POP PUSH1 0x0 SLOAD PUSH21 0x10000000000000000000000000000000000000000 SWAP1 DIV PUSH1 0xFF AND PUSH2 0x2ED JUMP JUMPDEST CALLVALUE DUP1 ISZERO PUSH2 0x434 JUMPI PUSH1 0x0 DUP1 REVERT JUMPDEST POP PUSH2 0x397 PUSH1 0xB SLOAD DUP2 JUMP JUMPDEST CALLVALUE DUP1 ISZERO PUSH2 0x44A JUMPI PUSH1 0x0 DUP1 REVERT JUMPDEST POP PUSH2 0x2B9 PUSH2 0x459 CALLDATASIZE PUSH1 0x4 PUSH2 0x424B JUMP JUMPDEST PUSH2 0x100A JUMP JUMPDEST CALLVALUE DUP1 ISZERO PUSH2 0x46A JUMPI PUSH1 0x0 DUP1 REVERT JUMPDEST POP PUSH2 0x2B9 PUSH2 0x479 CALLDATASIZE PUSH1 0x4 PUSH2 0x42DB JUMP JUMPDEST PUSH2 0x17C4 JUMP JUMPDEST CALLVALUE DUP1 ISZERO PUSH2 0x48A JUMPI PUSH1 0x0 DUP1 REVERT JUMPDEST POP PUSH2 0x2B9 PUSH2 0x499 CALLDATASIZE PUSH1 0x4 PUSH2 0x41CF JUMP JUMPDEST PUSH2 0x18F3 JUMP JUMPDEST CALLVALUE DUP1 ISZERO PUSH2 0x4AA JUMPI PUSH1 0x0 DUP1 REVERT JUMPDEST POP PUSH2 0x2B9 PUSH2 0x19F2 JUMP JUMPDEST CALLVALUE DUP1 ISZERO PUSH2 0x4BF JUMPI PUSH1 0x0 DUP1 REVERT JUMPDEST POP PUSH2 0x4FF PUSH2 0x4CE CALLDATASIZE PUSH1 0x4 PUSH2 0x42F3 JUMP JUMPDEST PUSH1 0xC PUSH1 0x20 SWAP1 DUP2 MSTORE PUSH1 0x0 SWAP3 DUP4 MSTORE PUSH1 0x40 DUP1 DUP5 KECCAK256 SWAP1 SWAP2 MSTORE SWAP1 DUP3 MSTORE SWAP1 KECCAK256 DUP1 SLOAD PUSH1 0x1 DUP3 ADD SLOAD PUSH1 0x2 SWAP1 SWAP3 ADD SLOAD PUSH1 0xFF SWAP2 DUP3 AND SWAP3 SWAP2 AND DUP4 JUMP JUMPDEST PUSH1 0x40 MLOAD PUSH2 0x2F9 SWAP4 SWAP3 SWAP2 SWAP1 PUSH2 0x4438 JUMP JUMPDEST CALLVALUE DUP1 ISZERO PUSH2 0x51A JUMPI PUSH1 0x0 DUP1 REVERT JUMPDEST POP PUSH2 0x397 PUSH1 0xA SLOAD DUP2 JUMP JUMPDEST CALLVALUE DUP1 ISZERO PUSH2 0x530 JUMPI PUSH1 0x0 DUP1 REVERT JUMPDEST POP PUSH2 0x2B9 PUSH2 0x53F CALLDATASIZE PUSH1 0x4 PUSH2 0x42DB JUMP JUMPDEST PUSH2 0x1A04 JUMP JUMPDEST CALLVALUE DUP1 ISZERO PUSH2 0x550 JUMPI PUSH1 0x0 DUP1 REVERT JUMPDEST POP PUSH2 0x2ED PUSH2 0x55F CALLDATASIZE PUSH1 0x4 PUSH2 0x42F3 JUMP JUMPDEST PUSH2 0x1B31 JUMP JUMPDEST CALLVALUE DUP1 ISZERO PUSH2 0x570 JUMPI PUSH1 0x0 DUP1 REVERT JUMPDEST POP PUSH2 0x397 PUSH1 0x6 SLOAD DUP2 JUMP JUMPDEST CALLVALUE DUP1 ISZERO PUSH2 0x586 JUMPI PUSH1 0x0 DUP1 REVERT JUMPDEST POP PUSH1 0x2 SLOAD PUSH2 0x32F SWAP1 PUSH20 0xFFFFFFFFFFFFFFFFFFFFFFFFFFFFFFFFFFFFFFFF AND DUP2 JUMP JUMPDEST CALLVALUE DUP1 ISZERO PUSH2 0x5B3 JUMPI PUSH1 0x0 DUP1 REVERT JUMPDEST POP PUSH2 0x2B9 PUSH2 0x1CE6 JUMP JUMPDEST CALLVALUE DUP1 ISZERO PUSH2 0x5C8 JUMPI PUSH1 0x0 DUP1 REVERT JUMPDEST POP PUSH2 0x2B9 PUSH2 0x5D7 CALLDATASIZE PUSH1 0x4 PUSH2 0x431E JUMP JUMPDEST PUSH2 0x1DC7 JUMP JUMPDEST CALLVALUE DUP1 ISZERO PUSH2 0x5E8 JUMPI PUSH1 0x0 DUP1 REVERT JUMPDEST POP PUSH2 0x659 PUSH2 0x5F7 CALLDATASIZE PUSH1 0x4 PUSH2 0x42DB JUMP JUMPDEST PUSH1 0xD PUSH1 0x20 MSTORE PUSH1 0x0 SWAP1 DUP2 MSTORE PUSH1 0x40 SWAP1 KECCAK256 DUP1 SLOAD PUSH1 0x1 DUP3 ADD SLOAD PUSH1 0x2 DUP4 ADD SLOAD PUSH1 0x3 DUP5 ADD SLOAD PUSH1 0x4 DUP6 ADD SLOAD PUSH1 0x5 DUP7 ADD SLOAD PUSH1 0x6 DUP8 ADD SLOAD PUSH1 0x7 DUP9 ADD SLOAD PUSH1 0x8 DUP10 ADD SLOAD PUSH1 0x9 DUP11 ADD SLOAD PUSH1 0xA DUP12 ADD SLOAD PUSH1 0xB SWAP1 SWAP12 ADD SLOAD SWAP10 SWAP11 SWAP9 SWAP10 SWAP8 SWAP9 SWAP7 SWAP8 SWAP6 SWAP7 SWAP5 SWAP6 SWAP4 SWAP5 SWAP3 SWAP4 SWAP2 SWAP3 SWAP1 SWAP2 PUSH1 0xFF AND DUP13 JUMP JUMPDEST PUSH1 0x40 DUP1 MLOAD SWAP13 DUP14 MSTORE PUSH1 0x20 DUP14 ADD SWAP12 SWAP1 SWAP12 MSTORE SWAP10 DUP12 ADD SWAP9 SWAP1 SWAP9 MSTORE PUSH1 0x60 DUP11 ADD SWAP7 SWAP1 SWAP7 MSTORE PUSH1 0x80 DUP10 ADD SWAP5 SWAP1 SWAP5 MSTORE PUSH1 0xA0 DUP9 ADD SWAP3 SWAP1 SWAP3 MSTORE PUSH1 0xC0 DUP8 ADD MSTORE PUSH1 0xE0 DUP7 ADD MSTORE PUSH2 0x100 DUP6 ADD MSTORE PUSH2 0x120 DUP5 ADD MSTORE PUSH2 0x140 DUP4 ADD MSTORE ISZERO ISZERO PUSH2 0x160 DUP3 ADD MSTORE PUSH2 0x180 ADD PUSH2 0x2F9 JUMP JUMPDEST CALLVALUE DUP1 ISZERO PUSH2 0x6C0 JUMPI PUSH1 0x0 DUP1 REVERT JUMPDEST POP PUSH1 0x0 SLOAD PUSH20 0xFFFFFFFFFFFFFFFFFFFFFFFFFFFFFFFFFFFFFFFF AND PUSH2 0x32F JUMP JUMPDEST CALLVALUE DUP1 ISZERO PUSH2 0x6EB JUMPI PUSH1 0x0 DUP1 REVERT JUMPDEST POP PUSH2 0x6FF PUSH2 0x6FA CALLDATASIZE PUSH1 0x4 PUSH2 0x4219 JUMP JUMPDEST PUSH2 0x1F26 JUMP JUMPDEST PUSH1 0x40 MLOAD PUSH2 0x2F9 SWAP4 SWAP3 SWAP2 SWAP1 PUSH2 0x4396 JUMP JUMPDEST CALLVALUE DUP1 ISZERO PUSH2 0x71A JUMPI PUSH1 0x0 DUP1 REVERT JUMPDEST POP PUSH2 0x2ED PUSH2 0x729 CALLDATASIZE PUSH1 0x4 PUSH2 0x42F3 JUMP JUMPDEST PUSH2 0x2307 JUMP JUMPDEST PUSH2 0x2B9 PUSH2 0x73C CALLDATASIZE PUSH1 0x4 PUSH2 0x42DB JUMP JUMPDEST PUSH2 0x2562 JUMP JUMPDEST CALLVALUE DUP1 ISZERO PUSH2 0x74D JUMPI PUSH1 0x0 DUP1 REVERT JUMPDEST POP PUSH2 0x2B9 PUSH2 0x75C CALLDATASIZE PUSH1 0x4 PUSH2 0x42DB JUMP JUMPDEST PUSH2 0x2904 JUMP JUMPDEST CALLVALUE DUP1 ISZERO PUSH2 0x76D JUMPI PUSH1 0x0 DUP1 REVERT JUMPDEST POP PUSH2 0x2B9 PUSH2 0x77C CALLDATASIZE PUSH1 0x4 PUSH2 0x41F0 JUMP JUMPDEST PUSH2 0x2B7D JUMP JUMPDEST CALLVALUE DUP1 ISZERO PUSH2 0x78D JUMPI PUSH1 0x0 DUP1 REVERT JUMPDEST POP PUSH2 0x2B9 PUSH2 0x79C CALLDATASIZE PUSH1 0x4 PUSH2 0x41CF JUMP JUMPDEST PUSH2 0x2BFA JUMP JUMPDEST CALLVALUE DUP1 ISZERO PUSH2 0x7AD JUMPI PUSH1 0x0 DUP1 REVERT JUMPDEST POP PUSH2 0x397 PUSH1 0x8 SLOAD DUP2 JUMP JUMPDEST CALLVALUE DUP1 ISZERO PUSH2 0x7C3 JUMPI PUSH1 0x0 DUP1 REVERT JUMPDEST POP PUSH2 0x2B9 PUSH2 0x7D2 CALLDATASIZE PUSH1 0x4 PUSH2 0x42DB JUMP JUMPDEST PUSH2 0x2D6B JUMP JUMPDEST CALLVALUE DUP1 ISZERO PUSH2 0x7E3 JUMPI PUSH1 0x0 DUP1 REVERT JUMPDEST POP PUSH2 0x397 PUSH2 0x7F2 CALLDATASIZE PUSH1 0x4 PUSH2 0x41F0 JUMP JUMPDEST PUSH2 0x2F75 JUMP JUMPDEST CALLVALUE DUP1 ISZERO PUSH2 0x803 JUMPI PUSH1 0x0 DUP1 REVERT JUMPDEST POP PUSH2 0x397 PUSH1 0x5 SLOAD DUP2 JUMP JUMPDEST CALLVALUE DUP1 ISZERO PUSH2 0x819 JUMPI PUSH1 0x0 DUP1 REVERT JUMPDEST POP PUSH2 0x397 PUSH2 0x3E8 DUP2 JUMP JUMPDEST CALLVALUE DUP1 ISZERO PUSH2 0x82F JUMPI PUSH1 0x0 DUP1 REVERT JUMPDEST POP PUSH2 0x2B9 PUSH2 0x83E CALLDATASIZE PUSH1 0x4 PUSH2 0x41CF JUMP JUMPDEST PUSH2 0x2FA6 JUMP JUMPDEST CALLVALUE DUP1 ISZERO PUSH2 0x84F JUMPI PUSH1 0x0 DUP1 REVERT JUMPDEST POP PUSH1 0x2 SLOAD PUSH2 0x2ED SWAP1 PUSH22 0x1000000000000000000000000000000000000000000 SWAP1 DIV PUSH1 0xFF AND DUP2 JUMP JUMPDEST CALLVALUE DUP1 ISZERO PUSH2 0x882 JUMPI PUSH1 0x0 DUP1 REVERT JUMPDEST POP PUSH2 0x397 PUSH1 0x7 SLOAD DUP2 JUMP JUMPDEST CALLVALUE DUP1 ISZERO PUSH2 0x898 JUMPI PUSH1 0x0 DUP1 REVERT JUMPDEST POP PUSH1 0x3 SLOAD PUSH2 0x32F SWAP1 PUSH20 0xFFFFFFFFFFFFFFFFFFFFFFFFFFFFFFFFFFFFFFFF AND DUP2 JUMP JUMPDEST PUSH2 0x8C1 PUSH2 0x305A JUMP JUMPDEST PUSH1 0x3 SLOAD PUSH20 0xFFFFFFFFFFFFFFFFFFFFFFFFFFFFFFFFFFFFFFFF AND CALLER EQ PUSH2 0x947 JUMPI PUSH1 0x40 MLOAD PUSH32 0x8C379A000000000000000000000000000000000000000000000000000000000 DUP2 MSTORE PUSH1 0x20 PUSH1 0x4 DUP3 ADD MSTORE PUSH1 0x9 PUSH1 0x24 DUP3 ADD MSTORE PUSH32 0x4E6F742061646D696E0000000000000000000000000000000000000000000000 PUSH1 0x44 DUP3 ADD MSTORE PUSH1 0x64 ADD JUMPDEST PUSH1 0x40 MLOAD DUP1 SWAP2 SUB SWAP1 REVERT JUMPDEST PUSH1 0x9 DUP1 SLOAD PUSH1 0x0 SWAP1 SWAP2 SSTORE PUSH1 0x3 SLOAD PUSH2 0x973 SWAP1 PUSH20 0xFFFFFFFFFFFFFFFFFFFFFFFFFFFFFFFFFFFFFFFF AND DUP3 PUSH2 0x30CE JUMP JUMPDEST PUSH1 0x40 MLOAD DUP2 DUP2 MSTORE PUSH32 0xB9197C6B8E21274BD1E2D9C956A88AF5CFEE510F630FAB3F046300F88B422361 SWAP1 PUSH1 0x20 ADD PUSH1 0x40 MLOAD DUP1 SWAP2 SUB SWAP1 LOG1 POP PUSH2 0x9B0 PUSH1 0x1 DUP1 SSTORE JUMP JUMPDEST JUMP JUMPDEST PUSH2 0x9BA PUSH2 0x31C3 JUMP JUMPDEST PUSH1 0x3 SLOAD PUSH20 0xFFFFFFFFFFFFFFFFFFFFFFFFFFFFFFFFFFFFFFFF AND CALLER EQ PUSH2 0xA3B JUMPI PUSH1 0x40 MLOAD PUSH32 0x8C379A000000000000000000000000000000000000000000000000000000000 DUP2 MSTORE PUSH1 0x20 PUSH1 0x4 DUP3 ADD MSTORE PUSH1 0x9 PUSH1 0x24 DUP3 ADD MSTORE PUSH32 0x4E6F742061646D696E0000000000000000000000000000000000000000000000 PUSH1 0x44 DUP3 ADD MSTORE PUSH1 0x64 ADD PUSH2 0x93E JUMP JUMPDEST PUSH1 0x2 DUP1 SLOAD PUSH32 0xFFFFFFFFFFFFFFFFFFFF0000FFFFFFFFFFFFFFFFFFFFFFFFFFFFFFFFFFFFFFFF AND SWAP1 SSTORE PUSH2 0xA6B PUSH2 0x3247 JUMP JUMPDEST PUSH1 0xA SLOAD PUSH1 0x40 MLOAD PUSH32 0xAAA520FDD7D2C83061D632FA017B0432407E798818AF63EA908589FCEDA39AB7 SWAP1 PUSH1 0x0 SWAP1 LOG2 JUMP JUMPDEST PUSH2 0xAA1 PUSH2 0x32C4 JUMP JUMPDEST PUSH1 0x4 SLOAD PUSH20 0xFFFFFFFFFFFFFFFFFFFFFFFFFFFFFFFFFFFFFFFF AND CALLER EQ PUSH2 0xB22 JUMPI PUSH1 0x40 MLOAD PUSH32 0x8C379A000000000000000000000000000000000000000000000000000000000 DUP2 MSTORE PUSH1 0x20 PUSH1 0x4 DUP3 ADD MSTORE PUSH1 0xC PUSH1 0x24 DUP3 ADD MSTORE PUSH32 0x4E6F74206F70657261746F720000000000000000000000000000000000000000 PUSH1 0x44 DUP3 ADD MSTORE PUSH1 0x64 ADD PUSH2 0x93E JUMP JUMPDEST PUSH1 0x2 SLOAD PUSH22 0x1000000000000000000000000000000000000000000 SWAP1 DIV PUSH1 0xFF AND ISZERO PUSH2 0xBCE JUMPI PUSH1 0x40 MLOAD PUSH32 0x8C379A000000000000000000000000000000000000000000000000000000000 DUP2 MSTORE PUSH1 0x20 PUSH1 0x4 DUP3 ADD MSTORE PUSH1 0x23 PUSH1 0x24 DUP3 ADD MSTORE PUSH32 0x43616E206F6E6C792072756E2067656E657369735374617274526F756E64206F PUSH1 0x44 DUP3 ADD MSTORE PUSH32 0x6E63650000000000000000000000000000000000000000000000000000000000 PUSH1 0x64 DUP3 ADD MSTORE PUSH1 0x84 ADD PUSH2 0x93E JUMP JUMPDEST PUSH1 0xA SLOAD PUSH2 0xBDC SWAP1 PUSH1 0x1 PUSH2 0x44AD JUMP JUMPDEST PUSH1 0xA DUP2 SWAP1 SSTORE PUSH2 0xBEA SWAP1 PUSH2 0x3349 JUMP JUMPDEST PUSH1 0x2 DUP1 SLOAD PUSH32 0xFFFFFFFFFFFFFFFFFFFF00FFFFFFFFFFFFFFFFFFFFFFFFFFFFFFFFFFFFFFFFFF AND PUSH22 0x1000000000000000000000000000000000000000000 OR SWAP1 SSTORE PUSH1 0xA SLOAD PUSH1 0x40 MLOAD PUSH32 0x72BD5C94E7723E61342608A0506D9111BC8964A94C3AD7E630735A51CC40BFE1 SWAP1 PUSH1 0x0 SWAP1 LOG2 JUMP JUMPDEST PUSH2 0xC60 PUSH2 0x32C4 JUMP JUMPDEST PUSH2 0xC68 PUSH2 0x305A JUMP JUMPDEST CALLER EXTCODESIZE ISZERO PUSH2 0xCD1 JUMPI PUSH1 0x40 MLOAD PUSH32 0x8C379A000000000000000000000000000000000000000000000000000000000 DUP2 MSTORE PUSH1 0x20 PUSH1 0x4 DUP3 ADD MSTORE PUSH1 0x14 PUSH1 0x24 DUP3 ADD MSTORE PUSH32 0x436F6E7472616374206E6F7420616C6C6F776564000000000000000000000000 PUSH1 0x44 DUP3 ADD MSTORE PUSH1 0x64 ADD PUSH2 0x93E JUMP JUMPDEST CALLER ORIGIN EQ PUSH2 0xD3A JUMPI PUSH1 0x40 MLOAD PUSH32 0x8C379A000000000000000000000000000000000000000000000000000000000 DUP2 MSTORE PUSH1 0x20 PUSH1 0x4 DUP3 ADD MSTORE PUSH1 0x1A PUSH1 0x24 DUP3 ADD MSTORE PUSH32 0x50726F787920636F6E7472616374206E6F7420616C6C6F776564000000000000 PUSH1 0x44 DUP3 ADD MSTORE PUSH1 0x64 ADD PUSH2 0x93E JUMP JUMPDEST PUSH1 0xA SLOAD DUP2 EQ PUSH2 0xDA5 JUMPI PUSH1 0x40 MLOAD PUSH32 0x8C379A000000000000000000000000000000000000000000000000000000000 DUP2 MSTORE PUSH1 0x20 PUSH1 0x4 DUP3 ADD MSTORE PUSH1 0x15 PUSH1 0x24 DUP3 ADD MSTORE PUSH32 0x42657420697320746F6F206561726C792F6C6174650000000000000000000000 PUSH1 0x44 DUP3 ADD MSTORE PUSH1 0x64 ADD PUSH2 0x93E JUMP JUMPDEST PUSH2 0xDAE DUP2 PUSH2 0x33C7 JUMP JUMPDEST PUSH2 0xE14 JUMPI PUSH1 0x40 MLOAD PUSH32 0x8C379A000000000000000000000000000000000000000000000000000000000 DUP2 MSTORE PUSH1 0x20 PUSH1 0x4 DUP3 ADD MSTORE PUSH1 0x12 PUSH1 0x24 DUP3 ADD MSTORE PUSH32 0x526F756E64206E6F74206265747461626C650000000000000000000000000000 PUSH1 0x44 DUP3 ADD MSTORE PUSH1 0x64 ADD PUSH2 0x93E JUMP JUMPDEST PUSH1 0x7 SLOAD CALLVALUE LT ISZERO PUSH2 0xEA6 JUMPI PUSH1 0x40 MLOAD PUSH32 0x8C379A000000000000000000000000000000000000000000000000000000000 DUP2 MSTORE PUSH1 0x20 PUSH1 0x4 DUP3 ADD MSTORE PUSH1 0x2C PUSH1 0x24 DUP3 ADD MSTORE PUSH32 0x42657420616D6F756E74206D7573742062652067726561746572207468616E20 PUSH1 0x44 DUP3 ADD MSTORE PUSH32 0x6D696E426574416D6F756E740000000000000000000000000000000000000000 PUSH1 0x64 DUP3 ADD MSTORE PUSH1 0x84 ADD PUSH2 0x93E JUMP JUMPDEST PUSH1 0x0 DUP2 DUP2 MSTORE PUSH1 0xC PUSH1 0x20 SWAP1 DUP2 MSTORE PUSH1 0x40 DUP1 DUP4 KECCAK256 CALLER DUP5 MSTORE SWAP1 SWAP2 MSTORE SWAP1 KECCAK256 PUSH1 0x1 ADD SLOAD ISZERO PUSH2 0xF2A JUMPI PUSH1 0x40 MLOAD PUSH32 0x8C379A000000000000000000000000000000000000000000000000000000000 DUP2 MSTORE PUSH1 0x20 PUSH1 0x4 DUP3 ADD MSTORE PUSH1 0x1B PUSH1 0x24 DUP3 ADD MSTORE PUSH32 0x43616E206F6E6C7920626574206F6E63652070657220726F756E640000000000 PUSH1 0x44 DUP3 ADD MSTORE PUSH1 0x64 ADD PUSH2 0x93E JUMP JUMPDEST PUSH1 0x0 DUP2 DUP2 MSTORE PUSH1 0xD PUSH1 0x20 MSTORE PUSH1 0x40 SWAP1 KECCAK256 PUSH1 0x6 DUP2 ADD SLOAD CALLVALUE SWAP2 SWAP1 PUSH2 0xF4B SWAP1 DUP4 SWAP1 PUSH2 0x44AD JUMP JUMPDEST PUSH1 0x6 DUP3 ADD SSTORE PUSH1 0x7 DUP2 ADD SLOAD PUSH2 0xF60 SWAP1 DUP4 SWAP1 PUSH2 0x44AD JUMP JUMPDEST PUSH1 0x7 DUP3 ADD SSTORE PUSH1 0x0 DUP4 DUP2 MSTORE PUSH1 0xC PUSH1 0x20 SWAP1 DUP2 MSTORE PUSH1 0x40 DUP1 DUP4 KECCAK256 CALLER DUP1 DUP6 MSTORE SWAP1 DUP4 MSTORE DUP2 DUP5 KECCAK256 DUP1 SLOAD PUSH32 0xFFFFFFFFFFFFFFFFFFFFFFFFFFFFFFFFFFFFFFFFFFFFFFFFFFFFFFFFFFFFFF00 AND DUP2 SSTORE PUSH1 0x1 DUP1 DUP3 ADD DUP9 SWAP1 SSTORE PUSH1 0xE DUP6 MSTORE DUP4 DUP7 KECCAK256 DUP1 SLOAD SWAP2 DUP3 ADD DUP2 SSTORE DUP7 MSTORE SWAP5 DUP5 SWAP1 KECCAK256 SWAP1 SWAP5 ADD DUP8 SWAP1 SSTORE SWAP1 MLOAD DUP6 DUP2 MSTORE DUP7 SWAP3 PUSH32 0x438122D8CFF518D18388099A5181F0D17A12B4F1B55FAEDF6E4A6ACEE0060C12 SWAP2 ADD JUMPDEST PUSH1 0x40 MLOAD DUP1 SWAP2 SUB SWAP1 LOG3 POP POP POP PUSH2 0x1007 PUSH1 0x1 DUP1 SSTORE JUMP JUMPDEST POP JUMP JUMPDEST PUSH2 0x1012 PUSH2 0x305A JUMP JUMPDEST CALLER EXTCODESIZE ISZERO PUSH2 0x107B JUMPI PUSH1 0x40 MLOAD PUSH32 0x8C379A000000000000000000000000000000000000000000000000000000000 DUP2 MSTORE PUSH1 0x20 PUSH1 0x4 DUP3 ADD MSTORE PUSH1 0x14 PUSH1 0x24 DUP3 ADD MSTORE PUSH32 0x436F6E7472616374206E6F7420616C6C6F776564000000000000000000000000 PUSH1 0x44 DUP3 ADD MSTORE PUSH1 0x64 ADD PUSH2 0x93E JUMP JUMPDEST CALLER ORIGIN EQ PUSH2 0x10E4 JUMPI PUSH1 0x40 MLOAD PUSH32 0x8C379A000000000000000000000000000000000000000000000000000000000 DUP2 MSTORE PUSH1 0x20 PUSH1 0x4 DUP3 ADD MSTORE PUSH1 0x1A PUSH1 0x24 DUP3 ADD MSTORE PUSH32 0x50726F787920636F6E7472616374206E6F7420616C6C6F776564000000000000 PUSH1 0x44 DUP3 ADD MSTORE PUSH1 0x64 ADD PUSH2 0x93E JUMP JUMPDEST PUSH1 0x0 DUP1 JUMPDEST DUP3 DUP2 LT ISZERO PUSH2 0x17A5 JUMPI PUSH1 0xD PUSH1 0x0 DUP6 DUP6 DUP5 DUP2 DUP2 LT PUSH2 0x112D JUMPI PUSH32 0x4E487B7100000000000000000000000000000000000000000000000000000000 PUSH1 0x0 MSTORE PUSH1 0x32 PUSH1 0x4 MSTORE PUSH1 0x24 PUSH1 0x0 REVERT JUMPDEST SWAP1 POP PUSH1 0x20 MUL ADD CALLDATALOAD DUP2 MSTORE PUSH1 0x20 ADD SWAP1 DUP2 MSTORE PUSH1 0x20 ADD PUSH1 0x0 KECCAK256 PUSH1 0x1 ADD SLOAD PUSH1 0x0 EQ ISZERO PUSH2 0x11B0 JUMPI PUSH1 0x40 MLOAD PUSH32 0x8C379A000000000000000000000000000000000000000000000000000000000 DUP2 MSTORE PUSH1 0x20 PUSH1 0x4 DUP3 ADD MSTORE PUSH1 0x15 PUSH1 0x24 DUP3 ADD MSTORE PUSH32 0x526F756E6420686173206E6F7420737461727465640000000000000000000000 PUSH1 0x44 DUP3 ADD MSTORE PUSH1 0x64 ADD PUSH2 0x93E JUMP JUMPDEST PUSH1 0xD PUSH1 0x0 DUP6 DUP6 DUP5 DUP2 DUP2 LT PUSH2 0x11ED JUMPI PUSH32 0x4E487B7100000000000000000000000000000000000000000000000000000000 PUSH1 0x0 MSTORE PUSH1 0x32 PUSH1 0x4 MSTORE PUSH1 0x24 PUSH1 0x0 REVERT JUMPDEST SWAP1 POP PUSH1 0x20 MUL ADD CALLDATALOAD DUP2 MSTORE PUSH1 0x20 ADD SWAP1 DUP2 MSTORE PUSH1 0x20 ADD PUSH1 0x0 KECCAK256 PUSH1 0x3 ADD SLOAD TIMESTAMP GT PUSH2 0x126E JUMPI PUSH1 0x40 MLOAD PUSH32 0x8C379A000000000000000000000000000000000000000000000000000000000 DUP2 MSTORE PUSH1 0x20 PUSH1 0x4 DUP3 ADD MSTORE PUSH1 0x13 PUSH1 0x24 DUP3 ADD MSTORE PUSH32 0x526F756E6420686173206E6F7420656E64656400000000000000000000000000 PUSH1 0x44 DUP3 ADD MSTORE PUSH1 0x64 ADD PUSH2 0x93E JUMP JUMPDEST PUSH1 0x0 PUSH1 0xD PUSH1 0x0 DUP7 DUP7 DUP6 DUP2 DUP2 LT PUSH2 0x12AD JUMPI PUSH32 0x4E487B7100000000000000000000000000000000000000000000000000000000 PUSH1 0x0 MSTORE PUSH1 0x32 PUSH1 0x4 MSTORE PUSH1 0x24 PUSH1 0x0 REVERT JUMPDEST PUSH1 0x20 SWAP1 DUP2 MUL SWAP3 SWAP1 SWAP3 ADD CALLDATALOAD DUP4 MSTORE POP DUP2 ADD SWAP2 SWAP1 SWAP2 MSTORE PUSH1 0x40 ADD PUSH1 0x0 KECCAK256 PUSH1 0xB ADD SLOAD PUSH1 0xFF AND ISZERO PUSH2 0x151C JUMPI PUSH2 0x131B DUP6 DUP6 DUP5 DUP2 DUP2 LT PUSH2 0x130E JUMPI PUSH32 0x4E487B7100000000000000000000000000000000000000000000000000000000 PUSH1 0x0 MSTORE PUSH1 0x32 PUSH1 0x4 MSTORE PUSH1 0x24 PUSH1 0x0 REVERT JUMPDEST SWAP1 POP PUSH1 0x20 MUL ADD CALLDATALOAD CALLER PUSH2 0x2307 JUMP JUMPDEST PUSH2 0x1381 JUMPI PUSH1 0x40 MLOAD PUSH32 0x8C379A000000000000000000000000000000000000000000000000000000000 DUP2 MSTORE PUSH1 0x20 PUSH1 0x4 DUP3 ADD MSTORE PUSH1 0x16 PUSH1 0x24 DUP3 ADD MSTORE PUSH32 0x4E6F7420656C696769626C6520666F7220636C61696D00000000000000000000 PUSH1 0x44 DUP3 ADD MSTORE PUSH1 0x64 ADD PUSH2 0x93E JUMP JUMPDEST PUSH1 0x0 PUSH1 0xD PUSH1 0x0 DUP8 DUP8 DUP7 DUP2 DUP2 LT PUSH2 0x13C0 JUMPI PUSH32 0x4E487B7100000000000000000000000000000000000000000000000000000000 PUSH1 0x0 MSTORE PUSH1 0x32 PUSH1 0x4 MSTORE PUSH1 0x24 PUSH1 0x0 REVERT JUMPDEST PUSH1 0x20 SWAP1 DUP2 MUL SWAP3 SWAP1 SWAP3 ADD CALLDATALOAD DUP4 MSTORE POP DUP2 DUP2 ADD SWAP3 SWAP1 SWAP3 MSTORE PUSH1 0x40 SWAP1 DUP2 ADD PUSH1 0x0 SWAP1 DUP2 KECCAK256 DUP3 MLOAD PUSH2 0x180 DUP2 ADD DUP5 MSTORE DUP2 SLOAD DUP2 MSTORE PUSH1 0x1 DUP3 ADD SLOAD SWAP5 DUP2 ADD SWAP5 SWAP1 SWAP5 MSTORE PUSH1 0x2 DUP2 ADD SLOAD SWAP3 DUP5 ADD SWAP3 SWAP1 SWAP3 MSTORE PUSH1 0x3 DUP3 ADD SLOAD PUSH1 0x60 DUP5 ADD MSTORE PUSH1 0x4 DUP3 ADD SLOAD PUSH1 0x80 DUP5 ADD MSTORE PUSH1 0x5 DUP3 ADD SLOAD PUSH1 0xA0 DUP5 ADD MSTORE PUSH1 0x6 DUP3 ADD SLOAD PUSH1 0xC0 DUP5 ADD MSTORE PUSH1 0x7 DUP3 ADD SLOAD PUSH1 0xE0 DUP5 ADD MSTORE PUSH1 0x8 DUP3 ADD SLOAD PUSH2 0x100 DUP5 ADD MSTORE PUSH1 0x9 DUP3 ADD SLOAD PUSH2 0x120 DUP5 ADD DUP2 SWAP1 MSTORE PUSH1 0xA DUP4 ADD SLOAD PUSH2 0x140 DUP6 ADD DUP2 SWAP1 MSTORE PUSH1 0xB SWAP1 SWAP4 ADD SLOAD PUSH1 0xFF AND ISZERO ISZERO PUSH2 0x160 DUP6 ADD MSTORE SWAP3 SWAP4 POP PUSH1 0xC SWAP1 DUP10 DUP10 DUP9 DUP2 DUP2 LT PUSH2 0x14AA JUMPI PUSH32 0x4E487B7100000000000000000000000000000000000000000000000000000000 PUSH1 0x0 MSTORE PUSH1 0x32 PUSH1 0x4 MSTORE PUSH1 0x24 PUSH1 0x0 REVERT JUMPDEST SWAP1 POP PUSH1 0x20 MUL ADD CALLDATALOAD DUP2 MSTORE PUSH1 0x20 ADD SWAP1 DUP2 MSTORE PUSH1 0x20 ADD PUSH1 0x0 KECCAK256 PUSH1 0x0 CALLER PUSH20 0xFFFFFFFFFFFFFFFFFFFFFFFFFFFFFFFFFFFFFFFF AND PUSH20 0xFFFFFFFFFFFFFFFFFFFFFFFFFFFFFFFFFFFFFFFF AND DUP2 MSTORE PUSH1 0x20 ADD SWAP1 DUP2 MSTORE PUSH1 0x20 ADD PUSH1 0x0 KECCAK256 PUSH1 0x1 ADD SLOAD PUSH2 0x150A SWAP2 SWAP1 PUSH2 0x44FE JUMP JUMPDEST PUSH2 0x1514 SWAP2 SWAP1 PUSH2 0x44C5 JUMP JUMPDEST SWAP2 POP POP PUSH2 0x1661 JUMP JUMPDEST PUSH2 0x1565 DUP6 DUP6 DUP5 DUP2 DUP2 LT PUSH2 0x1558 JUMPI PUSH32 0x4E487B7100000000000000000000000000000000000000000000000000000000 PUSH1 0x0 MSTORE PUSH1 0x32 PUSH1 0x4 MSTORE PUSH1 0x24 PUSH1 0x0 REVERT JUMPDEST SWAP1 POP PUSH1 0x20 MUL ADD CALLDATALOAD CALLER PUSH2 0x1B31 JUMP JUMPDEST PUSH2 0x15CB JUMPI PUSH1 0x40 MLOAD PUSH32 0x8C379A000000000000000000000000000000000000000000000000000000000 DUP2 MSTORE PUSH1 0x20 PUSH1 0x4 DUP3 ADD MSTORE PUSH1 0x17 PUSH1 0x24 DUP3 ADD MSTORE PUSH32 0x4E6F7420656C696769626C6520666F7220726566756E64000000000000000000 PUSH1 0x44 DUP3 ADD MSTORE PUSH1 0x64 ADD PUSH2 0x93E JUMP JUMPDEST PUSH1 0xC PUSH1 0x0 DUP7 DUP7 DUP6 DUP2 DUP2 LT PUSH2 0x1608 JUMPI PUSH32 0x4E487B7100000000000000000000000000000000000000000000000000000000 PUSH1 0x0 MSTORE PUSH1 0x32 PUSH1 0x4 MSTORE PUSH1 0x24 PUSH1 0x0 REVERT JUMPDEST SWAP1 POP PUSH1 0x20 MUL ADD CALLDATALOAD DUP2 MSTORE PUSH1 0x20 ADD SWAP1 DUP2 MSTORE PUSH1 0x20 ADD PUSH1 0x0 KECCAK256 PUSH1 0x0 CALLER PUSH20 0xFFFFFFFFFFFFFFFFFFFFFFFFFFFFFFFFFFFFFFFF AND PUSH20 0xFFFFFFFFFFFFFFFFFFFFFFFFFFFFFFFFFFFFFFFF AND DUP2 MSTORE PUSH1 0x20 ADD SWAP1 DUP2 MSTORE PUSH1 0x20 ADD PUSH1 0x0 KECCAK256 PUSH1 0x1 ADD SLOAD SWAP1 POP JUMPDEST PUSH1 0x1 PUSH1 0xC PUSH1 0x0 DUP8 DUP8 DUP7 DUP2 DUP2 LT PUSH2 0x16A0 JUMPI PUSH32 0x4E487B7100000000000000000000000000000000000000000000000000000000 PUSH1 0x0 MSTORE PUSH1 0x32 PUSH1 0x4 MSTORE PUSH1 0x24 PUSH1 0x0 REVERT JUMPDEST PUSH1 0x20 SWAP1 DUP2 MUL SWAP3 SWAP1 SWAP3 ADD CALLDATALOAD DUP4 MSTORE POP DUP2 DUP2 ADD SWAP3 SWAP1 SWAP3 MSTORE PUSH1 0x40 SWAP1 DUP2 ADD PUSH1 0x0 SWAP1 DUP2 KECCAK256 CALLER DUP3 MSTORE SWAP1 SWAP3 MSTORE SWAP1 KECCAK256 PUSH1 0x2 ADD DUP1 SLOAD PUSH32 0xFFFFFFFFFFFFFFFFFFFFFFFFFFFFFFFFFFFFFFFFFFFFFFFFFFFFFFFFFFFFFF00 AND SWAP2 ISZERO ISZERO SWAP2 SWAP1 SWAP2 OR SWAP1 SSTORE PUSH2 0x1700 DUP2 DUP5 PUSH2 0x44AD JUMP JUMPDEST SWAP3 POP DUP5 DUP5 DUP4 DUP2 DUP2 LT PUSH2 0x173B JUMPI PUSH32 0x4E487B7100000000000000000000000000000000000000000000000000000000 PUSH1 0x0 MSTORE PUSH1 0x32 PUSH1 0x4 MSTORE PUSH1 0x24 PUSH1 0x0 REVERT JUMPDEST SWAP1 POP PUSH1 0x20 MUL ADD CALLDATALOAD CALLER PUSH20 0xFFFFFFFFFFFFFFFFFFFFFFFFFFFFFFFFFFFFFFFF AND PUSH32 0x34FCBAC0073D7C3D388E51312FAF357774904998EEB8FCA628B9E6F65EE1CBF7 DUP4 PUSH1 0x40 MLOAD PUSH2 0x178A SWAP2 DUP2 MSTORE PUSH1 0x20 ADD SWAP1 JUMP JUMPDEST PUSH1 0x40 MLOAD DUP1 SWAP2 SUB SWAP1 LOG3 POP DUP1 PUSH2 0x179D DUP2 PUSH2 0x4582 JUMP JUMPDEST SWAP2 POP POP PUSH2 0x10E8 JUMP JUMPDEST POP DUP1 ISZERO PUSH2 0x17B6 JUMPI PUSH2 0x17B6 CALLER DUP3 PUSH2 0x30CE JUMP JUMPDEST POP PUSH2 0x17C0 PUSH1 0x1 DUP1 SSTORE JUMP JUMPDEST POP POP JUMP JUMPDEST PUSH2 0x17CC PUSH2 0x31C3 JUMP JUMPDEST PUSH1 0x3 SLOAD PUSH20 0xFFFFFFFFFFFFFFFFFFFFFFFFFFFFFFFFFFFFFFFF AND CALLER EQ PUSH2 0x184D JUMPI PUSH1 0x40 MLOAD PUSH32 0x8C379A000000000000000000000000000000000000000000000000000000000 DUP2 MSTORE PUSH1 0x20 PUSH1 0x4 DUP3 ADD MSTORE PUSH1 0x9 PUSH1 0x24 DUP3 ADD MSTORE PUSH32 0x4E6F742061646D696E0000000000000000000000000000000000000000000000 PUSH1 0x44 DUP3 ADD MSTORE PUSH1 0x64 ADD PUSH2 0x93E JUMP JUMPDEST DUP1 PUSH2 0x18B4 JUMPI PUSH1 0x40 MLOAD PUSH32 0x8C379A000000000000000000000000000000000000000000000000000000000 DUP2 MSTORE PUSH1 0x20 PUSH1 0x4 DUP3 ADD MSTORE PUSH1 0x15 PUSH1 0x24 DUP3 ADD MSTORE PUSH32 0x4D757374206265207375706572696F7220746F20300000000000000000000000 PUSH1 0x44 DUP3 ADD MSTORE PUSH1 0x64 ADD PUSH2 0x93E JUMP JUMPDEST PUSH1 0x7 DUP2 SWAP1 SSTORE PUSH1 0xA SLOAD PUSH1 0x40 MLOAD DUP3 DUP2 MSTORE PUSH32 0x90EB87C560A0213754CEB3A7FA3012F01ACAB0A35602C1E1995ADF69DABC9D50 SWAP1 PUSH1 0x20 ADD JUMPDEST PUSH1 0x40 MLOAD DUP1 SWAP2 SUB SWAP1 LOG2 POP JUMP JUMPDEST PUSH2 0x18FB PUSH2 0x3432 JUMP JUMPDEST PUSH20 0xFFFFFFFFFFFFFFFFFFFFFFFFFFFFFFFFFFFFFFFF DUP2 AND PUSH2 0x1978 JUMPI PUSH1 0x40 MLOAD PUSH32 0x8C379A000000000000000000000000000000000000000000000000000000000 DUP2 MSTORE PUSH1 0x20 PUSH1 0x4 DUP3 ADD MSTORE PUSH1 0x16 PUSH1 0x24 DUP3 ADD MSTORE PUSH32 0x43616E6E6F74206265207A65726F206164647265737300000000000000000000 PUSH1 0x44 DUP3 ADD MSTORE PUSH1 0x64 ADD PUSH2 0x93E JUMP JUMPDEST PUSH1 0x3 DUP1 SLOAD PUSH32 0xFFFFFFFFFFFFFFFFFFFFFFFF0000000000000000000000000000000000000000 AND PUSH20 0xFFFFFFFFFFFFFFFFFFFFFFFFFFFFFFFFFFFFFFFF DUP4 AND SWAP1 DUP2 OR SWAP1 SWAP2 SSTORE PUSH1 0x40 MLOAD SWAP1 DUP2 MSTORE PUSH32 0x137B621413925496477D46E5055AC0D56178BDD724BA8BF843AFCEEF18268BA3 SWAP1 PUSH1 0x20 ADD JUMPDEST PUSH1 0x40 MLOAD DUP1 SWAP2 SUB SWAP1 LOG1 POP JUMP JUMPDEST PUSH2 0x19FA PUSH2 0x3432 JUMP JUMPDEST PUSH2 0x9B0 PUSH1 0x0 PUSH2 0x34B3 JUMP JUMPDEST PUSH2 0x1A0C PUSH2 0x31C3 JUMP JUMPDEST PUSH1 0x3 SLOAD PUSH20 0xFFFFFFFFFFFFFFFFFFFFFFFFFFFFFFFFFFFFFFFF AND CALLER EQ PUSH2 0x1A8D JUMPI PUSH1 0x40 MLOAD PUSH32 0x8C379A000000000000000000000000000000000000000000000000000000000 DUP2 MSTORE PUSH1 0x20 PUSH1 0x4 DUP3 ADD MSTORE PUSH1 0x9 PUSH1 0x24 DUP3 ADD MSTORE PUSH32 0x4E6F742061646D696E0000000000000000000000000000000000000000000000 PUSH1 0x44 DUP3 ADD MSTORE PUSH1 0x64 ADD PUSH2 0x93E JUMP JUMPDEST PUSH2 0x3E8 DUP2 GT ISZERO PUSH2 0x1AF9 JUMPI PUSH1 0x40 MLOAD PUSH32 0x8C379A000000000000000000000000000000000000000000000000000000000 DUP2 MSTORE PUSH1 0x20 PUSH1 0x4 DUP3 ADD MSTORE PUSH1 0x15 PUSH1 0x24 DUP3 ADD MSTORE PUSH32 0x54726561737572792066656520746F6F20686967680000000000000000000000 PUSH1 0x44 DUP3 ADD MSTORE PUSH1 0x64 ADD PUSH2 0x93E JUMP JUMPDEST PUSH1 0x8 DUP2 SWAP1 SSTORE PUSH1 0xA SLOAD PUSH1 0x40 MLOAD DUP3 DUP2 MSTORE PUSH32 0xB1C4EE38D35556741133DA7FF9B6F7AB0FA88D0406133126FF128F635490A857 SWAP1 PUSH1 0x20 ADD PUSH2 0x18E8 JUMP JUMPDEST PUSH1 0x0 DUP3 DUP2 MSTORE PUSH1 0xC PUSH1 0x20 SWAP1 DUP2 MSTORE PUSH1 0x40 DUP1 DUP4 KECCAK256 PUSH20 0xFFFFFFFFFFFFFFFFFFFFFFFFFFFFFFFFFFFFFFFF DUP6 AND DUP5 MSTORE SWAP1 SWAP2 MSTORE DUP1 DUP3 KECCAK256 DUP2 MLOAD PUSH1 0x60 DUP2 ADD SWAP1 SWAP3 MSTORE DUP1 SLOAD DUP4 SWAP3 SWAP2 SWAP1 DUP3 SWAP1 PUSH1 0xFF AND PUSH1 0x1 DUP2 GT ISZERO PUSH2 0x1BAD JUMPI PUSH32 0x4E487B7100000000000000000000000000000000000000000000000000000000 PUSH1 0x0 MSTORE PUSH1 0x21 PUSH1 0x4 MSTORE PUSH1 0x24 PUSH1 0x0 REVERT JUMPDEST PUSH1 0x1 DUP2 GT ISZERO PUSH2 0x1BE5 JUMPI PUSH32 0x4E487B7100000000000000000000000000000000000000000000000000000000 PUSH1 0x0 MSTORE PUSH1 0x21 PUSH1 0x4 MSTORE PUSH1 0x24 PUSH1 0x0 REVERT JUMPDEST DUP2 MSTORE PUSH1 0x1 DUP3 DUP2 ADD SLOAD PUSH1 0x20 DUP1 DUP5 ADD SWAP2 SWAP1 SWAP2 MSTORE PUSH1 0x2 SWAP4 DUP5 ADD SLOAD PUSH1 0xFF SWAP1 DUP2 AND ISZERO ISZERO PUSH1 0x40 SWAP5 DUP6 ADD MSTORE PUSH1 0x0 DUP11 DUP2 MSTORE PUSH1 0xD DUP4 MSTORE DUP5 SWAP1 KECCAK256 DUP5 MLOAD PUSH2 0x180 DUP2 ADD DUP7 MSTORE DUP2 SLOAD DUP2 MSTORE SWAP4 DUP2 ADD SLOAD SWAP3 DUP5 ADD SWAP3 SWAP1 SWAP3 MSTORE SWAP4 DUP2 ADD SLOAD SWAP3 DUP3 ADD SWAP3 SWAP1 SWAP3 MSTORE PUSH1 0x3 DUP3 ADD SLOAD PUSH1 0x60 DUP3 ADD MSTORE PUSH1 0x4 DUP3 ADD SLOAD PUSH1 0x80 DUP3 ADD MSTORE PUSH1 0x5 DUP3 ADD SLOAD PUSH1 0xA0 DUP3 ADD MSTORE PUSH1 0x6 DUP3 ADD SLOAD PUSH1 0xC0 DUP3 ADD MSTORE PUSH1 0x7 DUP3 ADD SLOAD PUSH1 0xE0 DUP3 ADD MSTORE PUSH1 0x8 DUP3 ADD SLOAD PUSH2 0x100 DUP3 ADD MSTORE PUSH1 0x9 DUP3 ADD SLOAD PUSH2 0x120 DUP3 ADD MSTORE PUSH1 0xA DUP3 ADD SLOAD PUSH2 0x140 DUP3 ADD MSTORE PUSH1 0xB SWAP1 SWAP2 ADD SLOAD SWAP1 SWAP2 AND ISZERO DUP1 ISZERO PUSH2 0x160 DUP4 ADD DUP2 SWAP1 MSTORE SWAP3 SWAP4 POP SWAP1 SWAP2 PUSH2 0x1CB0 JUMPI POP DUP2 PUSH1 0x40 ADD MLOAD ISZERO JUMPDEST DUP1 ISZERO PUSH2 0x1CCC JUMPI POP PUSH1 0x5 SLOAD DUP2 PUSH1 0x60 ADD MLOAD PUSH2 0x1CC9 SWAP2 SWAP1 PUSH2 0x44AD JUMP JUMPDEST TIMESTAMP GT JUMPDEST DUP1 ISZERO PUSH2 0x1CDB JUMPI POP PUSH1 0x20 DUP3 ADD MLOAD ISZERO ISZERO JUMPDEST SWAP3 POP POP POP JUMPDEST SWAP3 SWAP2 POP POP JUMP JUMPDEST PUSH2 0x1CEE PUSH2 0x32C4 JUMP JUMPDEST PUSH1 0x3 SLOAD PUSH20 0xFFFFFFFFFFFFFFFFFFFFFFFFFFFFFFFFFFFFFFFF AND CALLER EQ DUP1 PUSH2 0x1D2B JUMPI POP PUSH1 0x4 SLOAD PUSH20 0xFFFFFFFFFFFFFFFFFFFFFFFFFFFFFFFFFFFFFFFF AND CALLER EQ JUMPDEST PUSH2 0x1D91 JUMPI PUSH1 0x40 MLOAD PUSH32 0x8C379A000000000000000000000000000000000000000000000000000000000 DUP2 MSTORE PUSH1 0x20 PUSH1 0x4 DUP3 ADD MSTORE PUSH1 0x12 PUSH1 0x24 DUP3 ADD MSTORE PUSH32 0x4E6F74206F70657261746F722F61646D696E0000000000000000000000000000 PUSH1 0x44 DUP3 ADD MSTORE PUSH1 0x64 ADD PUSH2 0x93E JUMP JUMPDEST PUSH2 0x1D99 PUSH2 0x3528 JUMP JUMPDEST PUSH1 0xA SLOAD PUSH1 0x40 MLOAD PUSH32 0x68B095021B1F40FE513109F513C66692F0B3219AEE674A69F4EFC57BADB8201D SWAP1 PUSH1 0x0 SWAP1 LOG2 JUMP JUMPDEST PUSH2 0x1DCF PUSH2 0x31C3 JUMP JUMPDEST PUSH1 0x3 SLOAD PUSH20 0xFFFFFFFFFFFFFFFFFFFFFFFFFFFFFFFFFFFFFFFF AND CALLER EQ PUSH2 0x1E50 JUMPI PUSH1 0x40 MLOAD PUSH32 0x8C379A000000000000000000000000000000000000000000000000000000000 DUP2 MSTORE PUSH1 0x20 PUSH1 0x4 DUP3 ADD MSTORE PUSH1 0x9 PUSH1 0x24 DUP3 ADD MSTORE PUSH32 0x4E6F742061646D696E0000000000000000000000000000000000000000000000 PUSH1 0x44 DUP3 ADD MSTORE PUSH1 0x64 ADD PUSH2 0x93E JUMP JUMPDEST DUP1 DUP3 LT PUSH2 0x1EDF JUMPI PUSH1 0x40 MLOAD PUSH32 0x8C379A000000000000000000000000000000000000000000000000000000000 DUP2 MSTORE PUSH1 0x20 PUSH1 0x4 DUP3 ADD MSTORE PUSH1 0x31 PUSH1 0x24 DUP3 ADD MSTORE PUSH32 0x6275666665725365636F6E6473206D75737420626520696E666572696F722074 PUSH1 0x44 DUP3 ADD MSTORE PUSH32 0x6F20696E74657276616C5365636F6E6473000000000000000000000000000000 PUSH1 0x64 DUP3 ADD MSTORE PUSH1 0x84 ADD PUSH2 0x93E JUMP JUMPDEST PUSH1 0x5 DUP3 SWAP1 SSTORE PUSH1 0x6 DUP2 SWAP1 SSTORE PUSH1 0x40 DUP1 MLOAD DUP4 DUP2 MSTORE PUSH1 0x20 DUP2 ADD DUP4 SWAP1 MSTORE PUSH32 0xE60149E0431FEC12DF63DFAB5FCE2A9CEFE9A4D3DF5F41CB626F579AE1F2B91A SWAP2 ADD PUSH1 0x40 MLOAD DUP1 SWAP2 SUB SWAP1 LOG1 POP POP JUMP JUMPDEST PUSH20 0xFFFFFFFFFFFFFFFFFFFFFFFFFFFFFFFFFFFFFFFF DUP4 AND PUSH1 0x0 SWAP1 DUP2 MSTORE PUSH1 0xE PUSH1 0x20 MSTORE PUSH1 0x40 DUP2 KECCAK256 SLOAD PUSH1 0x60 SWAP2 DUP3 SWAP2 DUP5 SWAP1 PUSH2 0x1F5E SWAP1 DUP8 SWAP1 PUSH2 0x453B JUMP JUMPDEST DUP2 GT ISZERO PUSH2 0x1F99 JUMPI PUSH20 0xFFFFFFFFFFFFFFFFFFFFFFFFFFFFFFFFFFFFFFFF DUP8 AND PUSH1 0x0 SWAP1 DUP2 MSTORE PUSH1 0xE PUSH1 0x20 MSTORE PUSH1 0x40 SWAP1 KECCAK256 SLOAD PUSH2 0x1F96 SWAP1 DUP8 SWAP1 PUSH2 0x453B JUMP JUMPDEST SWAP1 POP JUMPDEST PUSH1 0x0 DUP2 PUSH8 0xFFFFFFFFFFFFFFFF DUP2 GT ISZERO PUSH2 0x1FDB JUMPI PUSH32 0x4E487B7100000000000000000000000000000000000000000000000000000000 PUSH1 0x0 MSTORE PUSH1 0x41 PUSH1 0x4 MSTORE PUSH1 0x24 PUSH1 0x0 REVERT JUMPDEST PUSH1 0x40 MLOAD SWAP1 DUP1 DUP3 MSTORE DUP1 PUSH1 0x20 MUL PUSH1 0x20 ADD DUP3 ADD PUSH1 0x40 MSTORE DUP1 ISZERO PUSH2 0x2004 JUMPI DUP2 PUSH1 0x20 ADD PUSH1 0x20 DUP3 MUL DUP1 CALLDATASIZE DUP4 CALLDATACOPY ADD SWAP1 POP JUMPDEST POP SWAP1 POP PUSH1 0x0 DUP3 PUSH8 0xFFFFFFFFFFFFFFFF DUP2 GT ISZERO PUSH2 0x2049 JUMPI PUSH32 0x4E487B7100000000000000000000000000000000000000000000000000000000 PUSH1 0x0 MSTORE PUSH1 0x41 PUSH1 0x4 MSTORE PUSH1 0x24 PUSH1 0x0 REVERT JUMPDEST PUSH1 0x40 MLOAD SWAP1 DUP1 DUP3 MSTORE DUP1 PUSH1 0x20 MUL PUSH1 0x20 ADD DUP3 ADD PUSH1 0x40 MSTORE DUP1 ISZERO PUSH2 0x20B2 JUMPI DUP2 PUSH1 0x20 ADD JUMPDEST PUSH1 0x40 DUP1 MLOAD PUSH1 0x60 DUP2 ADD DUP3 MSTORE PUSH1 0x0 DUP1 DUP3 MSTORE PUSH1 0x20 DUP1 DUP4 ADD DUP3 SWAP1 MSTORE SWAP3 DUP3 ADD MSTORE DUP3 MSTORE PUSH32 0xFFFFFFFFFFFFFFFFFFFFFFFFFFFFFFFFFFFFFFFFFFFFFFFFFFFFFFFFFFFFFFFF SWAP1 SWAP3 ADD SWAP2 ADD DUP2 PUSH2 0x2067 JUMPI SWAP1 POP JUMPDEST POP SWAP1 POP PUSH1 0x0 JUMPDEST DUP4 DUP2 LT ISZERO PUSH2 0x22E8 JUMPI PUSH20 0xFFFFFFFFFFFFFFFFFFFFFFFFFFFFFFFFFFFFFFFF DUP11 AND PUSH1 0x0 SWAP1 DUP2 MSTORE PUSH1 0xE PUSH1 0x20 MSTORE PUSH1 0x40 SWAP1 KECCAK256 PUSH2 0x20EF DUP3 DUP12 PUSH2 0x44AD JUMP JUMPDEST DUP2 SLOAD DUP2 LT PUSH2 0x2126 JUMPI PUSH32 0x4E487B7100000000000000000000000000000000000000000000000000000000 PUSH1 0x0 MSTORE PUSH1 0x32 PUSH1 0x4 MSTORE PUSH1 0x24 PUSH1 0x0 REVERT JUMPDEST SWAP1 PUSH1 0x0 MSTORE PUSH1 0x20 PUSH1 0x0 KECCAK256 ADD SLOAD DUP4 DUP3 DUP2 MLOAD DUP2 LT PUSH2 0x216A JUMPI PUSH32 0x4E487B7100000000000000000000000000000000000000000000000000000000 PUSH1 0x0 MSTORE PUSH1 0x32 PUSH1 0x4 MSTORE PUSH1 0x24 PUSH1 0x0 REVERT JUMPDEST PUSH1 0x20 MUL PUSH1 0x20 ADD ADD DUP2 DUP2 MSTORE POP POP PUSH1 0xC PUSH1 0x0 DUP5 DUP4 DUP2 MLOAD DUP2 LT PUSH2 0x21B3 JUMPI PUSH32 0x4E487B7100000000000000000000000000000000000000000000000000000000 PUSH1 0x0 MSTORE PUSH1 0x32 PUSH1 0x4 MSTORE PUSH1 0x24 PUSH1 0x0 REVERT JUMPDEST PUSH1 0x20 SWAP1 DUP2 MUL SWAP2 SWAP1 SWAP2 ADD DUP2 ADD MLOAD DUP3 MSTORE DUP2 DUP2 ADD SWAP3 SWAP1 SWAP3 MSTORE PUSH1 0x40 SWAP1 DUP2 ADD PUSH1 0x0 SWAP1 DUP2 KECCAK256 PUSH20 0xFFFFFFFFFFFFFFFFFFFFFFFFFFFFFFFFFFFFFFFF DUP15 AND DUP3 MSTORE SWAP1 SWAP3 MSTORE SWAP1 DUP2 SWAP1 KECCAK256 DUP2 MLOAD PUSH1 0x60 DUP2 ADD SWAP1 SWAP3 MSTORE DUP1 SLOAD DUP3 SWAP1 PUSH1 0xFF AND PUSH1 0x1 DUP2 GT ISZERO PUSH2 0x223A JUMPI PUSH32 0x4E487B7100000000000000000000000000000000000000000000000000000000 PUSH1 0x0 MSTORE PUSH1 0x21 PUSH1 0x4 MSTORE PUSH1 0x24 PUSH1 0x0 REVERT JUMPDEST PUSH1 0x1 DUP2 GT ISZERO PUSH2 0x2272 JUMPI PUSH32 0x4E487B7100000000000000000000000000000000000000000000000000000000 PUSH1 0x0 MSTORE PUSH1 0x21 PUSH1 0x4 MSTORE PUSH1 0x24 PUSH1 0x0 REVERT JUMPDEST DUP2 MSTORE PUSH1 0x1 DUP3 ADD SLOAD PUSH1 0x20 DUP3 ADD MSTORE PUSH1 0x2 SWAP1 SWAP2 ADD SLOAD PUSH1 0xFF AND ISZERO ISZERO PUSH1 0x40 SWAP1 SWAP2 ADD MSTORE DUP3 MLOAD DUP4 SWAP1 DUP4 SWAP1 DUP2 LT PUSH2 0x22CA JUMPI PUSH32 0x4E487B7100000000000000000000000000000000000000000000000000000000 PUSH1 0x0 MSTORE PUSH1 0x32 PUSH1 0x4 MSTORE PUSH1 0x24 PUSH1 0x0 REVERT JUMPDEST PUSH1 0x20 MUL PUSH1 0x20 ADD ADD DUP2 SWAP1 MSTORE POP DUP1 DUP1 PUSH2 0x22E0 SWAP1 PUSH2 0x4582 JUMP JUMPDEST SWAP2 POP POP PUSH2 0x20B8 JUMP JUMPDEST POP DUP2 DUP2 PUSH2 0x22F5 DUP6 DUP12 PUSH2 0x44AD JUMP JUMPDEST SWAP6 POP SWAP6 POP SWAP6 POP POP POP POP SWAP4 POP SWAP4 POP SWAP4 SWAP1 POP JUMP JUMPDEST PUSH1 0x0 DUP3 DUP2 MSTORE PUSH1 0xC PUSH1 0x20 SWAP1 DUP2 MSTORE PUSH1 0x40 DUP1 DUP4 KECCAK256 PUSH20 0xFFFFFFFFFFFFFFFFFFFFFFFFFFFFFFFFFFFFFFFF DUP6 AND DUP5 MSTORE SWAP1 SWAP2 MSTORE DUP1 DUP3 KECCAK256 DUP2 MLOAD PUSH1 0x60 DUP2 ADD SWAP1 SWAP3 MSTORE DUP1 SLOAD DUP4 SWAP3 SWAP2 SWAP1 DUP3 SWAP1 PUSH1 0xFF AND PUSH1 0x1 DUP2 GT ISZERO PUSH2 0x2383 JUMPI PUSH32 0x4E487B7100000000000000000000000000000000000000000000000000000000 PUSH1 0x0 MSTORE PUSH1 0x21 PUSH1 0x4 MSTORE PUSH1 0x24 PUSH1 0x0 REVERT JUMPDEST PUSH1 0x1 DUP2 GT ISZERO PUSH2 0x23BB JUMPI PUSH32 0x4E487B7100000000000000000000000000000000000000000000000000000000 PUSH1 0x0 MSTORE PUSH1 0x21 PUSH1 0x4 MSTORE PUSH1 0x24 PUSH1 0x0 REVERT JUMPDEST DUP2 MSTORE PUSH1 0x1 DUP3 DUP2 ADD SLOAD PUSH1 0x20 DUP1 DUP5 ADD SWAP2 SWAP1 SWAP2 MSTORE PUSH1 0x2 SWAP4 DUP5 ADD SLOAD PUSH1 0xFF SWAP1 DUP2 AND ISZERO ISZERO PUSH1 0x40 SWAP5 DUP6 ADD MSTORE PUSH1 0x0 DUP11 DUP2 MSTORE PUSH1 0xD DUP4 MSTORE DUP5 SWAP1 KECCAK256 DUP5 MLOAD PUSH2 0x180 DUP2 ADD DUP7 MSTORE DUP2 SLOAD DUP2 MSTORE SWAP4 DUP2 ADD SLOAD SWAP3 DUP5 ADD SWAP3 SWAP1 SWAP3 MSTORE SWAP4 DUP2 ADD SLOAD SWAP3 DUP3 ADD SWAP3 SWAP1 SWAP3 MSTORE PUSH1 0x3 DUP3 ADD SLOAD PUSH1 0x60 DUP3 ADD MSTORE PUSH1 0x4 DUP3 ADD SLOAD PUSH1 0x80 DUP3 ADD DUP2 SWAP1 MSTORE PUSH1 0x5 DUP4 ADD SLOAD PUSH1 0xA0 DUP4 ADD DUP2 SWAP1 MSTORE PUSH1 0x6 DUP5 ADD SLOAD PUSH1 0xC0 DUP5 ADD MSTORE PUSH1 0x7 DUP5 ADD SLOAD PUSH1 0xE0 DUP5 ADD MSTORE PUSH1 0x8 DUP5 ADD SLOAD PUSH2 0x100 DUP5 ADD MSTORE PUSH1 0x9 DUP5 ADD SLOAD PUSH2 0x120 DUP5 ADD MSTORE PUSH1 0xA DUP5 ADD SLOAD PUSH2 0x140 DUP5 ADD MSTORE PUSH1 0xB SWAP1 SWAP4 ADD SLOAD SWAP1 SWAP4 AND ISZERO ISZERO PUSH2 0x160 DUP3 ADD MSTORE SWAP3 SWAP4 POP EQ ISZERO PUSH2 0x248A JUMPI PUSH1 0x0 SWAP3 POP POP POP PUSH2 0x1CE0 JUMP JUMPDEST DUP1 PUSH2 0x160 ADD MLOAD DUP1 ISZERO PUSH2 0x249F JUMPI POP PUSH1 0x20 DUP3 ADD MLOAD ISZERO ISZERO JUMPDEST DUP1 ISZERO PUSH2 0x24AD JUMPI POP DUP2 PUSH1 0x40 ADD MLOAD ISZERO JUMPDEST DUP1 ISZERO PUSH2 0x1CDB JUMPI POP DUP1 PUSH1 0x80 ADD MLOAD DUP2 PUSH1 0xA0 ADD MLOAD SGT DUP1 ISZERO PUSH2 0x2504 JUMPI POP PUSH1 0x0 DUP3 MLOAD PUSH1 0x1 DUP2 GT ISZERO PUSH2 0x2502 JUMPI PUSH32 0x4E487B7100000000000000000000000000000000000000000000000000000000 PUSH1 0x0 MSTORE PUSH1 0x21 PUSH1 0x4 MSTORE PUSH1 0x24 PUSH1 0x0 REVERT JUMPDEST EQ JUMPDEST DUP1 PUSH2 0x1CDB JUMPI POP DUP1 PUSH1 0x80 ADD MLOAD DUP2 PUSH1 0xA0 ADD MLOAD SLT DUP1 ISZERO PUSH2 0x1CDB JUMPI POP PUSH1 0x1 DUP3 MLOAD PUSH1 0x1 DUP2 GT ISZERO PUSH2 0x2558 JUMPI PUSH32 0x4E487B7100000000000000000000000000000000000000000000000000000000 PUSH1 0x0 MSTORE PUSH1 0x21 PUSH1 0x4 MSTORE PUSH1 0x24 PUSH1 0x0 REVERT JUMPDEST EQ SWAP6 SWAP5 POP POP POP POP POP JUMP JUMPDEST PUSH2 0x256A PUSH2 0x32C4 JUMP JUMPDEST PUSH2 0x2572 PUSH2 0x305A JUMP JUMPDEST CALLER EXTCODESIZE ISZERO PUSH2 0x25DB JUMPI PUSH1 0x40 MLOAD PUSH32 0x8C379A000000000000000000000000000000000000000000000000000000000 DUP2 MSTORE PUSH1 0x20 PUSH1 0x4 DUP3 ADD MSTORE PUSH1 0x14 PUSH1 0x24 DUP3 ADD MSTORE PUSH32 0x436F6E7472616374206E6F7420616C6C6F776564000000000000000000000000 PUSH1 0x44 DUP3 ADD MSTORE PUSH1 0x64 ADD PUSH2 0x93E JUMP JUMPDEST CALLER ORIGIN EQ PUSH2 0x2644 JUMPI PUSH1 0x40 MLOAD PUSH32 0x8C379A000000000000000000000000000000000000000000000000000000000 DUP2 MSTORE PUSH1 0x20 PUSH1 0x4 DUP3 ADD MSTORE PUSH1 0x1A PUSH1 0x24 DUP3 ADD MSTORE PUSH32 0x50726F787920636F6E7472616374206E6F7420616C6C6F776564000000000000 PUSH1 0x44 DUP3 ADD MSTORE PUSH1 0x64 ADD PUSH2 0x93E JUMP JUMPDEST PUSH1 0xA SLOAD DUP2 EQ PUSH2 0x26AF JUMPI PUSH1 0x40 MLOAD PUSH32 0x8C379A000000000000000000000000000000000000000000000000000000000 DUP2 MSTORE PUSH1 0x20 PUSH1 0x4 DUP3 ADD MSTORE PUSH1 0x15 PUSH1 0x24 DUP3 ADD MSTORE PUSH32 0x42657420697320746F6F206561726C792F6C6174650000000000000000000000 PUSH1 0x44 DUP3 ADD MSTORE PUSH1 0x64 ADD PUSH2 0x93E JUMP JUMPDEST PUSH2 0x26B8 DUP2 PUSH2 0x33C7 JUMP JUMPDEST PUSH2 0x271E JUMPI PUSH1 0x40 MLOAD PUSH32 0x8C379A000000000000000000000000000000000000000000000000000000000 DUP2 MSTORE PUSH1 0x20 PUSH1 0x4 DUP3 ADD MSTORE PUSH1 0x12 PUSH1 0x24 DUP3 ADD MSTORE PUSH32 0x526F756E64206E6F74206265747461626C650000000000000000000000000000 PUSH1 0x44 DUP3 ADD MSTORE PUSH1 0x64 ADD PUSH2 0x93E JUMP JUMPDEST PUSH1 0x7 SLOAD CALLVALUE LT ISZERO PUSH2 0x27B0 JUMPI PUSH1 0x40 MLOAD PUSH32 0x8C379A000000000000000000000000000000000000000000000000000000000 DUP2 MSTORE PUSH1 0x20 PUSH1 0x4 DUP3 ADD MSTORE PUSH1 0x2C PUSH1 0x24 DUP3 ADD MSTORE PUSH32 0x42657420616D6F756E74206D7573742062652067726561746572207468616E20 PUSH1 0x44 DUP3 ADD MSTORE PUSH32 0x6D696E426574416D6F756E740000000000000000000000000000000000000000 PUSH1 0x64 DUP3 ADD MSTORE PUSH1 0x84 ADD PUSH2 0x93E JUMP JUMPDEST PUSH1 0x0 DUP2 DUP2 MSTORE PUSH1 0xC PUSH1 0x20 SWAP1 DUP2 MSTORE PUSH1 0x40 DUP1 DUP4 KECCAK256 CALLER DUP5 MSTORE SWAP1 SWAP2 MSTORE SWAP1 KECCAK256 PUSH1 0x1 ADD SLOAD ISZERO PUSH2 0x2834 JUMPI PUSH1 0x40 MLOAD PUSH32 0x8C379A000000000000000000000000000000000000000000000000000000000 DUP2 MSTORE PUSH1 0x20 PUSH1 0x4 DUP3 ADD MSTORE PUSH1 0x1B PUSH1 0x24 DUP3 ADD MSTORE PUSH32 0x43616E206F6E6C7920626574206F6E63652070657220726F756E640000000000 PUSH1 0x44 DUP3 ADD MSTORE PUSH1 0x64 ADD PUSH2 0x93E JUMP JUMPDEST PUSH1 0x0 DUP2 DUP2 MSTORE PUSH1 0xD PUSH1 0x20 MSTORE PUSH1 0x40 SWAP1 KECCAK256 PUSH1 0x6 DUP2 ADD SLOAD CALLVALUE SWAP2 SWAP1 PUSH2 0x2855 SWAP1 DUP4 SWAP1 PUSH2 0x44AD JUMP JUMPDEST PUSH1 0x6 DUP3 ADD SSTORE PUSH1 0x8 DUP2 ADD SLOAD PUSH2 0x286A SWAP1 DUP4 SWAP1 PUSH2 0x44AD JUMP JUMPDEST PUSH1 0x8 DUP3 ADD SSTORE PUSH1 0x0 DUP4 DUP2 MSTORE PUSH1 0xC PUSH1 0x20 SWAP1 DUP2 MSTORE PUSH1 0x40 DUP1 DUP4 KECCAK256 CALLER DUP1 DUP6 MSTORE SWAP1 DUP4 MSTORE DUP2 DUP5 KECCAK256 DUP1 SLOAD PUSH32 0xFFFFFFFFFFFFFFFFFFFFFFFFFFFFFFFFFFFFFFFFFFFFFFFFFFFFFFFFFFFFFF00 AND PUSH1 0x1 SWAP1 DUP2 OR DUP3 SSTORE DUP1 DUP3 ADD DUP9 SWAP1 SSTORE PUSH1 0xE DUP6 MSTORE DUP4 DUP7 KECCAK256 DUP1 SLOAD SWAP2 DUP3 ADD DUP2 SSTORE DUP7 MSTORE SWAP5 DUP5 SWAP1 KECCAK256 SWAP1 SWAP5 ADD DUP8 SWAP1 SSTORE SWAP1 MLOAD DUP6 DUP2 MSTORE DUP7 SWAP3 PUSH32 0xD8C1FE3E67AB767116A81F122B83C2557A8C2564019CB7C4F83DE1AEB1F1F0D SWAP2 ADD PUSH2 0xFF3 JUMP JUMPDEST PUSH2 0x290C PUSH2 0x32C4 JUMP JUMPDEST PUSH1 0x4 SLOAD PUSH20 0xFFFFFFFFFFFFFFFFFFFFFFFFFFFFFFFFFFFFFFFF AND CALLER EQ PUSH2 0x298D JUMPI PUSH1 0x40 MLOAD PUSH32 0x8C379A000000000000000000000000000000000000000000000000000000000 DUP2 MSTORE PUSH1 0x20 PUSH1 0x4 DUP3 ADD MSTORE PUSH1 0xC PUSH1 0x24 DUP3 ADD MSTORE PUSH32 0x4E6F74206F70657261746F720000000000000000000000000000000000000000 PUSH1 0x44 DUP3 ADD MSTORE PUSH1 0x64 ADD PUSH2 0x93E JUMP JUMPDEST PUSH1 0x2 SLOAD PUSH22 0x1000000000000000000000000000000000000000000 SWAP1 DIV PUSH1 0xFF AND PUSH2 0x2A38 JUMPI PUSH1 0x40 MLOAD PUSH32 0x8C379A000000000000000000000000000000000000000000000000000000000 DUP2 MSTORE PUSH1 0x20 PUSH1 0x4 DUP3 ADD MSTORE PUSH1 0x31 PUSH1 0x24 DUP3 ADD MSTORE PUSH32 0x43616E206F6E6C792072756E2061667465722067656E65736973537461727452 PUSH1 0x44 DUP3 ADD MSTORE PUSH32 0x6F756E6420697320747269676765726564000000000000000000000000000000 PUSH1 0x64 DUP3 ADD MSTORE PUSH1 0x84 ADD PUSH2 0x93E JUMP JUMPDEST PUSH1 0x2 SLOAD PUSH21 0x10000000000000000000000000000000000000000 SWAP1 DIV PUSH1 0xFF AND ISZERO PUSH2 0x2AE3 JUMPI PUSH1 0x40 MLOAD PUSH32 0x8C379A000000000000000000000000000000000000000000000000000000000 DUP2 MSTORE PUSH1 0x20 PUSH1 0x4 DUP3 ADD MSTORE PUSH1 0x22 PUSH1 0x24 DUP3 ADD MSTORE PUSH32 0x43616E206F6E6C792072756E2067656E657369734C6F636B526F756E64206F6E PUSH1 0x44 DUP3 ADD MSTORE PUSH32 0x6365000000000000000000000000000000000000000000000000000000000000 PUSH1 0x64 DUP3 ADD MSTORE PUSH1 0x84 ADD PUSH2 0x93E JUMP JUMPDEST PUSH1 0xA SLOAD DUP2 SWAP1 PUSH2 0x2AF2 SWAP1 DUP3 PUSH2 0x3597 JUMP JUMPDEST PUSH1 0xA SLOAD PUSH2 0x2B00 SWAP1 PUSH1 0x1 PUSH2 0x44AD JUMP JUMPDEST PUSH1 0xA DUP2 SWAP1 SSTORE PUSH2 0x2B0E SWAP1 PUSH2 0x3349 JUMP JUMPDEST PUSH1 0x2 DUP1 SLOAD PUSH32 0xFFFFFFFFFFFFFFFFFFFFFF00FFFFFFFFFFFFFFFFFFFFFFFFFFFFFFFFFFFFFFFF AND PUSH21 0x10000000000000000000000000000000000000000 OR SWAP1 SSTORE PUSH1 0xA SLOAD PUSH1 0x40 MLOAD PUSH32 0x72BD5C94E7723E61342608A0506D9111BC8964A94C3AD7E630735A51CC40BFE1 SWAP1 PUSH1 0x0 SWAP1 LOG2 POP POP JUMP JUMPDEST PUSH2 0x2B85 PUSH2 0x3432 JUMP JUMPDEST PUSH2 0x2BA6 PUSH20 0xFFFFFFFFFFFFFFFFFFFFFFFFFFFFFFFFFFFFFFFF DUP4 AND CALLER DUP4 PUSH2 0x37E6 JUMP JUMPDEST DUP2 PUSH20 0xFFFFFFFFFFFFFFFFFFFFFFFFFFFFFFFFFFFFFFFF AND PUSH32 0x14F11966A996E0629572E51064726D2057A80FBD34EFC066682C06A71DBB6E98 DUP3 PUSH1 0x40 MLOAD PUSH2 0x2BEE SWAP2 DUP2 MSTORE PUSH1 0x20 ADD SWAP1 JUMP JUMPDEST PUSH1 0x40 MLOAD DUP1 SWAP2 SUB SWAP1 LOG2 POP POP JUMP JUMPDEST PUSH1 0x3 SLOAD PUSH20 0xFFFFFFFFFFFFFFFFFFFFFFFFFFFFFFFFFFFFFFFF AND CALLER EQ PUSH2 0x2C7B JUMPI PUSH1 0x40 MLOAD PUSH32 0x8C379A000000000000000000000000000000000000000000000000000000000 DUP2 MSTORE PUSH1 0x20 PUSH1 0x4 DUP3 ADD MSTORE PUSH1 0x9 PUSH1 0x24 DUP3 ADD MSTORE PUSH32 0x4E6F742061646D696E0000000000000000000000000000000000000000000000 PUSH1 0x44 DUP3 ADD MSTORE PUSH1 0x64 ADD PUSH2 0x93E JUMP JUMPDEST PUSH20 0xFFFFFFFFFFFFFFFFFFFFFFFFFFFFFFFFFFFFFFFF DUP2 AND PUSH2 0x2CF8 JUMPI PUSH1 0x40 MLOAD PUSH32 0x8C379A000000000000000000000000000000000000000000000000000000000 DUP2 MSTORE PUSH1 0x20 PUSH1 0x4 DUP3 ADD MSTORE PUSH1 0x16 PUSH1 0x24 DUP3 ADD MSTORE PUSH32 0x43616E6E6F74206265207A65726F206164647265737300000000000000000000 PUSH1 0x44 DUP3 ADD MSTORE PUSH1 0x64 ADD PUSH2 0x93E JUMP JUMPDEST PUSH1 0x4 DUP1 SLOAD PUSH32 0xFFFFFFFFFFFFFFFFFFFFFFFF0000000000000000000000000000000000000000 AND PUSH20 0xFFFFFFFFFFFFFFFFFFFFFFFFFFFFFFFFFFFFFFFF DUP4 AND SWAP1 DUP2 OR SWAP1 SWAP2 SSTORE PUSH1 0x40 MLOAD SWAP1 DUP2 MSTORE PUSH32 0xC47D127C07BDD56C5CCBA00463CE3BD3C1BCA71B4670EEA6E5D0C02E4AA156E2 SWAP1 PUSH1 0x20 ADD PUSH2 0x19E7 JUMP JUMPDEST PUSH2 0x2D73 PUSH2 0x32C4 JUMP JUMPDEST PUSH1 0x4 SLOAD PUSH20 0xFFFFFFFFFFFFFFFFFFFFFFFFFFFFFFFFFFFFFFFF AND CALLER EQ PUSH2 0x2DF4 JUMPI PUSH1 0x40 MLOAD PUSH32 0x8C379A000000000000000000000000000000000000000000000000000000000 DUP2 MSTORE PUSH1 0x20 PUSH1 0x4 DUP3 ADD MSTORE PUSH1 0xC PUSH1 0x24 DUP3 ADD MSTORE PUSH32 0x4E6F74206F70657261746F720000000000000000000000000000000000000000 PUSH1 0x44 DUP3 ADD MSTORE PUSH1 0x64 ADD PUSH2 0x93E JUMP JUMPDEST PUSH1 0x2 SLOAD PUSH22 0x1000000000000000000000000000000000000000000 SWAP1 DIV PUSH1 0xFF AND DUP1 ISZERO PUSH2 0x2E39 JUMPI POP PUSH1 0x2 SLOAD PUSH21 0x10000000000000000000000000000000000000000 SWAP1 DIV PUSH1 0xFF AND JUMPDEST PUSH2 0x2EEB JUMPI PUSH1 0x40 MLOAD PUSH32 0x8C379A000000000000000000000000000000000000000000000000000000000 DUP2 MSTORE PUSH1 0x20 PUSH1 0x4 DUP3 ADD MSTORE PUSH1 0x46 PUSH1 0x24 DUP3 ADD MSTORE PUSH32 0x43616E206F6E6C792072756E2061667465722067656E65736973537461727452 PUSH1 0x44 DUP3 ADD MSTORE PUSH32 0x6F756E6420616E642067656E657369734C6F636B526F756E6420697320747269 PUSH1 0x64 DUP3 ADD MSTORE PUSH32 0x6767657265640000000000000000000000000000000000000000000000000000 PUSH1 0x84 DUP3 ADD MSTORE PUSH1 0xA4 ADD PUSH2 0x93E JUMP JUMPDEST PUSH1 0xA SLOAD DUP2 SWAP1 PUSH2 0x2EFA SWAP1 DUP3 PUSH2 0x3597 JUMP JUMPDEST PUSH2 0x2F12 PUSH1 0x1 PUSH1 0xA SLOAD PUSH2 0x2F0C SWAP2 SWAP1 PUSH2 0x453B JUMP JUMPDEST DUP3 PUSH2 0x3873 JUMP JUMPDEST PUSH2 0x2F29 PUSH1 0x1 PUSH1 0xA SLOAD PUSH2 0x2F24 SWAP2 SWAP1 PUSH2 0x453B JUMP JUMPDEST PUSH2 0x3AD7 JUMP JUMPDEST PUSH1 0xA SLOAD PUSH2 0x2F37 SWAP1 PUSH1 0x1 PUSH2 0x44AD JUMP JUMPDEST PUSH1 0xA DUP2 SWAP1 SSTORE PUSH2 0x2F45 SWAP1 PUSH2 0x3C79 JUMP JUMPDEST PUSH1 0xA SLOAD PUSH1 0x40 MLOAD PUSH32 0x72BD5C94E7723E61342608A0506D9111BC8964A94C3AD7E630735A51CC40BFE1 SWAP1 PUSH1 0x0 SWAP1 LOG2 POP POP JUMP JUMPDEST PUSH1 0xE PUSH1 0x20 MSTORE DUP2 PUSH1 0x0 MSTORE PUSH1 0x40 PUSH1 0x0 KECCAK256 DUP2 DUP2 SLOAD DUP2 LT PUSH2 0x2F91 JUMPI PUSH1 0x0 DUP1 REVERT JUMPDEST SWAP1 PUSH1 0x0 MSTORE PUSH1 0x20 PUSH1 0x0 KECCAK256 ADD PUSH1 0x0 SWAP2 POP SWAP2 POP POP SLOAD DUP2 JUMP JUMPDEST PUSH2 0x2FAE PUSH2 0x3432 JUMP JUMPDEST PUSH20 0xFFFFFFFFFFFFFFFFFFFFFFFFFFFFFFFFFFFFFFFF DUP2 AND PUSH2 0x3051 JUMPI PUSH1 0x40 MLOAD PUSH32 0x8C379A000000000000000000000000000000000000000000000000000000000 DUP2 MSTORE PUSH1 0x20 PUSH1 0x4 DUP3 ADD MSTORE PUSH1 0x26 PUSH1 0x24 DUP3 ADD MSTORE PUSH32 0x4F776E61626C653A206E6577206F776E657220697320746865207A65726F2061 PUSH1 0x44 DUP3 ADD MSTORE PUSH32 0x6464726573730000000000000000000000000000000000000000000000000000 PUSH1 0x64 DUP3 ADD MSTORE PUSH1 0x84 ADD PUSH2 0x93E JUMP JUMPDEST PUSH2 0x1007 DUP2 PUSH2 0x34B3 JUMP JUMPDEST PUSH1 0x2 PUSH1 0x1 SLOAD EQ ISZERO PUSH2 0x30C7 JUMPI PUSH1 0x40 MLOAD PUSH32 0x8C379A000000000000000000000000000000000000000000000000000000000 DUP2 MSTORE PUSH1 0x20 PUSH1 0x4 DUP3 ADD MSTORE PUSH1 0x1F PUSH1 0x24 DUP3 ADD MSTORE PUSH32 0x5265656E7472616E637947756172643A207265656E7472616E742063616C6C00 PUSH1 0x44 DUP3 ADD MSTORE PUSH1 0x64 ADD PUSH2 0x93E JUMP JUMPDEST PUSH1 0x2 PUSH1 0x1 SSTORE JUMP JUMPDEST PUSH1 0x0 DUP3 PUSH20 0xFFFFFFFFFFFFFFFFFFFFFFFFFFFFFFFFFFFFFFFF AND DUP3 PUSH1 0x40 MLOAD PUSH1 0x0 PUSH1 0x40 MLOAD DUP1 DUP4 SUB DUP2 DUP6 DUP8 GAS CALL SWAP3 POP POP POP RETURNDATASIZE DUP1 PUSH1 0x0 DUP2 EQ PUSH2 0x3128 JUMPI PUSH1 0x40 MLOAD SWAP2 POP PUSH1 0x1F NOT PUSH1 0x3F RETURNDATASIZE ADD AND DUP3 ADD PUSH1 0x40 MSTORE RETURNDATASIZE DUP3 MSTORE RETURNDATASIZE PUSH1 0x0 PUSH1 0x20 DUP5 ADD RETURNDATACOPY PUSH2 0x312D JUMP JUMPDEST PUSH1 0x60 SWAP2 POP JUMPDEST POP POP SWAP1 POP DUP1 PUSH2 0x31BE JUMPI PUSH1 0x40 MLOAD PUSH32 0x8C379A000000000000000000000000000000000000000000000000000000000 DUP2 MSTORE PUSH1 0x20 PUSH1 0x4 DUP3 ADD MSTORE PUSH1 0x23 PUSH1 0x24 DUP3 ADD MSTORE PUSH32 0x5472616E7366657248656C7065723A20424E425F5452414E534645525F464149 PUSH1 0x44 DUP3 ADD MSTORE PUSH32 0x4C45440000000000000000000000000000000000000000000000000000000000 PUSH1 0x64 DUP3 ADD MSTORE PUSH1 0x84 ADD PUSH2 0x93E JUMP JUMPDEST POP POP POP JUMP JUMPDEST PUSH1 0x0 SLOAD PUSH21 0x10000000000000000000000000000000000000000 SWAP1 DIV PUSH1 0xFF AND PUSH2 0x9B0 JUMPI PUSH1 0x40 MLOAD PUSH32 0x8C379A000000000000000000000000000000000000000000000000000000000 DUP2 MSTORE PUSH1 0x20 PUSH1 0x4 DUP3 ADD MSTORE PUSH1 0x14 PUSH1 0x24 DUP3 ADD MSTORE PUSH32 0x5061757361626C653A206E6F7420706175736564000000000000000000000000 PUSH1 0x44 DUP3 ADD MSTORE PUSH1 0x64 ADD PUSH2 0x93E JUMP JUMPDEST PUSH2 0x324F PUSH2 0x31C3 JUMP JUMPDEST PUSH1 0x0 DUP1 SLOAD PUSH32 0xFFFFFFFFFFFFFFFFFFFFFF00FFFFFFFFFFFFFFFFFFFFFFFFFFFFFFFFFFFFFFFF AND SWAP1 SSTORE PUSH32 0x5DB9EE0A495BF2E6FF9C91A7834C1BA4FDD244A5E8AA4E537BD38AEAE4B073AA CALLER JUMPDEST PUSH1 0x40 MLOAD PUSH20 0xFFFFFFFFFFFFFFFFFFFFFFFFFFFFFFFFFFFFFFFF SWAP1 SWAP2 AND DUP2 MSTORE PUSH1 0x20 ADD PUSH1 0x40 MLOAD DUP1 SWAP2 SUB SWAP1 LOG1 JUMP JUMPDEST PUSH1 0x0 SLOAD PUSH21 0x10000000000000000000000000000000000000000 SWAP1 DIV PUSH1 0xFF AND ISZERO PUSH2 0x9B0 JUMPI PUSH1 0x40 MLOAD PUSH32 0x8C379A000000000000000000000000000000000000000000000000000000000 DUP2 MSTORE PUSH1 0x20 PUSH1 0x4 DUP3 ADD MSTORE PUSH1 0x10 PUSH1 0x24 DUP3 ADD MSTORE PUSH32 0x5061757361626C653A2070617573656400000000000000000000000000000000 PUSH1 0x44 DUP3 ADD MSTORE PUSH1 0x64 ADD PUSH2 0x93E JUMP JUMPDEST PUSH1 0x0 DUP2 DUP2 MSTORE PUSH1 0xD PUSH1 0x20 MSTORE PUSH1 0x40 SWAP1 KECCAK256 TIMESTAMP PUSH1 0x1 DUP3 ADD DUP2 SWAP1 SSTORE PUSH1 0x6 SLOAD PUSH2 0x336B SWAP2 PUSH2 0x44AD JUMP JUMPDEST PUSH1 0x2 DUP1 DUP4 ADD SWAP2 SWAP1 SWAP2 SSTORE PUSH1 0x6 SLOAD PUSH2 0x3380 SWAP2 PUSH2 0x44FE JUMP JUMPDEST PUSH2 0x338A SWAP1 TIMESTAMP PUSH2 0x44AD JUMP JUMPDEST PUSH1 0x3 DUP3 ADD SSTORE DUP2 DUP2 SSTORE PUSH1 0x0 PUSH1 0x6 DUP3 ADD DUP2 SWAP1 SSTORE PUSH1 0x40 MLOAD DUP4 SWAP2 PUSH32 0x939F42374AA9BF1D8D8CD56D8A9110CB040CD8DFEAE44080C6FCF2645E51B452 SWAP2 LOG2 POP POP JUMP JUMPDEST PUSH1 0x0 DUP2 DUP2 MSTORE PUSH1 0xD PUSH1 0x20 MSTORE PUSH1 0x40 DUP2 KECCAK256 PUSH1 0x1 ADD SLOAD ISZERO DUP1 ISZERO SWAP1 PUSH2 0x33F7 JUMPI POP PUSH1 0x0 DUP3 DUP2 MSTORE PUSH1 0xD PUSH1 0x20 MSTORE PUSH1 0x40 SWAP1 KECCAK256 PUSH1 0x2 ADD SLOAD ISZERO ISZERO JUMPDEST DUP1 ISZERO PUSH2 0x3413 JUMPI POP PUSH1 0x0 DUP3 DUP2 MSTORE PUSH1 0xD PUSH1 0x20 MSTORE PUSH1 0x40 SWAP1 KECCAK256 PUSH1 0x1 ADD SLOAD TIMESTAMP GT JUMPDEST DUP1 ISZERO PUSH2 0x1CE0 JUMPI POP POP PUSH1 0x0 SWAP1 DUP2 MSTORE PUSH1 0xD PUSH1 0x20 MSTORE PUSH1 0x40 SWAP1 KECCAK256 PUSH1 0x2 ADD SLOAD TIMESTAMP LT SWAP1 JUMP JUMPDEST PUSH1 0x0 SLOAD PUSH20 0xFFFFFFFFFFFFFFFFFFFFFFFFFFFFFFFFFFFFFFFF AND CALLER EQ PUSH2 0x9B0 JUMPI PUSH1 0x40 MLOAD PUSH32 0x8C379A000000000000000000000000000000000000000000000000000000000 DUP2 MSTORE PUSH1 0x20 PUSH1 0x4 DUP3 ADD DUP2 SWAP1 MSTORE PUSH1 0x24 DUP3 ADD MSTORE PUSH32 0x4F776E61626C653A2063616C6C6572206973206E6F7420746865206F776E6572 PUSH1 0x44 DUP3 ADD MSTORE PUSH1 0x64 ADD PUSH2 0x93E JUMP JUMPDEST PUSH1 0x0 DUP1 SLOAD PUSH20 0xFFFFFFFFFFFFFFFFFFFFFFFFFFFFFFFFFFFFFFFF DUP4 DUP2 AND PUSH32 0xFFFFFFFFFFFFFFFFFFFFFFFF0000000000000000000000000000000000000000 DUP4 AND DUP2 OR DUP5 SSTORE PUSH1 0x40 MLOAD SWAP2 SWAP1 SWAP3 AND SWAP3 DUP4 SWAP2 PUSH32 0x8BE0079C531659141344CD1FD0A4F28419497F9722A3DAAFE3B4186F6B6457E0 SWAP2 SWAP1 LOG3 POP POP JUMP JUMPDEST PUSH2 0x3530 PUSH2 0x32C4 JUMP JUMPDEST PUSH1 0x0 DUP1 SLOAD PUSH32 0xFFFFFFFFFFFFFFFFFFFFFF00FFFFFFFFFFFFFFFFFFFFFFFFFFFFFFFFFFFFFFFF AND PUSH21 0x10000000000000000000000000000000000000000 OR SWAP1 SSTORE PUSH32 0x62E78CEA01BEE320CD4E420270B5EA74000D11B0C9F74754EBDBFC544B05A258 PUSH2 0x329A CALLER SWAP1 JUMP JUMPDEST PUSH1 0x0 DUP3 DUP2 MSTORE PUSH1 0xD PUSH1 0x20 MSTORE PUSH1 0x40 SWAP1 KECCAK256 PUSH1 0x1 ADD SLOAD PUSH2 0x3635 JUMPI PUSH1 0x40 MLOAD PUSH32 0x8C379A000000000000000000000000000000000000000000000000000000000 DUP2 MSTORE PUSH1 0x20 PUSH1 0x4 DUP3 ADD MSTORE PUSH1 0x2B PUSH1 0x24 DUP3 ADD MSTORE PUSH32 0x43616E206F6E6C79206C6F636B20726F756E6420616674657220726F756E6420 PUSH1 0x44 DUP3 ADD MSTORE PUSH32 0x6861732073746172746564000000000000000000000000000000000000000000 PUSH1 0x64 DUP3 ADD MSTORE PUSH1 0x84 ADD PUSH2 0x93E JUMP JUMPDEST PUSH1 0x0 DUP3 DUP2 MSTORE PUSH1 0xD PUSH1 0x20 MSTORE PUSH1 0x40 SWAP1 KECCAK256 PUSH1 0x2 ADD SLOAD TIMESTAMP LT ISZERO PUSH2 0x36D6 JUMPI PUSH1 0x40 MLOAD PUSH32 0x8C379A000000000000000000000000000000000000000000000000000000000 DUP2 MSTORE PUSH1 0x20 PUSH1 0x4 DUP3 ADD MSTORE PUSH1 0x27 PUSH1 0x24 DUP3 ADD MSTORE PUSH32 0x43616E206F6E6C79206C6F636B20726F756E64206166746572206C6F636B5469 PUSH1 0x44 DUP3 ADD MSTORE PUSH32 0x6D657374616D7000000000000000000000000000000000000000000000000000 PUSH1 0x64 DUP3 ADD MSTORE PUSH1 0x84 ADD PUSH2 0x93E JUMP JUMPDEST PUSH1 0x5 SLOAD PUSH1 0x0 DUP4 DUP2 MSTORE PUSH1 0xD PUSH1 0x20 MSTORE PUSH1 0x40 SWAP1 KECCAK256 PUSH1 0x2 ADD SLOAD PUSH2 0x36F5 SWAP2 SWAP1 PUSH2 0x44AD JUMP JUMPDEST TIMESTAMP GT ISZERO PUSH2 0x3784 JUMPI PUSH1 0x40 MLOAD PUSH32 0x8C379A000000000000000000000000000000000000000000000000000000000 DUP2 MSTORE PUSH1 0x20 PUSH1 0x4 DUP3 ADD MSTORE PUSH1 0x28 PUSH1 0x24 DUP3 ADD MSTORE PUSH32 0x43616E206F6E6C79206C6F636B20726F756E642077697468696E206275666665 PUSH1 0x44 DUP3 ADD MSTORE PUSH32 0x725365636F6E6473000000000000000000000000000000000000000000000000 PUSH1 0x64 DUP3 ADD MSTORE PUSH1 0x84 ADD PUSH2 0x93E JUMP JUMPDEST PUSH1 0x0 DUP3 DUP2 MSTORE PUSH1 0xD PUSH1 0x20 MSTORE PUSH1 0x40 SWAP1 KECCAK256 PUSH1 0x6 SLOAD PUSH2 0x379F SWAP1 TIMESTAMP PUSH2 0x44AD JUMP JUMPDEST PUSH1 0x3 DUP3 ADD SSTORE PUSH1 0x4 DUP2 ADD DUP3 SWAP1 SSTORE PUSH1 0x40 MLOAD DUP3 DUP2 MSTORE DUP4 SWAP1 PUSH32 0xEEF94CBDA40AA01B9B02B7DBD6075CAA3662C0FABF77A84ED674B09B0FF9CB1E SWAP1 PUSH1 0x20 ADD JUMPDEST PUSH1 0x40 MLOAD DUP1 SWAP2 SUB SWAP1 LOG2 POP POP POP JUMP JUMPDEST PUSH1 0x40 DUP1 MLOAD PUSH20 0xFFFFFFFFFFFFFFFFFFFFFFFFFFFFFFFFFFFFFFFF DUP5 AND PUSH1 0x24 DUP3 ADD MSTORE PUSH1 0x44 DUP1 DUP3 ADD DUP5 SWAP1 MSTORE DUP3 MLOAD DUP1 DUP4 SUB SWAP1 SWAP2 ADD DUP2 MSTORE PUSH1 0x64 SWAP1 SWAP2 ADD SWAP1 SWAP2 MSTORE PUSH1 0x20 DUP2 ADD DUP1 MLOAD PUSH28 0xFFFFFFFFFFFFFFFFFFFFFFFFFFFFFFFFFFFFFFFFFFFFFFFFFFFFFFFF AND PUSH32 0xA9059CBB00000000000000000000000000000000000000000000000000000000 OR SWAP1 MSTORE PUSH2 0x31BE SWAP1 DUP5 SWAP1 PUSH2 0x3E8E JUMP JUMPDEST PUSH1 0x0 DUP3 DUP2 MSTORE PUSH1 0xD PUSH1 0x20 MSTORE PUSH1 0x40 SWAP1 KECCAK256 PUSH1 0x2 ADD SLOAD PUSH2 0x3911 JUMPI PUSH1 0x40 MLOAD PUSH32 0x8C379A000000000000000000000000000000000000000000000000000000000 DUP2 MSTORE PUSH1 0x20 PUSH1 0x4 DUP3 ADD MSTORE PUSH1 0x29 PUSH1 0x24 DUP3 ADD MSTORE PUSH32 0x43616E206F6E6C7920656E6420726F756E6420616674657220726F756E642068 PUSH1 0x44 DUP3 ADD MSTORE PUSH32 0x6173206C6F636B65640000000000000000000000000000000000000000000000 PUSH1 0x64 DUP3 ADD MSTORE PUSH1 0x84 ADD PUSH2 0x93E JUMP JUMPDEST PUSH1 0x0 DUP3 DUP2 MSTORE PUSH1 0xD PUSH1 0x20 MSTORE PUSH1 0x40 SWAP1 KECCAK256 PUSH1 0x3 ADD SLOAD TIMESTAMP LT ISZERO PUSH2 0x39B2 JUMPI PUSH1 0x40 MLOAD PUSH32 0x8C379A000000000000000000000000000000000000000000000000000000000 DUP2 MSTORE PUSH1 0x20 PUSH1 0x4 DUP3 ADD MSTORE PUSH1 0x27 PUSH1 0x24 DUP3 ADD MSTORE PUSH32 0x43616E206F6E6C7920656E6420726F756E6420616674657220636C6F73655469 PUSH1 0x44 DUP3 ADD MSTORE PUSH32 0x6D657374616D7000000000000000000000000000000000000000000000000000 PUSH1 0x64 DUP3 ADD MSTORE PUSH1 0x84 ADD PUSH2 0x93E JUMP JUMPDEST PUSH1 0x5 SLOAD PUSH1 0x0 DUP4 DUP2 MSTORE PUSH1 0xD PUSH1 0x20 MSTORE PUSH1 0x40 SWAP1 KECCAK256 PUSH1 0x3 ADD SLOAD PUSH2 0x39D1 SWAP2 SWAP1 PUSH2 0x44AD JUMP JUMPDEST TIMESTAMP GT ISZERO PUSH2 0x3A60 JUMPI PUSH1 0x40 MLOAD PUSH32 0x8C379A000000000000000000000000000000000000000000000000000000000 DUP2 MSTORE PUSH1 0x20 PUSH1 0x4 DUP3 ADD MSTORE PUSH1 0x27 PUSH1 0x24 DUP3 ADD MSTORE PUSH32 0x43616E206F6E6C7920656E6420726F756E642077697468696E20627566666572 PUSH1 0x44 DUP3 ADD MSTORE PUSH32 0x5365636F6E647300000000000000000000000000000000000000000000000000 PUSH1 0x64 DUP3 ADD MSTORE PUSH1 0x84 ADD PUSH2 0x93E JUMP JUMPDEST PUSH1 0x0 DUP3 DUP2 MSTORE PUSH1 0xD PUSH1 0x20 MSTORE PUSH1 0x40 SWAP1 DUP2 SWAP1 KECCAK256 PUSH1 0x5 DUP2 ADD DUP4 SWAP1 SSTORE PUSH1 0xB DUP2 ADD DUP1 SLOAD PUSH32 0xFFFFFFFFFFFFFFFFFFFFFFFFFFFFFFFFFFFFFFFFFFFFFFFFFFFFFFFFFFFFFF00 AND PUSH1 0x1 OR SWAP1 SSTORE SWAP1 MLOAD DUP4 SWAP1 PUSH32 0xCEE1A52460A80134ED9FBDA5E300B8AECAF44BA60B7FE91A80A3FEF96D5C5B7A SWAP1 PUSH2 0x37D9 SWAP1 DUP6 DUP2 MSTORE PUSH1 0x20 ADD SWAP1 JUMP JUMPDEST PUSH1 0x0 DUP2 DUP2 MSTORE PUSH1 0xD PUSH1 0x20 MSTORE PUSH1 0x40 SWAP1 KECCAK256 PUSH1 0x9 ADD SLOAD ISZERO DUP1 ISZERO PUSH2 0x3B05 JUMPI POP PUSH1 0x0 DUP2 DUP2 MSTORE PUSH1 0xD PUSH1 0x20 MSTORE PUSH1 0x40 SWAP1 KECCAK256 PUSH1 0xA ADD SLOAD ISZERO JUMPDEST PUSH2 0x3B6B JUMPI PUSH1 0x40 MLOAD PUSH32 0x8C379A000000000000000000000000000000000000000000000000000000000 DUP2 MSTORE PUSH1 0x20 PUSH1 0x4 DUP3 ADD MSTORE PUSH1 0x12 PUSH1 0x24 DUP3 ADD MSTORE PUSH32 0x526577617264732063616C63756C617465640000000000000000000000000000 PUSH1 0x44 DUP3 ADD MSTORE PUSH1 0x64 ADD PUSH2 0x93E JUMP JUMPDEST PUSH1 0x0 DUP2 DUP2 MSTORE PUSH1 0xD PUSH1 0x20 MSTORE PUSH1 0x40 DUP2 KECCAK256 PUSH1 0x4 DUP2 ADD SLOAD PUSH1 0x5 DUP3 ADD SLOAD SWAP2 SWAP3 SWAP2 DUP3 SWAP2 DUP3 SWAP2 SGT ISZERO PUSH2 0x3BCF JUMPI DUP4 PUSH1 0x7 ADD SLOAD SWAP3 POP PUSH2 0x2710 PUSH1 0x8 SLOAD DUP6 PUSH1 0x6 ADD SLOAD PUSH2 0x3BAC SWAP2 SWAP1 PUSH2 0x44FE JUMP JUMPDEST PUSH2 0x3BB6 SWAP2 SWAP1 PUSH2 0x44C5 JUMP JUMPDEST SWAP2 POP DUP2 DUP5 PUSH1 0x6 ADD SLOAD PUSH2 0x3BC8 SWAP2 SWAP1 PUSH2 0x453B JUMP JUMPDEST SWAP1 POP PUSH2 0x3C08 JUMP JUMPDEST DUP4 PUSH1 0x4 ADD SLOAD DUP5 PUSH1 0x5 ADD SLOAD SLT ISZERO PUSH2 0x3BFB JUMPI DUP4 PUSH1 0x8 ADD SLOAD SWAP3 POP PUSH2 0x2710 PUSH1 0x8 SLOAD DUP6 PUSH1 0x6 ADD SLOAD PUSH2 0x3BAC SWAP2 SWAP1 PUSH2 0x44FE JUMP JUMPDEST POP POP POP PUSH1 0x6 DUP2 ADD SLOAD PUSH1 0x0 SWAP1 DUP2 JUMPDEST PUSH1 0x9 DUP1 DUP6 ADD DUP5 SWAP1 SSTORE PUSH1 0xA DUP6 ADD DUP3 SWAP1 SSTORE DUP1 SLOAD DUP4 SWAP2 SWAP1 PUSH1 0x0 SWAP1 PUSH2 0x3C2A SWAP1 DUP5 SWAP1 PUSH2 0x44AD JUMP JUMPDEST SWAP1 SWAP2 SSTORE POP POP PUSH1 0x40 DUP1 MLOAD DUP5 DUP2 MSTORE PUSH1 0x20 DUP2 ADD DUP4 SWAP1 MSTORE SWAP1 DUP2 ADD DUP4 SWAP1 MSTORE DUP6 SWAP1 PUSH32 0x6DFDFCB09C8804D0058826CD2539F1ACFBE3CB887C9BE03D928035BCE0F1A58D SWAP1 PUSH1 0x60 ADD PUSH1 0x40 MLOAD DUP1 SWAP2 SUB SWAP1 LOG2 POP POP POP POP POP JUMP JUMPDEST PUSH1 0x2 SLOAD PUSH22 0x1000000000000000000000000000000000000000000 SWAP1 DIV PUSH1 0xFF AND PUSH2 0x3D24 JUMPI PUSH1 0x40 MLOAD PUSH32 0x8C379A000000000000000000000000000000000000000000000000000000000 DUP2 MSTORE PUSH1 0x20 PUSH1 0x4 DUP3 ADD MSTORE PUSH1 0x31 PUSH1 0x24 DUP3 ADD MSTORE PUSH32 0x43616E206F6E6C792072756E2061667465722067656E65736973537461727452 PUSH1 0x44 DUP3 ADD MSTORE PUSH32 0x6F756E6420697320747269676765726564000000000000000000000000000000 PUSH1 0x64 DUP3 ADD MSTORE PUSH1 0x84 ADD PUSH2 0x93E JUMP JUMPDEST PUSH1 0xD PUSH1 0x0 PUSH2 0x3D33 PUSH1 0x2 DUP5 PUSH2 0x453B JUMP JUMPDEST DUP2 MSTORE PUSH1 0x20 ADD SWAP1 DUP2 MSTORE PUSH1 0x20 ADD PUSH1 0x0 KECCAK256 PUSH1 0x3 ADD SLOAD PUSH1 0x0 EQ ISZERO PUSH2 0x3DD5 JUMPI PUSH1 0x40 MLOAD PUSH32 0x8C379A000000000000000000000000000000000000000000000000000000000 DUP2 MSTORE PUSH1 0x20 PUSH1 0x4 DUP3 ADD MSTORE PUSH1 0x2E PUSH1 0x24 DUP3 ADD MSTORE PUSH32 0x43616E206F6E6C7920737461727420726F756E6420616674657220726F756E64 PUSH1 0x44 DUP3 ADD MSTORE PUSH32 0x206E2D322068617320656E646564000000000000000000000000000000000000 PUSH1 0x64 DUP3 ADD MSTORE PUSH1 0x84 ADD PUSH2 0x93E JUMP JUMPDEST PUSH1 0xD PUSH1 0x0 PUSH2 0x3DE4 PUSH1 0x2 DUP5 PUSH2 0x453B JUMP JUMPDEST DUP2 MSTORE PUSH1 0x20 ADD SWAP1 DUP2 MSTORE PUSH1 0x20 ADD PUSH1 0x0 KECCAK256 PUSH1 0x3 ADD SLOAD TIMESTAMP LT ISZERO PUSH2 0x3E85 JUMPI PUSH1 0x40 MLOAD PUSH32 0x8C379A000000000000000000000000000000000000000000000000000000000 DUP2 MSTORE PUSH1 0x20 PUSH1 0x4 DUP3 ADD MSTORE PUSH1 0x37 PUSH1 0x24 DUP3 ADD MSTORE PUSH32 0x43616E206F6E6C79207374617274206E657720726F756E642061667465722072 PUSH1 0x44 DUP3 ADD MSTORE PUSH32 0x6F756E64206E2D3220636C6F736554696D657374616D70000000000000000000 PUSH1 0x64 DUP3 ADD MSTORE PUSH1 0x84 ADD PUSH2 0x93E JUMP JUMPDEST PUSH2 0x1007 DUP2 PUSH2 0x3349 JUMP JUMPDEST PUSH1 0x0 PUSH2 0x3EF0 DUP3 PUSH1 0x40 MLOAD DUP1 PUSH1 0x40 ADD PUSH1 0x40 MSTORE DUP1 PUSH1 0x20 DUP2 MSTORE PUSH1 0x20 ADD PUSH32 0x5361666545524332303A206C6F772D6C6576656C2063616C6C206661696C6564 DUP2 MSTORE POP DUP6 PUSH20 0xFFFFFFFFFFFFFFFFFFFFFFFFFFFFFFFFFFFFFFFF AND PUSH2 0x3F9A SWAP1 SWAP3 SWAP2 SWAP1 PUSH4 0xFFFFFFFF AND JUMP JUMPDEST DUP1 MLOAD SWAP1 SWAP2 POP ISZERO PUSH2 0x31BE JUMPI DUP1 DUP1 PUSH1 0x20 ADD SWAP1 MLOAD DUP2 ADD SWAP1 PUSH2 0x3F0E SWAP2 SWAP1 PUSH2 0x42BB JUMP JUMPDEST PUSH2 0x31BE JUMPI PUSH1 0x40 MLOAD PUSH32 0x8C379A000000000000000000000000000000000000000000000000000000000 DUP2 MSTORE PUSH1 0x20 PUSH1 0x4 DUP3 ADD MSTORE PUSH1 0x2A PUSH1 0x24 DUP3 ADD MSTORE PUSH32 0x5361666545524332303A204552433230206F7065726174696F6E20646964206E PUSH1 0x44 DUP3 ADD MSTORE PUSH32 0x6F74207375636365656400000000000000000000000000000000000000000000 PUSH1 0x64 DUP3 ADD MSTORE PUSH1 0x84 ADD PUSH2 0x93E JUMP JUMPDEST PUSH1 0x60 PUSH2 0x3FA9 DUP5 DUP5 PUSH1 0x0 DUP6 PUSH2 0x3FB1 JUMP JUMPDEST SWAP5 SWAP4 POP POP POP POP JUMP JUMPDEST PUSH1 0x60 DUP3 SELFBALANCE LT ISZERO PUSH2 0x4043 JUMPI PUSH1 0x40 MLOAD PUSH32 0x8C379A000000000000000000000000000000000000000000000000000000000 DUP2 MSTORE PUSH1 0x20 PUSH1 0x4 DUP3 ADD MSTORE PUSH1 0x26 PUSH1 0x24 DUP3 ADD MSTORE PUSH32 0x416464726573733A20696E73756666696369656E742062616C616E636520666F PUSH1 0x44 DUP3 ADD MSTORE PUSH32 0x722063616C6C0000000000000000000000000000000000000000000000000000 PUSH1 0x64 DUP3 ADD MSTORE PUSH1 0x84 ADD PUSH2 0x93E JUMP JUMPDEST PUSH1 0x0 DUP1 DUP7 PUSH20 0xFFFFFFFFFFFFFFFFFFFFFFFFFFFFFFFFFFFFFFFF AND DUP6 DUP8 PUSH1 0x40 MLOAD PUSH2 0x406C SWAP2 SWAP1 PUSH2 0x437A JUMP JUMPDEST PUSH1 0x0 PUSH1 0x40 MLOAD DUP1 DUP4 SUB DUP2 DUP6 DUP8 GAS CALL SWAP3 POP POP POP RETURNDATASIZE DUP1 PUSH1 0x0 DUP2 EQ PUSH2 0x40A9 JUMPI PUSH1 0x40 MLOAD SWAP2 POP PUSH1 0x1F NOT PUSH1 0x3F RETURNDATASIZE ADD AND DUP3 ADD PUSH1 0x40 MSTORE RETURNDATASIZE DUP3 MSTORE RETURNDATASIZE PUSH1 0x0 PUSH1 0x20 DUP5 ADD RETURNDATACOPY PUSH2 0x40AE JUMP JUMPDEST PUSH1 0x60 SWAP2 POP JUMPDEST POP SWAP2 POP SWAP2 POP PUSH2 0x40BF DUP8 DUP4 DUP4 DUP8 PUSH2 0x40CA JUMP JUMPDEST SWAP8 SWAP7 POP POP POP POP POP POP POP JUMP JUMPDEST PUSH1 0x60 DUP4 ISZERO PUSH2 0x415D JUMPI DUP3 MLOAD PUSH2 0x4156 JUMPI PUSH20 0xFFFFFFFFFFFFFFFFFFFFFFFFFFFFFFFFFFFFFFFF DUP6 AND EXTCODESIZE PUSH2 0x4156 JUMPI PUSH1 0x40 MLOAD PUSH32 0x8C379A000000000000000000000000000000000000000000000000000000000 DUP2 MSTORE PUSH1 0x20 PUSH1 0x4 DUP3 ADD MSTORE PUSH1 0x1D PUSH1 0x24 DUP3 ADD MSTORE PUSH32 0x416464726573733A2063616C6C20746F206E6F6E2D636F6E7472616374000000 PUSH1 0x44 DUP3 ADD MSTORE PUSH1 0x64 ADD PUSH2 0x93E JUMP JUMPDEST POP DUP2 PUSH2 0x3FA9 JUMP JUMPDEST PUSH2 0x3FA9 DUP4 DUP4 DUP2 MLOAD ISZERO PUSH2 0x4172 JUMPI DUP2 MLOAD DUP1 DUP4 PUSH1 0x20 ADD REVERT JUMPDEST DUP1 PUSH1 0x40 MLOAD PUSH32 0x8C379A000000000000000000000000000000000000000000000000000000000 DUP2 MSTORE PUSH1 0x4 ADD PUSH2 0x93E SWAP2 SWAP1 PUSH2 0x445C JUMP JUMPDEST DUP1 CALLDATALOAD PUSH20 0xFFFFFFFFFFFFFFFFFFFFFFFFFFFFFFFFFFFFFFFF DUP2 AND DUP2 EQ PUSH2 0x41CA JUMPI PUSH1 0x0 DUP1 REVERT JUMPDEST SWAP2 SWAP1 POP JUMP JUMPDEST PUSH1 0x0 PUSH1 0x20 DUP3 DUP5 SUB SLT ISZERO PUSH2 0x41E0 JUMPI DUP1 DUP2 REVERT JUMPDEST PUSH2 0x41E9 DUP3 PUSH2 0x41A6 JUMP JUMPDEST SWAP4 SWAP3 POP POP POP JUMP JUMPDEST PUSH1 0x0 DUP1 PUSH1 0x40 DUP4 DUP6 SUB SLT ISZERO PUSH2 0x4202 JUMPI DUP1 DUP2 REVERT JUMPDEST PUSH2 0x420B DUP4 PUSH2 0x41A6 JUMP JUMPDEST SWAP5 PUSH1 0x20 SWAP4 SWAP1 SWAP4 ADD CALLDATALOAD SWAP4 POP POP POP JUMP JUMPDEST PUSH1 0x0 DUP1 PUSH1 0x0 PUSH1 0x60 DUP5 DUP7 SUB SLT ISZERO PUSH2 0x422D JUMPI DUP1 DUP2 REVERT JUMPDEST PUSH2 0x4236 DUP5 PUSH2 0x41A6 JUMP JUMPDEST SWAP6 PUSH1 0x20 DUP6 ADD CALLDATALOAD SWAP6 POP PUSH1 0x40 SWAP1 SWAP5 ADD CALLDATALOAD SWAP4 SWAP3 POP POP POP JUMP JUMPDEST PUSH1 0x0 DUP1 PUSH1 0x20 DUP4 DUP6 SUB SLT ISZERO PUSH2 0x425D JUMPI DUP2 DUP3 REVERT JUMPDEST DUP3 CALLDATALOAD PUSH8 0xFFFFFFFFFFFFFFFF DUP1 DUP3 GT ISZERO PUSH2 0x4274 JUMPI DUP4 DUP5 REVERT JUMPDEST DUP2 DUP6 ADD SWAP2 POP DUP6 PUSH1 0x1F DUP4 ADD SLT PUSH2 0x4287 JUMPI DUP4 DUP5 REVERT JUMPDEST DUP2 CALLDATALOAD DUP2 DUP2 GT ISZERO PUSH2 0x4295 JUMPI DUP5 DUP6 REVERT JUMPDEST DUP7 PUSH1 0x20 DUP3 PUSH1 0x5 SHL DUP6 ADD ADD GT ISZERO PUSH2 0x42A9 JUMPI DUP5 DUP6 REVERT JUMPDEST PUSH1 0x20 SWAP3 SWAP1 SWAP3 ADD SWAP7 SWAP2 SWAP6 POP SWAP1 SWAP4 POP POP POP POP JUMP JUMPDEST PUSH1 0x0 PUSH1 0x20 DUP3 DUP5 SUB SLT ISZERO PUSH2 0x42CC JUMPI DUP1 DUP2 REVERT JUMPDEST DUP2 MLOAD DUP1 ISZERO ISZERO DUP2 EQ PUSH2 0x41E9 JUMPI DUP2 DUP3 REVERT JUMPDEST PUSH1 0x0 PUSH1 0x20 DUP3 DUP5 SUB SLT ISZERO PUSH2 0x42EC JUMPI DUP1 DUP2 REVERT JUMPDEST POP CALLDATALOAD SWAP2 SWAP1 POP JUMP JUMPDEST PUSH1 0x0 DUP1 PUSH1 0x40 DUP4 DUP6 SUB SLT ISZERO PUSH2 0x4305 JUMPI DUP2 DUP3 REVERT JUMPDEST DUP3 CALLDATALOAD SWAP2 POP PUSH2 0x4315 PUSH1 0x20 DUP5 ADD PUSH2 0x41A6 JUMP JUMPDEST SWAP1 POP SWAP3 POP SWAP3 SWAP1 POP JUMP JUMPDEST PUSH1 0x0 DUP1 PUSH1 0x40 DUP4 DUP6 SUB SLT ISZERO PUSH2 0x4330 JUMPI DUP2 DUP3 REVERT JUMPDEST POP POP DUP1 CALLDATALOAD SWAP3 PUSH1 0x20 SWAP1 SWAP2 ADD CALLDATALOAD SWAP2 POP JUMP JUMPDEST PUSH1 0x2 DUP2 LT PUSH2 0x4376 JUMPI PUSH32 0x4E487B7100000000000000000000000000000000000000000000000000000000 PUSH1 0x0 MSTORE PUSH1 0x21 PUSH1 0x4 MSTORE PUSH1 0x24 PUSH1 0x0 REVERT JUMPDEST SWAP1 MSTORE JUMP JUMPDEST PUSH1 0x0 DUP3 MLOAD PUSH2 0x438C DUP2 DUP5 PUSH1 0x20 DUP8 ADD PUSH2 0x4552 JUMP JUMPDEST SWAP2 SWAP1 SWAP2 ADD SWAP3 SWAP2 POP POP JUMP JUMPDEST PUSH1 0x60 DUP1 DUP3 MSTORE DUP5 MLOAD DUP3 DUP3 ADD DUP2 SWAP1 MSTORE PUSH1 0x0 SWAP2 SWAP1 PUSH1 0x20 SWAP1 PUSH1 0x80 DUP6 ADD SWAP1 DUP3 DUP10 ADD DUP6 JUMPDEST DUP3 DUP2 LT ISZERO PUSH2 0x43D0 JUMPI DUP2 MLOAD DUP5 MSTORE SWAP3 DUP5 ADD SWAP3 SWAP1 DUP5 ADD SWAP1 PUSH1 0x1 ADD PUSH2 0x43B4 JUMP JUMPDEST POP POP POP DUP5 DUP2 SUB DUP3 DUP7 ADD MSTORE DUP7 MLOAD DUP1 DUP3 MSTORE DUP8 DUP4 ADD SWAP2 DUP4 ADD SWAP1 DUP6 JUMPDEST DUP2 DUP2 LT ISZERO PUSH2 0x4421 JUMPI DUP4 MLOAD PUSH2 0x43FD DUP5 DUP3 MLOAD PUSH2 0x433F JUMP JUMPDEST DUP1 DUP7 ADD MLOAD DUP5 DUP8 ADD MSTORE PUSH1 0x40 SWAP1 DUP2 ADD MLOAD ISZERO ISZERO SWAP1 DUP5 ADD MSTORE SWAP3 DUP5 ADD SWAP3 SWAP2 DUP6 ADD SWAP2 PUSH1 0x1 ADD PUSH2 0x43E8 JUMP JUMPDEST POP POP DUP1 SWAP5 POP POP POP POP POP DUP3 PUSH1 0x40 DUP4 ADD MSTORE SWAP5 SWAP4 POP POP POP POP JUMP JUMPDEST PUSH1 0x60 DUP2 ADD PUSH2 0x4446 DUP3 DUP7 PUSH2 0x433F JUMP JUMPDEST DUP4 PUSH1 0x20 DUP4 ADD MSTORE DUP3 ISZERO ISZERO PUSH1 0x40 DUP4 ADD MSTORE SWAP5 SWAP4 POP POP POP POP JUMP JUMPDEST PUSH1 0x20 DUP2 MSTORE PUSH1 0x0 DUP3 MLOAD DUP1 PUSH1 0x20 DUP5 ADD MSTORE PUSH2 0x447B DUP2 PUSH1 0x40 DUP6 ADD PUSH1 0x20 DUP8 ADD PUSH2 0x4552 JUMP JUMPDEST PUSH1 0x1F ADD PUSH32 0xFFFFFFFFFFFFFFFFFFFFFFFFFFFFFFFFFFFFFFFFFFFFFFFFFFFFFFFFFFFFFFE0 AND SWAP2 SWAP1 SWAP2 ADD PUSH1 0x40 ADD SWAP3 SWAP2 POP POP JUMP JUMPDEST PUSH1 0x0 DUP3 NOT DUP3 GT ISZERO PUSH2 0x44C0 JUMPI PUSH2 0x44C0 PUSH2 0x45BB JUMP JUMPDEST POP ADD SWAP1 JUMP JUMPDEST PUSH1 0x0 DUP3 PUSH2 0x44F9 JUMPI PUSH32 0x4E487B7100000000000000000000000000000000000000000000000000000000 DUP2 MSTORE PUSH1 0x12 PUSH1 0x4 MSTORE PUSH1 0x24 DUP2 REVERT JUMPDEST POP DIV SWAP1 JUMP JUMPDEST PUSH1 0x0 DUP2 PUSH32 0xFFFFFFFFFFFFFFFFFFFFFFFFFFFFFFFFFFFFFFFFFFFFFFFFFFFFFFFFFFFFFFFF DIV DUP4 GT DUP3 ISZERO ISZERO AND ISZERO PUSH2 0x4536 JUMPI PUSH2 0x4536 PUSH2 0x45BB JUMP JUMPDEST POP MUL SWAP1 JUMP JUMPDEST PUSH1 0x0 DUP3 DUP3 LT ISZERO PUSH2 0x454D JUMPI PUSH2 0x454D PUSH2 0x45BB JUMP JUMPDEST POP SUB SWAP1 JUMP JUMPDEST PUSH1 0x0 JUMPDEST DUP4 DUP2 LT ISZERO PUSH2 0x456D JUMPI DUP2 DUP2 ADD MLOAD DUP4 DUP3 ADD MSTORE PUSH1 0x20 ADD PUSH2 0x4555 JUMP JUMPDEST DUP4 DUP2 GT ISZERO PUSH2 0x457C JUMPI PUSH1 0x0 DUP5 DUP5 ADD MSTORE JUMPDEST POP POP POP POP JUMP JUMPDEST PUSH1 0x0 PUSH32 0xFFFFFFFFFFFFFFFFFFFFFFFFFFFFFFFFFFFFFFFFFFFFFFFFFFFFFFFFFFFFFFFF DUP3 EQ ISZERO PUSH2 0x45B4 JUMPI PUSH2 0x45B4 PUSH2 0x45BB JUMP JUMPDEST POP PUSH1 0x1 ADD SWAP1 JUMP JUMPDEST PUSH32 0x4E487B7100000000000000000000000000000000000000000000000000000000 PUSH1 0x0 MSTORE PUSH1 0x11 PUSH1 0x4 MSTORE PUSH1 0x24 PUSH1 0x0 REVERT INVALID LOG2 PUSH5 0x6970667358 0x22 SLT KECCAK256 0xD6 0xBE 0x4D 0xCB ADDMOD PUSH10 0x19F26036A7CC661F57CB LOG4 0xAD PUSH31 0xC36364BB222E6C7FE04D3ACB7964736F6C6343000804003300000000000000 "},"methodIdentifiers":{"MAX_TREASURY_FEE()":"f2b3c809","adminAddress()":"fc6f9468","betBear(uint256)":"aa6b873a","betBull(uint256)":"57fb096f","bufferSeconds()":"eaba2361","claim(uint256[])":"6ba4c138","claimTreasury()":"003bdc74","claimable(uint256,address)":"a0c7f71c","currentEpoch()":"76671808","executeRound(int256)":"cdf09158","genesisLockOnce()":"0f74174f","genesisLockRound(int256)":"ac859a01","genesisStartOnce()":"f7fdec28","genesisStartRound()":"452fd75a","getUserRounds(address,uint256,uint256)":"951fd600","getUserRoundsLength(address)":"273867d4","intervalSeconds()":"7d1cd04f","ledger(uint256,address)":"7285c58b","minBetAmount()":"fa968eea","operatorAddress()":"127effb2","oracle()":"7dc0d1d0","oracleUpdateAllowance()":"60554011","owner()":"8da5cb5b","pause()":"8456cb59","paused()":"5c975abb","recoverToken(address,uint256)":"b29a8140","refundable(uint256,address)":"7bf41254","renounceOwnership()":"715018a6","rounds(uint256)":"8c65c81f","setAdmin(address)":"704b6c02","setBufferAndIntervalSeconds(uint256,uint256)":"890dc766","setMinBetAmount(uint256)":"6c188593","setOperator(address)":"b3ab15fb","setTreasuryFee(uint256)":"77e741c7","transferOwnership(address)":"f2fde38b","treasuryAmount()":"368acb09","treasuryFee()":"cc32d176","unpause()":"3f4ba83a","userRounds(address,uint256)":"dd1f7596"}}}}}