{
  "_format": "hh-sol-artifact-1",
  "contractName": "EthUsdPriceContract",
  "sourceName": "contracts/EthUsdPriceContract.sol",
  "abi": [
    {
      "inputs": [
        {
          "internalType": "address",
          "name": "pythContract",
          "type": "address"
        }
      ],
      "stateMutability": "nonpayable",
      "type": "constructor"
    },
    {
      "inputs": [
        {
          "internalType": "bytes[]",
          "name": "priceUpdateData",
          "type": "bytes[]"
        }
      ],
      "name": "getBtcUsdPrice",
      "outputs": [
        {
          "internalType": "int64",
          "name": "",
          "type": "int64"
        }
      ],
      "stateMutability": "payable",
      "type": "function"
    }
  ],
  "bytecode": "0x608060405234801561001057600080fd5b5060405161059138038061059183398101604081905261002f91610054565b600080546001600160a01b0319166001600160a01b0392909216919091179055610082565b600060208284031215610065578081fd5b81516001600160a01b038116811461007b578182fd5b9392505050565b610500806100916000396000f3fe60806040526004361061001e5760003560e01c8063998f621114610023575b600080fd5b610036610031366004610282565b61004d565b60405160079190910b815260200160405180910390f35b600080546040517fd47eed45000000000000000000000000000000000000000000000000000000008152829173ffffffffffffffffffffffffffffffffffffffff169063d47eed45906100a690879087906004016103f7565b60206040518083038186803b1580156100be57600080fd5b505afa1580156100d2573d6000803e3d6000fd5b505050506040513d601f19601f820116820180604052508101906100f69190610397565b6000546040517fef9e5e2800000000000000000000000000000000000000000000000000000000815291925073ffffffffffffffffffffffffffffffffffffffff169063ef9e5e2890839061015190889088906004016103f7565b6000604051808303818588803b15801561016a57600080fd5b505af115801561017e573d6000803e3d6000fd5b5050600080546040517f31d98b3f0000000000000000000000000000000000000000000000000000000081527fca80ba6dc32e08d06f1aa886011eed1d77c77be9eb761cc10d72b7d0a2fd57a660048201819052955091935073ffffffffffffffffffffffffffffffffffffffff1691506331d98b3f9060240160806040518083038186803b15801561021057600080fd5b505afa158015610224573d6000803e3d6000fd5b505050506040513d601f19601f8201168201806040525081019061024891906102f2565b519695505050505050565b8051600381900b811461026557600080fd5b919050565b805167ffffffffffffffff8116811461026557600080fd5b60008060208385031215610294578182fd5b823567ffffffffffffffff808211156102ab578384fd5b818501915085601f8301126102be578384fd5b8135818111156102cc578485fd5b8660208260051b85010111156102e0578485fd5b60209290920196919550909350505050565b600060808284031215610303578081fd5b6040516080810181811067ffffffffffffffff8211171561034b577f4e487b710000000000000000000000000000000000000000000000000000000083526041600452602483fd5b6040528251600781900b811461035f578283fd5b815261036d6020840161026a565b602082015261037e60408401610253565b6040820152606083015160608201528091505092915050565b6000602082840312156103a8578081fd5b5051919050565b81835281816020850137506000806020838501015260207fffffffffffffffffffffffffffffffffffffffffffffffffffffffffffffffe0601f840116840101905092915050565b60208082528181018390526000906040600585901b8401810190840186845b878110156104bd577fffffffffffffffffffffffffffffffffffffffffffffffffffffffffffffffc087850301835281357fffffffffffffffffffffffffffffffffffffffffffffffffffffffffffffffe18a3603018112610476578687fd5b8901803567ffffffffffffffff81111561048e578788fd5b8036038b131561049c578788fd5b6104a986828985016103af565b955050509184019190840190600101610416565b509197965050505050505056fea26469706673582212207343c56ee1f86b73cebf81bc1ba9a88ef5c2e81a933edb5fb69789b14a5420df64736f6c63430008040033",
  "linkReferences": {},
  "deployedLinkReferences": {}
}