{
  "_format": "hh-sol-artifact-1",
  "contractName": "PancakePredictionV2",
  "sourceName": "contracts/PancakePredictionV2.sol",
  "abi": [
    {
      "inputs": [
        {
          "internalType": "address",
          "name": "_adminAddress",
          "type": "address"
        },
        {
          "internalType": "address",
          "name": "_operatorAddress",
          "type": "address"
        },
        {
          "internalType": "uint256",
          "name": "_intervalSeconds",
          "type": "uint256"
        },
        {
          "internalType": "uint256",
          "name": "_bufferSeconds",
          "type": "uint256"
        },
        {
          "internalType": "uint256",
          "name": "_minBetAmount",
          "type": "uint256"
        },
        {
          "internalType": "uint256",
          "name": "_treasuryFee",
          "type": "uint256"
        }
      ],
      "stateMutability": "nonpayable",
      "type": "constructor"
    },
    {
      "anonymous": false,
      "inputs": [
        {
          "indexed": true,
          "internalType": "address",
          "name": "sender",
          "type": "address"
        },
        {
          "indexed": true,
          "internalType": "uint256",
          "name": "epoch",
          "type": "uint256"
        },
        {
          "indexed": false,
          "internalType": "uint256",
          "name": "amount",
          "type": "uint256"
        }
      ],
      "name": "BetBear",
      "type": "event"
    },
    {
      "anonymous": false,
      "inputs": [
        {
          "indexed": true,
          "internalType": "address",
          "name": "sender",
          "type": "address"
        },
        {
          "indexed": true,
          "internalType": "uint256",
          "name": "epoch",
          "type": "uint256"
        },
        {
          "indexed": false,
          "internalType": "uint256",
          "name": "amount",
          "type": "uint256"
        }
      ],
      "name": "BetBull",
      "type": "event"
    },
    {
      "anonymous": false,
      "inputs": [
        {
          "indexed": true,
          "internalType": "address",
          "name": "sender",
          "type": "address"
        },
        {
          "indexed": true,
          "internalType": "uint256",
          "name": "epoch",
          "type": "uint256"
        },
        {
          "indexed": false,
          "internalType": "uint256",
          "name": "amount",
          "type": "uint256"
        }
      ],
      "name": "Claim",
      "type": "event"
    },
    {
      "anonymous": false,
      "inputs": [
        {
          "indexed": true,
          "internalType": "uint256",
          "name": "epoch",
          "type": "uint256"
        },
        {
          "indexed": false,
          "internalType": "int256",
          "name": "price",
          "type": "int256"
        }
      ],
      "name": "EndRound",
      "type": "event"
    },
    {
      "anonymous": false,
      "inputs": [
        {
          "indexed": true,
          "internalType": "uint256",
          "name": "epoch",
          "type": "uint256"
        },
        {
          "indexed": false,
          "internalType": "int256",
          "name": "price",
          "type": "int256"
        }
      ],
      "name": "LockRound",
      "type": "event"
    },
    {
      "anonymous": false,
      "inputs": [
        {
          "indexed": false,
          "internalType": "address",
          "name": "admin",
          "type": "address"
        }
      ],
      "name": "NewAdminAddress",
      "type": "event"
    },
    {
      "anonymous": false,
      "inputs": [
        {
          "indexed": false,
          "internalType": "uint256",
          "name": "bufferSeconds",
          "type": "uint256"
        },
        {
          "indexed": false,
          "internalType": "uint256",
          "name": "intervalSeconds",
          "type": "uint256"
        }
      ],
      "name": "NewBufferAndIntervalSeconds",
      "type": "event"
    },
    {
      "anonymous": false,
      "inputs": [
        {
          "indexed": true,
          "internalType": "uint256",
          "name": "epoch",
          "type": "uint256"
        },
        {
          "indexed": false,
          "internalType": "uint256",
          "name": "minBetAmount",
          "type": "uint256"
        }
      ],
      "name": "NewMinBetAmount",
      "type": "event"
    },
    {
      "anonymous": false,
      "inputs": [
        {
          "indexed": false,
          "internalType": "address",
          "name": "operator",
          "type": "address"
        }
      ],
      "name": "NewOperatorAddress",
      "type": "event"
    },
    {
      "anonymous": false,
      "inputs": [
        {
          "indexed": true,
          "internalType": "uint256",
          "name": "epoch",
          "type": "uint256"
        },
        {
          "indexed": false,
          "internalType": "uint256",
          "name": "treasuryFee",
          "type": "uint256"
        }
      ],
      "name": "NewTreasuryFee",
      "type": "event"
    },
    {
      "anonymous": false,
      "inputs": [
        {
          "indexed": true,
          "internalType": "address",
          "name": "previousOwner",
          "type": "address"
        },
        {
          "indexed": true,
          "internalType": "address",
          "name": "newOwner",
          "type": "address"
        }
      ],
      "name": "OwnershipTransferred",
      "type": "event"
    },
    {
      "anonymous": false,
      "inputs": [
        {
          "indexed": true,
          "internalType": "uint256",
          "name": "epoch",
          "type": "uint256"
        }
      ],
      "name": "Pause",
      "type": "event"
    },
    {
      "anonymous": false,
      "inputs": [
        {
          "indexed": false,
          "internalType": "address",
          "name": "account",
          "type": "address"
        }
      ],
      "name": "Paused",
      "type": "event"
    },
    {
      "anonymous": false,
      "inputs": [
        {
          "indexed": true,
          "internalType": "uint256",
          "name": "epoch",
          "type": "uint256"
        },
        {
          "indexed": false,
          "internalType": "uint256",
          "name": "rewardBaseCalAmount",
          "type": "uint256"
        },
        {
          "indexed": false,
          "internalType": "uint256",
          "name": "rewardAmount",
          "type": "uint256"
        },
        {
          "indexed": false,
          "internalType": "uint256",
          "name": "treasuryAmount",
          "type": "uint256"
        }
      ],
      "name": "RewardsCalculated",
      "type": "event"
    },
    {
      "anonymous": false,
      "inputs": [
        {
          "indexed": true,
          "internalType": "uint256",
          "name": "epoch",
          "type": "uint256"
        }
      ],
      "name": "StartRound",
      "type": "event"
    },
    {
      "anonymous": false,
      "inputs": [
        {
          "indexed": true,
          "internalType": "address",
          "name": "token",
          "type": "address"
        },
        {
          "indexed": false,
          "internalType": "uint256",
          "name": "amount",
          "type": "uint256"
        }
      ],
      "name": "TokenRecovery",
      "type": "event"
    },
    {
      "anonymous": false,
      "inputs": [
        {
          "indexed": false,
          "internalType": "uint256",
          "name": "amount",
          "type": "uint256"
        }
      ],
      "name": "TreasuryClaim",
      "type": "event"
    },
    {
      "anonymous": false,
      "inputs": [
        {
          "indexed": true,
          "internalType": "uint256",
          "name": "epoch",
          "type": "uint256"
        }
      ],
      "name": "Unpause",
      "type": "event"
    },
    {
      "anonymous": false,
      "inputs": [
        {
          "indexed": false,
          "internalType": "address",
          "name": "account",
          "type": "address"
        }
      ],
      "name": "Unpaused",
      "type": "event"
    },
    {
      "anonymous": false,
      "inputs": [
        {
          "indexed": true,
          "internalType": "uint256",
          "name": "epoch",
          "type": "uint256"
        }
      ],
      "name": "epochUpdate",
      "type": "event"
    },
    {
      "inputs": [],
      "name": "MAX_TREASURY_FEE",
      "outputs": [
        {
          "internalType": "uint256",
          "name": "",
          "type": "uint256"
        }
      ],
      "stateMutability": "view",
      "type": "function"
    },
    {
      "inputs": [],
      "name": "adminAddress",
      "outputs": [
        {
          "internalType": "address",
          "name": "",
          "type": "address"
        }
      ],
      "stateMutability": "view",
      "type": "function"
    },
    {
      "inputs": [
        {
          "internalType": "uint256",
          "name": "epoch",
          "type": "uint256"
        }
      ],
      "name": "betBear",
      "outputs": [],
      "stateMutability": "payable",
      "type": "function"
    },
    {
      "inputs": [
        {
          "internalType": "uint256",
          "name": "epoch",
          "type": "uint256"
        }
      ],
      "name": "betBull",
      "outputs": [],
      "stateMutability": "payable",
      "type": "function"
    },
    {
      "inputs": [],
      "name": "bufferSeconds",
      "outputs": [
        {
          "internalType": "uint256",
          "name": "",
          "type": "uint256"
        }
      ],
      "stateMutability": "view",
      "type": "function"
    },
    {
      "inputs": [
        {
          "internalType": "uint256[]",
          "name": "epochs",
          "type": "uint256[]"
        }
      ],
      "name": "claim",
      "outputs": [],
      "stateMutability": "nonpayable",
      "type": "function"
    },
    {
      "inputs": [],
      "name": "claimTreasury",
      "outputs": [],
      "stateMutability": "nonpayable",
      "type": "function"
    },
    {
      "inputs": [
        {
          "internalType": "uint256",
          "name": "epoch",
          "type": "uint256"
        },
        {
          "internalType": "address",
          "name": "user",
          "type": "address"
        }
      ],
      "name": "claimable",
      "outputs": [
        {
          "internalType": "bool",
          "name": "",
          "type": "bool"
        }
      ],
      "stateMutability": "view",
      "type": "function"
    },
    {
      "inputs": [],
      "name": "currentEpoch",
      "outputs": [
        {
          "internalType": "uint256",
          "name": "",
          "type": "uint256"
        }
      ],
      "stateMutability": "view",
      "type": "function"
    },
    {
      "inputs": [
        {
          "internalType": "int256",
          "name": "price",
          "type": "int256"
        }
      ],
      "name": "executeRound",
      "outputs": [],
      "stateMutability": "nonpayable",
      "type": "function"
    },
    {
      "inputs": [],
      "name": "genesisLockOnce",
      "outputs": [
        {
          "internalType": "bool",
          "name": "",
          "type": "bool"
        }
      ],
      "stateMutability": "view",
      "type": "function"
    },
    {
      "inputs": [
        {
          "internalType": "int256",
          "name": "price",
          "type": "int256"
        }
      ],
      "name": "genesisLockRound",
      "outputs": [],
      "stateMutability": "nonpayable",
      "type": "function"
    },
    {
      "inputs": [],
      "name": "genesisStartOnce",
      "outputs": [
        {
          "internalType": "bool",
          "name": "",
          "type": "bool"
        }
      ],
      "stateMutability": "view",
      "type": "function"
    },
    {
      "inputs": [],
      "name": "genesisStartRound",
      "outputs": [],
      "stateMutability": "nonpayable",
      "type": "function"
    },
    {
      "inputs": [
        {
          "internalType": "address",
          "name": "user",
          "type": "address"
        },
        {
          "internalType": "uint256",
          "name": "cursor",
          "type": "uint256"
        },
        {
          "internalType": "uint256",
          "name": "size",
          "type": "uint256"
        }
      ],
      "name": "getUserRounds",
      "outputs": [
        {
          "internalType": "uint256[]",
          "name": "",
          "type": "uint256[]"
        },
        {
          "components": [
            {
              "internalType": "enum PancakePredictionV2.Position",
              "name": "position",
              "type": "uint8"
            },
            {
              "internalType": "uint256",
              "name": "amount",
              "type": "uint256"
            },
            {
              "internalType": "bool",
              "name": "claimed",
              "type": "bool"
            }
          ],
          "internalType": "struct PancakePredictionV2.BetInfo[]",
          "name": "",
          "type": "tuple[]"
        },
        {
          "internalType": "uint256",
          "name": "",
          "type": "uint256"
        }
      ],
      "stateMutability": "view",
      "type": "function"
    },
    {
      "inputs": [
        {
          "internalType": "address",
          "name": "user",
          "type": "address"
        }
      ],
      "name": "getUserRoundsLength",
      "outputs": [
        {
          "internalType": "uint256",
          "name": "",
          "type": "uint256"
        }
      ],
      "stateMutability": "view",
      "type": "function"
    },
    {
      "inputs": [],
      "name": "intervalSeconds",
      "outputs": [
        {
          "internalType": "uint256",
          "name": "",
          "type": "uint256"
        }
      ],
      "stateMutability": "view",
      "type": "function"
    },
    {
      "inputs": [
        {
          "internalType": "uint256",
          "name": "",
          "type": "uint256"
        },
        {
          "internalType": "address",
          "name": "",
          "type": "address"
        }
      ],
      "name": "ledger",
      "outputs": [
        {
          "internalType": "enum PancakePredictionV2.Position",
          "name": "position",
          "type": "uint8"
        },
        {
          "internalType": "uint256",
          "name": "amount",
          "type": "uint256"
        },
        {
          "internalType": "bool",
          "name": "claimed",
          "type": "bool"
        }
      ],
      "stateMutability": "view",
      "type": "function"
    },
    {
      "inputs": [],
      "name": "minBetAmount",
      "outputs": [
        {
          "internalType": "uint256",
          "name": "",
          "type": "uint256"
        }
      ],
      "stateMutability": "view",
      "type": "function"
    },
    {
      "inputs": [],
      "name": "operatorAddress",
      "outputs": [
        {
          "internalType": "address",
          "name": "",
          "type": "address"
        }
      ],
      "stateMutability": "view",
      "type": "function"
    },
    {
      "inputs": [],
      "name": "oracle",
      "outputs": [
        {
          "internalType": "contract AggregatorV3Interface",
          "name": "",
          "type": "address"
        }
      ],
      "stateMutability": "view",
      "type": "function"
    },
    {
      "inputs": [],
      "name": "oracleUpdateAllowance",
      "outputs": [
        {
          "internalType": "uint256",
          "name": "",
          "type": "uint256"
        }
      ],
      "stateMutability": "view",
      "type": "function"
    },
    {
      "inputs": [],
      "name": "owner",
      "outputs": [
        {
          "internalType": "address",
          "name": "",
          "type": "address"
        }
      ],
      "stateMutability": "view",
      "type": "function"
    },
    {
      "inputs": [],
      "name": "pause",
      "outputs": [],
      "stateMutability": "nonpayable",
      "type": "function"
    },
    {
      "inputs": [],
      "name": "paused",
      "outputs": [
        {
          "internalType": "bool",
          "name": "",
          "type": "bool"
        }
      ],
      "stateMutability": "view",
      "type": "function"
    },
    {
      "inputs": [
        {
          "internalType": "address",
          "name": "_token",
          "type": "address"
        },
        {
          "internalType": "uint256",
          "name": "_amount",
          "type": "uint256"
        }
      ],
      "name": "recoverToken",
      "outputs": [],
      "stateMutability": "nonpayable",
      "type": "function"
    },
    {
      "inputs": [
        {
          "internalType": "uint256",
          "name": "epoch",
          "type": "uint256"
        },
        {
          "internalType": "address",
          "name": "user",
          "type": "address"
        }
      ],
      "name": "refundable",
      "outputs": [
        {
          "internalType": "bool",
          "name": "",
          "type": "bool"
        }
      ],
      "stateMutability": "view",
      "type": "function"
    },
    {
      "inputs": [],
      "name": "renounceOwnership",
      "outputs": [],
      "stateMutability": "nonpayable",
      "type": "function"
    },
    {
      "inputs": [
        {
          "internalType": "uint256",
          "name": "",
          "type": "uint256"
        }
      ],
      "name": "rounds",
      "outputs": [
        {
          "internalType": "uint256",
          "name": "epoch",
          "type": "uint256"
        },
        {
          "internalType": "uint256",
          "name": "startTimestamp",
          "type": "uint256"
        },
        {
          "internalType": "uint256",
          "name": "lockTimestamp",
          "type": "uint256"
        },
        {
          "internalType": "uint256",
          "name": "closeTimestamp",
          "type": "uint256"
        },
        {
          "internalType": "int256",
          "name": "lockPrice",
          "type": "int256"
        },
        {
          "internalType": "int256",
          "name": "closePrice",
          "type": "int256"
        },
        {
          "internalType": "uint256",
          "name": "totalAmount",
          "type": "uint256"
        },
        {
          "internalType": "uint256",
          "name": "bullAmount",
          "type": "uint256"
        },
        {
          "internalType": "uint256",
          "name": "bearAmount",
          "type": "uint256"
        },
        {
          "internalType": "uint256",
          "name": "rewardBaseCalAmount",
          "type": "uint256"
        },
        {
          "internalType": "uint256",
          "name": "rewardAmount",
          "type": "uint256"
        },
        {
          "internalType": "bool",
          "name": "oracleCalled",
          "type": "bool"
        }
      ],
      "stateMutability": "view",
      "type": "function"
    },
    {
      "inputs": [
        {
          "internalType": "address",
          "name": "_adminAddress",
          "type": "address"
        }
      ],
      "name": "setAdmin",
      "outputs": [],
      "stateMutability": "nonpayable",
      "type": "function"
    },
    {
      "inputs": [
        {
          "internalType": "uint256",
          "name": "_bufferSeconds",
          "type": "uint256"
        },
        {
          "internalType": "uint256",
          "name": "_intervalSeconds",
          "type": "uint256"
        }
      ],
      "name": "setBufferAndIntervalSeconds",
      "outputs": [],
      "stateMutability": "nonpayable",
      "type": "function"
    },
    {
      "inputs": [
        {
          "internalType": "uint256",
          "name": "_minBetAmount",
          "type": "uint256"
        }
      ],
      "name": "setMinBetAmount",
      "outputs": [],
      "stateMutability": "nonpayable",
      "type": "function"
    },
    {
      "inputs": [
        {
          "internalType": "address",
          "name": "_operatorAddress",
          "type": "address"
        }
      ],
      "name": "setOperator",
      "outputs": [],
      "stateMutability": "nonpayable",
      "type": "function"
    },
    {
      "inputs": [
        {
          "internalType": "uint256",
          "name": "_treasuryFee",
          "type": "uint256"
        }
      ],
      "name": "setTreasuryFee",
      "outputs": [],
      "stateMutability": "nonpayable",
      "type": "function"
    },
    {
      "inputs": [
        {
          "internalType": "address",
          "name": "newOwner",
          "type": "address"
        }
      ],
      "name": "transferOwnership",
      "outputs": [],
      "stateMutability": "nonpayable",
      "type": "function"
    },
    {
      "inputs": [],
      "name": "treasuryAmount",
      "outputs": [
        {
          "internalType": "uint256",
          "name": "",
          "type": "uint256"
        }
      ],
      "stateMutability": "view",
      "type": "function"
    },
    {
      "inputs": [],
      "name": "treasuryFee",
      "outputs": [
        {
          "internalType": "uint256",
          "name": "",
          "type": "uint256"
        }
      ],
      "stateMutability": "view",
      "type": "function"
    },
    {
      "inputs": [],
      "name": "unpause",
      "outputs": [],
      "stateMutability": "nonpayable",
      "type": "function"
    },
    {
      "inputs": [
        {
          "internalType": "address",
          "name": "",
          "type": "address"
        },
        {
          "internalType": "uint256",
          "name": "",
          "type": "uint256"
        }
      ],
      "name": "userRounds",
      "outputs": [
        {
          "internalType": "uint256",
          "name": "",
          "type": "uint256"
        }
      ],
      "stateMutability": "view",
      "type": "function"
    }
  ],
  "bytecode": "0x60806040526002805461ffff60a01b191690553480156200001f57600080fd5b50604051620047f6380380620047f683398101604081905262000042916200016a565b6200004d33620000fd565b6000805460ff60a01b19169055600180556103e8811115620000b55760405162461bcd60e51b815260206004820152601560248201527f54726561737572792066656520746f6f20686967680000000000000000000000604482015260640160405180910390fd5b600380546001600160a01b039788166001600160a01b0319918216179091556004805496909716951694909417909455600691909155600555600791909155600855620001c6565b600080546001600160a01b038381166001600160a01b0319831681178455604051919092169283917f8be0079c531659141344cd1fd0a4f28419497f9722a3daafe3b4186f6b6457e09190a35050565b80516001600160a01b03811681146200016557600080fd5b919050565b60008060008060008060c0878903121562000183578182fd5b6200018e876200014d565b95506200019e602088016200014d565b945060408701519350606087015192506080870151915060a087015190509295509295509295565b61462080620001d66000396000f3fe60806040526004361061029f5760003560e01c80637dc0d1d01161016e578063b3ab15fb116100cb578063f2b3c8091161007f578063f7fdec2811610064578063f7fdec2814610843578063fa968eea14610876578063fc6f94681461088c57600080fd5b8063f2b3c8091461080d578063f2fde38b1461082357600080fd5b8063cdf09158116100b0578063cdf09158146107b7578063dd1f7596146107d7578063eaba2361146107f757600080fd5b8063b3ab15fb14610781578063cc32d176146107a157600080fd5b8063951fd60011610122578063aa6b873a11610107578063aa6b873a1461072e578063ac859a0114610741578063b29a81401461076157600080fd5b8063951fd600146106df578063a0c7f71c1461070e57600080fd5b8063890dc76611610153578063890dc766146105bc5780638c65c81f146105dc5780638da5cb5b146106b457600080fd5b80637dc0d1d01461057a5780638456cb59146105a757600080fd5b8063605540111161021c5780637285c58b116101d057806377e741c7116101b557806377e741c7146105245780637bf41254146105445780637d1cd04f1461056457600080fd5b80637285c58b146104b3578063766718081461050e57600080fd5b80636c188593116102015780636c1885931461045e578063704b6c021461047e578063715018a61461049e57600080fd5b806360554011146104285780636ba4c1381461043e57600080fd5b8063368acb0911610273578063452fd75a11610258578063452fd75a146103d057806357fb096f146103e55780635c975abb146103f857600080fd5b8063368acb09146103a55780633f4ba83a146103bb57600080fd5b80623bdc74146102a45780630f74174f146102bb578063127effb214610302578063273867d414610354575b600080fd5b3480156102b057600080fd5b506102b96108b9565b005b3480156102c757600080fd5b506002546102ed9074010000000000000000000000000000000000000000900460ff1681565b60405190151581526020015b60405180910390f35b34801561030e57600080fd5b5060045461032f9073ffffffffffffffffffffffffffffffffffffffff1681565b60405173ffffffffffffffffffffffffffffffffffffffff90911681526020016102f9565b34801561036057600080fd5b5061039761036f3660046141cf565b73ffffffffffffffffffffffffffffffffffffffff166000908152600e602052604090205490565b6040519081526020016102f9565b3480156103b157600080fd5b5061039760095481565b3480156103c757600080fd5b506102b96109b2565b3480156103dc57600080fd5b506102b9610a99565b6102b96103f33660046142db565b610c58565b34801561040457600080fd5b5060005474010000000000000000000000000000000000000000900460ff166102ed565b34801561043457600080fd5b50610397600b5481565b34801561044a57600080fd5b506102b961045936600461424b565b61100a565b34801561046a57600080fd5b506102b96104793660046142db565b6117c4565b34801561048a57600080fd5b506102b96104993660046141cf565b6118f3565b3480156104aa57600080fd5b506102b96119f2565b3480156104bf57600080fd5b506104ff6104ce3660046142f3565b600c60209081526000928352604080842090915290825290208054600182015460029092015460ff91821692911683565b6040516102f993929190614438565b34801561051a57600080fd5b50610397600a5481565b34801561053057600080fd5b506102b961053f3660046142db565b611a04565b34801561055057600080fd5b506102ed61055f3660046142f3565b611b31565b34801561057057600080fd5b5061039760065481565b34801561058657600080fd5b5060025461032f9073ffffffffffffffffffffffffffffffffffffffff1681565b3480156105b357600080fd5b506102b9611ce6565b3480156105c857600080fd5b506102b96105d736600461431e565b611dc7565b3480156105e857600080fd5b506106596105f73660046142db565b600d60205260009081526040902080546001820154600283015460038401546004850154600586015460068701546007880154600889015460098a0154600a8b0154600b909b0154999a98999798969795969495939492939192909160ff168c565b604080519c8d5260208d019b909b52998b019890985260608a0196909652608089019490945260a088019290925260c087015260e08601526101008501526101208401526101408301521515610160820152610180016102f9565b3480156106c057600080fd5b5060005473ffffffffffffffffffffffffffffffffffffffff1661032f565b3480156106eb57600080fd5b506106ff6106fa366004614219565b611f26565b6040516102f993929190614396565b34801561071a57600080fd5b506102ed6107293660046142f3565b612307565b6102b961073c3660046142db565b612562565b34801561074d57600080fd5b506102b961075c3660046142db565b612904565b34801561076d57600080fd5b506102b961077c3660046141f0565b612b7d565b34801561078d57600080fd5b506102b961079c3660046141cf565b612bfa565b3480156107ad57600080fd5b5061039760085481565b3480156107c357600080fd5b506102b96107d23660046142db565b612d6b565b3480156107e357600080fd5b506103976107f23660046141f0565b612f75565b34801561080357600080fd5b5061039760055481565b34801561081957600080fd5b506103976103e881565b34801561082f57600080fd5b506102b961083e3660046141cf565b612fa6565b34801561084f57600080fd5b506002546102ed907501000000000000000000000000000000000000000000900460ff1681565b34801561088257600080fd5b5061039760075481565b34801561089857600080fd5b5060035461032f9073ffffffffffffffffffffffffffffffffffffffff1681565b6108c161305a565b60035473ffffffffffffffffffffffffffffffffffffffff163314610947576040517f08c379a000000000000000000000000000000000000000000000000000000000815260206004820152600960248201527f4e6f742061646d696e000000000000000000000000000000000000000000000060448201526064015b60405180910390fd5b6009805460009091556003546109739073ffffffffffffffffffffffffffffffffffffffff16826130ce565b6040518181527fb9197c6b8e21274bd1e2d9c956a88af5cfee510f630fab3f046300f88b4223619060200160405180910390a1506109b060018055565b565b6109ba6131c3565b60035473ffffffffffffffffffffffffffffffffffffffff163314610a3b576040517f08c379a000000000000000000000000000000000000000000000000000000000815260206004820152600960248201527f4e6f742061646d696e0000000000000000000000000000000000000000000000604482015260640161093e565b600280547fffffffffffffffffffff0000ffffffffffffffffffffffffffffffffffffffff169055610a6b613247565b600a546040517faaa520fdd7d2c83061d632fa017b0432407e798818af63ea908589fceda39ab790600090a2565b610aa16132c4565b60045473ffffffffffffffffffffffffffffffffffffffff163314610b22576040517f08c379a000000000000000000000000000000000000000000000000000000000815260206004820152600c60248201527f4e6f74206f70657261746f720000000000000000000000000000000000000000604482015260640161093e565b6002547501000000000000000000000000000000000000000000900460ff1615610bce576040517f08c379a000000000000000000000000000000000000000000000000000000000815260206004820152602360248201527f43616e206f6e6c792072756e2067656e657369735374617274526f756e64206f60448201527f6e63650000000000000000000000000000000000000000000000000000000000606482015260840161093e565b600a54610bdc9060016144ad565b600a819055610bea90613349565b600280547fffffffffffffffffffff00ffffffffffffffffffffffffffffffffffffffffff167501000000000000000000000000000000000000000000179055600a546040517f72bd5c94e7723e61342608a0506d9111bc8964a94c3ad7e630735a51cc40bfe190600090a2565b610c606132c4565b610c6861305a565b333b15610cd1576040517f08c379a000000000000000000000000000000000000000000000000000000000815260206004820152601460248201527f436f6e7472616374206e6f7420616c6c6f776564000000000000000000000000604482015260640161093e565b333214610d3a576040517f08c379a000000000000000000000000000000000000000000000000000000000815260206004820152601a60248201527f50726f787920636f6e7472616374206e6f7420616c6c6f776564000000000000604482015260640161093e565b600a548114610da5576040517f08c379a000000000000000000000000000000000000000000000000000000000815260206004820152601560248201527f42657420697320746f6f206561726c792f6c6174650000000000000000000000604482015260640161093e565b610dae816133c7565b610e14576040517f08c379a000000000000000000000000000000000000000000000000000000000815260206004820152601260248201527f526f756e64206e6f74206265747461626c650000000000000000000000000000604482015260640161093e565b600754341015610ea6576040517f08c379a000000000000000000000000000000000000000000000000000000000815260206004820152602c60248201527f42657420616d6f756e74206d7573742062652067726561746572207468616e2060448201527f6d696e426574416d6f756e740000000000000000000000000000000000000000606482015260840161093e565b6000818152600c6020908152604080832033845290915290206001015415610f2a576040517f08c379a000000000000000000000000000000000000000000000000000000000815260206004820152601b60248201527f43616e206f6e6c7920626574206f6e63652070657220726f756e640000000000604482015260640161093e565b6000818152600d602052604090206006810154349190610f4b9083906144ad565b60068201556007810154610f609083906144ad565b60078201556000838152600c602090815260408083203380855290835281842080547fffffffffffffffffffffffffffffffffffffffffffffffffffffffffffffff001681556001808201889055600e855283862080549182018155865294849020909401879055905185815286927f438122d8cff518d18388099a5181f0d17a12b4f1b55faedf6e4a6acee0060c1291015b60405180910390a350505061100760018055565b50565b61101261305a565b333b1561107b576040517f08c379a000000000000000000000000000000000000000000000000000000000815260206004820152601460248201527f436f6e7472616374206e6f7420616c6c6f776564000000000000000000000000604482015260640161093e565b3332146110e4576040517f08c379a000000000000000000000000000000000000000000000000000000000815260206004820152601a60248201527f50726f787920636f6e7472616374206e6f7420616c6c6f776564000000000000604482015260640161093e565b6000805b828110156117a557600d600085858481811061112d577f4e487b7100000000000000000000000000000000000000000000000000000000600052603260045260246000fd5b90506020020135815260200190815260200160002060010154600014156111b0576040517f08c379a000000000000000000000000000000000000000000000000000000000815260206004820152601560248201527f526f756e6420686173206e6f7420737461727465640000000000000000000000604482015260640161093e565b600d60008585848181106111ed577f4e487b7100000000000000000000000000000000000000000000000000000000600052603260045260246000fd5b90506020020135815260200190815260200160002060030154421161126e576040517f08c379a000000000000000000000000000000000000000000000000000000000815260206004820152601360248201527f526f756e6420686173206e6f7420656e64656400000000000000000000000000604482015260640161093e565b6000600d60008686858181106112ad577f4e487b7100000000000000000000000000000000000000000000000000000000600052603260045260246000fd5b60209081029290920135835250810191909152604001600020600b015460ff161561151c5761131b85858481811061130e577f4e487b7100000000000000000000000000000000000000000000000000000000600052603260045260246000fd5b9050602002013533612307565b611381576040517f08c379a000000000000000000000000000000000000000000000000000000000815260206004820152601660248201527f4e6f7420656c696769626c6520666f7220636c61696d00000000000000000000604482015260640161093e565b6000600d60008787868181106113c0577f4e487b7100000000000000000000000000000000000000000000000000000000600052603260045260246000fd5b602090810292909201358352508181019290925260409081016000908120825161018081018452815481526001820154948101949094526002810154928401929092526003820154606084015260048201546080840152600582015460a0840152600682015460c0840152600782015460e0840152600882015461010084015260098201546101208401819052600a8301546101408501819052600b9093015460ff161515610160850152929350600c908989888181106114aa577f4e487b7100000000000000000000000000000000000000000000000000000000600052603260045260246000fd5b90506020020135815260200190815260200160002060003373ffffffffffffffffffffffffffffffffffffffff1673ffffffffffffffffffffffffffffffffffffffff1681526020019081526020016000206001015461150a91906144fe565b61151491906144c5565b915050611661565b611565858584818110611558577f4e487b7100000000000000000000000000000000000000000000000000000000600052603260045260246000fd5b9050602002013533611b31565b6115cb576040517f08c379a000000000000000000000000000000000000000000000000000000000815260206004820152601760248201527f4e6f7420656c696769626c6520666f7220726566756e64000000000000000000604482015260640161093e565b600c6000868685818110611608577f4e487b7100000000000000000000000000000000000000000000000000000000600052603260045260246000fd5b90506020020135815260200190815260200160002060003373ffffffffffffffffffffffffffffffffffffffff1673ffffffffffffffffffffffffffffffffffffffff1681526020019081526020016000206001015490505b6001600c60008787868181106116a0577f4e487b7100000000000000000000000000000000000000000000000000000000600052603260045260246000fd5b602090810292909201358352508181019290925260409081016000908120338252909252902060020180547fffffffffffffffffffffffffffffffffffffffffffffffffffffffffffffff001691151591909117905561170081846144ad565b925084848381811061173b577f4e487b7100000000000000000000000000000000000000000000000000000000600052603260045260246000fd5b905060200201353373ffffffffffffffffffffffffffffffffffffffff167f34fcbac0073d7c3d388e51312faf357774904998eeb8fca628b9e6f65ee1cbf78360405161178a91815260200190565b60405180910390a3508061179d81614582565b9150506110e8565b5080156117b6576117b633826130ce565b506117c060018055565b5050565b6117cc6131c3565b60035473ffffffffffffffffffffffffffffffffffffffff16331461184d576040517f08c379a000000000000000000000000000000000000000000000000000000000815260206004820152600960248201527f4e6f742061646d696e0000000000000000000000000000000000000000000000604482015260640161093e565b806118b4576040517f08c379a000000000000000000000000000000000000000000000000000000000815260206004820152601560248201527f4d757374206265207375706572696f7220746f20300000000000000000000000604482015260640161093e565b6007819055600a546040518281527f90eb87c560a0213754ceb3a7fa3012f01acab0a35602c1e1995adf69dabc9d50906020015b60405180910390a250565b6118fb613432565b73ffffffffffffffffffffffffffffffffffffffff8116611978576040517f08c379a000000000000000000000000000000000000000000000000000000000815260206004820152601660248201527f43616e6e6f74206265207a65726f206164647265737300000000000000000000604482015260640161093e565b600380547fffffffffffffffffffffffff00000000000000000000000000000000000000001673ffffffffffffffffffffffffffffffffffffffff83169081179091556040519081527f137b621413925496477d46e5055ac0d56178bdd724ba8bf843afceef18268ba3906020015b60405180910390a150565b6119fa613432565b6109b060006134b3565b611a0c6131c3565b60035473ffffffffffffffffffffffffffffffffffffffff163314611a8d576040517f08c379a000000000000000000000000000000000000000000000000000000000815260206004820152600960248201527f4e6f742061646d696e0000000000000000000000000000000000000000000000604482015260640161093e565b6103e8811115611af9576040517f08c379a000000000000000000000000000000000000000000000000000000000815260206004820152601560248201527f54726561737572792066656520746f6f20686967680000000000000000000000604482015260640161093e565b6008819055600a546040518281527fb1c4ee38d35556741133da7ff9b6f7ab0fa88d0406133126ff128f635490a857906020016118e8565b6000828152600c6020908152604080832073ffffffffffffffffffffffffffffffffffffffff85168452909152808220815160608101909252805483929190829060ff166001811115611bad577f4e487b7100000000000000000000000000000000000000000000000000000000600052602160045260246000fd5b6001811115611be5577f4e487b7100000000000000000000000000000000000000000000000000000000600052602160045260246000fd5b815260018281015460208084019190915260029384015460ff908116151560409485015260008a8152600d835284902084516101808101865281548152938101549284019290925293810154928201929092526003820154606082015260048201546080820152600582015460a0820152600682015460c0820152600782015460e082015260088201546101008201526009820154610120820152600a820154610140820152600b9091015490911615801561016083018190529293509091611cb057508160400151155b8015611ccc57506005548160600151611cc991906144ad565b42115b8015611cdb5750602082015115155b925050505b92915050565b611cee6132c4565b60035473ffffffffffffffffffffffffffffffffffffffff16331480611d2b575060045473ffffffffffffffffffffffffffffffffffffffff1633145b611d91576040517f08c379a000000000000000000000000000000000000000000000000000000000815260206004820152601260248201527f4e6f74206f70657261746f722f61646d696e0000000000000000000000000000604482015260640161093e565b611d99613528565b600a546040517f68b095021b1f40fe513109f513c66692f0b3219aee674a69f4efc57badb8201d90600090a2565b611dcf6131c3565b60035473ffffffffffffffffffffffffffffffffffffffff163314611e50576040517f08c379a000000000000000000000000000000000000000000000000000000000815260206004820152600960248201527f4e6f742061646d696e0000000000000000000000000000000000000000000000604482015260640161093e565b808210611edf576040517f08c379a000000000000000000000000000000000000000000000000000000000815260206004820152603160248201527f6275666665725365636f6e6473206d75737420626520696e666572696f72207460448201527f6f20696e74657276616c5365636f6e6473000000000000000000000000000000606482015260840161093e565b6005829055600681905560408051838152602081018390527fe60149e0431fec12df63dfab5fce2a9cefe9a4d3df5f41cb626f579ae1f2b91a910160405180910390a15050565b73ffffffffffffffffffffffffffffffffffffffff83166000908152600e602052604081205460609182918490611f5e90879061453b565b811115611f995773ffffffffffffffffffffffffffffffffffffffff87166000908152600e6020526040902054611f9690879061453b565b90505b60008167ffffffffffffffff811115611fdb577f4e487b7100000000000000000000000000000000000000000000000000000000600052604160045260246000fd5b604051908082528060200260200182016040528015612004578160200160208202803683370190505b50905060008267ffffffffffffffff811115612049577f4e487b7100000000000000000000000000000000000000000000000000000000600052604160045260246000fd5b6040519080825280602002602001820160405280156120b257816020015b60408051606081018252600080825260208083018290529282015282527fffffffffffffffffffffffffffffffffffffffffffffffffffffffffffffffff9092019101816120675790505b50905060005b838110156122e85773ffffffffffffffffffffffffffffffffffffffff8a166000908152600e602052604090206120ef828b6144ad565b81548110612126577f4e487b7100000000000000000000000000000000000000000000000000000000600052603260045260246000fd5b906000526020600020015483828151811061216a577f4e487b7100000000000000000000000000000000000000000000000000000000600052603260045260246000fd5b602002602001018181525050600c60008483815181106121b3577f4e487b7100000000000000000000000000000000000000000000000000000000600052603260045260246000fd5b6020908102919091018101518252818101929092526040908101600090812073ffffffffffffffffffffffffffffffffffffffff8e168252909252908190208151606081019092528054829060ff16600181111561223a577f4e487b7100000000000000000000000000000000000000000000000000000000600052602160045260246000fd5b6001811115612272577f4e487b7100000000000000000000000000000000000000000000000000000000600052602160045260246000fd5b81526001820154602082015260029091015460ff16151560409091015282518390839081106122ca577f4e487b7100000000000000000000000000000000000000000000000000000000600052603260045260246000fd5b602002602001018190525080806122e090614582565b9150506120b8565b5081816122f5858b6144ad565b95509550955050505093509350939050565b6000828152600c6020908152604080832073ffffffffffffffffffffffffffffffffffffffff85168452909152808220815160608101909252805483929190829060ff166001811115612383577f4e487b7100000000000000000000000000000000000000000000000000000000600052602160045260246000fd5b60018111156123bb577f4e487b7100000000000000000000000000000000000000000000000000000000600052602160045260246000fd5b815260018281015460208084019190915260029384015460ff908116151560409485015260008a8152600d8352849020845161018081018652815481529381015492840192909252938101549282019290925260038201546060820152600482015460808201819052600583015460a08301819052600684015460c0840152600784015460e084015260088401546101008401526009840154610120840152600a840154610140840152600b909301549093161515610160820152929350141561248a57600092505050611ce0565b806101600151801561249f5750602082015115155b80156124ad57508160400151155b8015611cdb575080608001518160a001511380156125045750600082516001811115612502577f4e487b7100000000000000000000000000000000000000000000000000000000600052602160045260246000fd5b145b80611cdb575080608001518160a00151128015611cdb5750600182516001811115612558577f4e487b7100000000000000000000000000000000000000000000000000000000600052602160045260246000fd5b1495945050505050565b61256a6132c4565b61257261305a565b333b156125db576040517f08c379a000000000000000000000000000000000000000000000000000000000815260206004820152601460248201527f436f6e7472616374206e6f7420616c6c6f776564000000000000000000000000604482015260640161093e565b333214612644576040517f08c379a000000000000000000000000000000000000000000000000000000000815260206004820152601a60248201527f50726f787920636f6e7472616374206e6f7420616c6c6f776564000000000000604482015260640161093e565b600a5481146126af576040517f08c379a000000000000000000000000000000000000000000000000000000000815260206004820152601560248201527f42657420697320746f6f206561726c792f6c6174650000000000000000000000604482015260640161093e565b6126b8816133c7565b61271e576040517f08c379a000000000000000000000000000000000000000000000000000000000815260206004820152601260248201527f526f756e64206e6f74206265747461626c650000000000000000000000000000604482015260640161093e565b6007543410156127b0576040517f08c379a000000000000000000000000000000000000000000000000000000000815260206004820152602c60248201527f42657420616d6f756e74206d7573742062652067726561746572207468616e2060448201527f6d696e426574416d6f756e740000000000000000000000000000000000000000606482015260840161093e565b6000818152600c6020908152604080832033845290915290206001015415612834576040517f08c379a000000000000000000000000000000000000000000000000000000000815260206004820152601b60248201527f43616e206f6e6c7920626574206f6e63652070657220726f756e640000000000604482015260640161093e565b6000818152600d6020526040902060068101543491906128559083906144ad565b6006820155600881015461286a9083906144ad565b60088201556000838152600c602090815260408083203380855290835281842080547fffffffffffffffffffffffffffffffffffffffffffffffffffffffffffffff001660019081178255808201889055600e855283862080549182018155865294849020909401879055905185815286927f0d8c1fe3e67ab767116a81f122b83c2557a8c2564019cb7c4f83de1aeb1f1f0d9101610ff3565b61290c6132c4565b60045473ffffffffffffffffffffffffffffffffffffffff16331461298d576040517f08c379a000000000000000000000000000000000000000000000000000000000815260206004820152600c60248201527f4e6f74206f70657261746f720000000000000000000000000000000000000000604482015260640161093e565b6002547501000000000000000000000000000000000000000000900460ff16612a38576040517f08c379a000000000000000000000000000000000000000000000000000000000815260206004820152603160248201527f43616e206f6e6c792072756e2061667465722067656e6573697353746172745260448201527f6f756e6420697320747269676765726564000000000000000000000000000000606482015260840161093e565b60025474010000000000000000000000000000000000000000900460ff1615612ae3576040517f08c379a000000000000000000000000000000000000000000000000000000000815260206004820152602260248201527f43616e206f6e6c792072756e2067656e657369734c6f636b526f756e64206f6e60448201527f6365000000000000000000000000000000000000000000000000000000000000606482015260840161093e565b600a548190612af29082613597565b600a54612b009060016144ad565b600a819055612b0e90613349565b600280547fffffffffffffffffffffff00ffffffffffffffffffffffffffffffffffffffff1674010000000000000000000000000000000000000000179055600a546040517f72bd5c94e7723e61342608a0506d9111bc8964a94c3ad7e630735a51cc40bfe190600090a25050565b612b85613432565b612ba673ffffffffffffffffffffffffffffffffffffffff831633836137e6565b8173ffffffffffffffffffffffffffffffffffffffff167f14f11966a996e0629572e51064726d2057a80fbd34efc066682c06a71dbb6e9882604051612bee91815260200190565b60405180910390a25050565b60035473ffffffffffffffffffffffffffffffffffffffff163314612c7b576040517f08c379a000000000000000000000000000000000000000000000000000000000815260206004820152600960248201527f4e6f742061646d696e0000000000000000000000000000000000000000000000604482015260640161093e565b73ffffffffffffffffffffffffffffffffffffffff8116612cf8576040517f08c379a000000000000000000000000000000000000000000000000000000000815260206004820152601660248201527f43616e6e6f74206265207a65726f206164647265737300000000000000000000604482015260640161093e565b600480547fffffffffffffffffffffffff00000000000000000000000000000000000000001673ffffffffffffffffffffffffffffffffffffffff83169081179091556040519081527fc47d127c07bdd56c5ccba00463ce3bd3c1bca71b4670eea6e5d0c02e4aa156e2906020016119e7565b612d736132c4565b60045473ffffffffffffffffffffffffffffffffffffffff163314612df4576040517f08c379a000000000000000000000000000000000000000000000000000000000815260206004820152600c60248201527f4e6f74206f70657261746f720000000000000000000000000000000000000000604482015260640161093e565b6002547501000000000000000000000000000000000000000000900460ff168015612e39575060025474010000000000000000000000000000000000000000900460ff165b612eeb576040517f08c379a000000000000000000000000000000000000000000000000000000000815260206004820152604660248201527f43616e206f6e6c792072756e2061667465722067656e6573697353746172745260448201527f6f756e6420616e642067656e657369734c6f636b526f756e642069732074726960648201527f6767657265640000000000000000000000000000000000000000000000000000608482015260a40161093e565b600a548190612efa9082613597565b612f126001600a54612f0c919061453b565b82613873565b612f296001600a54612f24919061453b565b613ad7565b600a54612f379060016144ad565b600a819055612f4590613c79565b600a546040517f72bd5c94e7723e61342608a0506d9111bc8964a94c3ad7e630735a51cc40bfe190600090a25050565b600e6020528160005260406000208181548110612f9157600080fd5b90600052602060002001600091509150505481565b612fae613432565b73ffffffffffffffffffffffffffffffffffffffff8116613051576040517f08c379a000000000000000000000000000000000000000000000000000000000815260206004820152602660248201527f4f776e61626c653a206e6577206f776e657220697320746865207a65726f206160448201527f6464726573730000000000000000000000000000000000000000000000000000606482015260840161093e565b611007816134b3565b600260015414156130c7576040517f08c379a000000000000000000000000000000000000000000000000000000000815260206004820152601f60248201527f5265656e7472616e637947756172643a207265656e7472616e742063616c6c00604482015260640161093e565b6002600155565b60008273ffffffffffffffffffffffffffffffffffffffff168260405160006040518083038185875af1925050503d8060008114613128576040519150601f19603f3d011682016040523d82523d6000602084013e61312d565b606091505b50509050806131be576040517f08c379a000000000000000000000000000000000000000000000000000000000815260206004820152602360248201527f5472616e7366657248656c7065723a20424e425f5452414e534645525f46414960448201527f4c45440000000000000000000000000000000000000000000000000000000000606482015260840161093e565b505050565b60005474010000000000000000000000000000000000000000900460ff166109b0576040517f08c379a000000000000000000000000000000000000000000000000000000000815260206004820152601460248201527f5061757361626c653a206e6f7420706175736564000000000000000000000000604482015260640161093e565b61324f6131c3565b600080547fffffffffffffffffffffff00ffffffffffffffffffffffffffffffffffffffff1690557f5db9ee0a495bf2e6ff9c91a7834c1ba4fdd244a5e8aa4e537bd38aeae4b073aa335b60405173ffffffffffffffffffffffffffffffffffffffff909116815260200160405180910390a1565b60005474010000000000000000000000000000000000000000900460ff16156109b0576040517f08c379a000000000000000000000000000000000000000000000000000000000815260206004820152601060248201527f5061757361626c653a2070617573656400000000000000000000000000000000604482015260640161093e565b6000818152600d60205260409020426001820181905560065461336b916144ad565b600280830191909155600654613380916144fe565b61338a90426144ad565b600382015581815560006006820181905560405183917f939f42374aa9bf1d8d8cd56d8a9110cb040cd8dfeae44080c6fcf2645e51b45291a25050565b6000818152600d6020526040812060010154158015906133f757506000828152600d602052604090206002015415155b801561341357506000828152600d602052604090206001015442115b8015611ce05750506000908152600d6020526040902060020154421090565b60005473ffffffffffffffffffffffffffffffffffffffff1633146109b0576040517f08c379a000000000000000000000000000000000000000000000000000000000815260206004820181905260248201527f4f776e61626c653a2063616c6c6572206973206e6f7420746865206f776e6572604482015260640161093e565b6000805473ffffffffffffffffffffffffffffffffffffffff8381167fffffffffffffffffffffffff0000000000000000000000000000000000000000831681178455604051919092169283917f8be0079c531659141344cd1fd0a4f28419497f9722a3daafe3b4186f6b6457e09190a35050565b6135306132c4565b600080547fffffffffffffffffffffff00ffffffffffffffffffffffffffffffffffffffff16740100000000000000000000000000000000000000001790557f62e78cea01bee320cd4e420270b5ea74000d11b0c9f74754ebdbfc544b05a25861329a3390565b6000828152600d6020526040902060010154613635576040517f08c379a000000000000000000000000000000000000000000000000000000000815260206004820152602b60248201527f43616e206f6e6c79206c6f636b20726f756e6420616674657220726f756e642060448201527f6861732073746172746564000000000000000000000000000000000000000000606482015260840161093e565b6000828152600d60205260409020600201544210156136d6576040517f08c379a000000000000000000000000000000000000000000000000000000000815260206004820152602760248201527f43616e206f6e6c79206c6f636b20726f756e64206166746572206c6f636b546960448201527f6d657374616d7000000000000000000000000000000000000000000000000000606482015260840161093e565b6005546000838152600d60205260409020600201546136f591906144ad565b421115613784576040517f08c379a000000000000000000000000000000000000000000000000000000000815260206004820152602860248201527f43616e206f6e6c79206c6f636b20726f756e642077697468696e20627566666560448201527f725365636f6e6473000000000000000000000000000000000000000000000000606482015260840161093e565b6000828152600d6020526040902060065461379f90426144ad565b60038201556004810182905560405182815283907feef94cbda40aa01b9b02b7dbd6075caa3662c0fabf77a84ed674b09b0ff9cb1e906020015b60405180910390a2505050565b6040805173ffffffffffffffffffffffffffffffffffffffff8416602482015260448082018490528251808303909101815260649091019091526020810180517bffffffffffffffffffffffffffffffffffffffffffffffffffffffff167fa9059cbb000000000000000000000000000000000000000000000000000000001790526131be908490613e8e565b6000828152600d6020526040902060020154613911576040517f08c379a000000000000000000000000000000000000000000000000000000000815260206004820152602960248201527f43616e206f6e6c7920656e6420726f756e6420616674657220726f756e64206860448201527f6173206c6f636b65640000000000000000000000000000000000000000000000606482015260840161093e565b6000828152600d60205260409020600301544210156139b2576040517f08c379a000000000000000000000000000000000000000000000000000000000815260206004820152602760248201527f43616e206f6e6c7920656e6420726f756e6420616674657220636c6f7365546960448201527f6d657374616d7000000000000000000000000000000000000000000000000000606482015260840161093e565b6005546000838152600d60205260409020600301546139d191906144ad565b421115613a60576040517f08c379a000000000000000000000000000000000000000000000000000000000815260206004820152602760248201527f43616e206f6e6c7920656e6420726f756e642077697468696e2062756666657260448201527f5365636f6e647300000000000000000000000000000000000000000000000000606482015260840161093e565b6000828152600d60205260409081902060058101839055600b810180547fffffffffffffffffffffffffffffffffffffffffffffffffffffffffffffff00166001179055905183907fcee1a52460a80134ed9fbda5e300b8aecaf44ba60b7fe91a80a3fef96d5c5b7a906137d99085815260200190565b6000818152600d6020526040902060090154158015613b0557506000818152600d60205260409020600a0154155b613b6b576040517f08c379a000000000000000000000000000000000000000000000000000000000815260206004820152601260248201527f526577617264732063616c63756c617465640000000000000000000000000000604482015260640161093e565b6000818152600d6020526040812060048101546005820154919291829182911315613bcf57836007015492506127106008548560060154613bac91906144fe565b613bb691906144c5565b9150818460060154613bc8919061453b565b9050613c08565b836004015484600501541215613bfb57836008015492506127106008548560060154613bac91906144fe565b5050506006810154600090815b6009808501849055600a85018290558054839190600090613c2a9084906144ad565b9091555050604080518481526020810183905290810183905285907f6dfdfcb09c8804d0058826cd2539f1acfbe3cb887c9be03d928035bce0f1a58d9060600160405180910390a25050505050565b6002547501000000000000000000000000000000000000000000900460ff16613d24576040517f08c379a000000000000000000000000000000000000000000000000000000000815260206004820152603160248201527f43616e206f6e6c792072756e2061667465722067656e6573697353746172745260448201527f6f756e6420697320747269676765726564000000000000000000000000000000606482015260840161093e565b600d6000613d3360028461453b565b81526020019081526020016000206003015460001415613dd5576040517f08c379a000000000000000000000000000000000000000000000000000000000815260206004820152602e60248201527f43616e206f6e6c7920737461727420726f756e6420616674657220726f756e6460448201527f206e2d322068617320656e646564000000000000000000000000000000000000606482015260840161093e565b600d6000613de460028461453b565b815260200190815260200160002060030154421015613e85576040517f08c379a000000000000000000000000000000000000000000000000000000000815260206004820152603760248201527f43616e206f6e6c79207374617274206e657720726f756e64206166746572207260448201527f6f756e64206e2d3220636c6f736554696d657374616d70000000000000000000606482015260840161093e565b61100781613349565b6000613ef0826040518060400160405280602081526020017f5361666545524332303a206c6f772d6c6576656c2063616c6c206661696c65648152508573ffffffffffffffffffffffffffffffffffffffff16613f9a9092919063ffffffff16565b8051909150156131be5780806020019051810190613f0e91906142bb565b6131be576040517f08c379a000000000000000000000000000000000000000000000000000000000815260206004820152602a60248201527f5361666545524332303a204552433230206f7065726174696f6e20646964206e60448201527f6f74207375636365656400000000000000000000000000000000000000000000606482015260840161093e565b6060613fa98484600085613fb1565b949350505050565b606082471015614043576040517f08c379a000000000000000000000000000000000000000000000000000000000815260206004820152602660248201527f416464726573733a20696e73756666696369656e742062616c616e636520666f60448201527f722063616c6c0000000000000000000000000000000000000000000000000000606482015260840161093e565b6000808673ffffffffffffffffffffffffffffffffffffffff16858760405161406c919061437a565b60006040518083038185875af1925050503d80600081146140a9576040519150601f19603f3d011682016040523d82523d6000602084013e6140ae565b606091505b50915091506140bf878383876140ca565b979650505050505050565b6060831561415d5782516141565773ffffffffffffffffffffffffffffffffffffffff85163b614156576040517f08c379a000000000000000000000000000000000000000000000000000000000815260206004820152601d60248201527f416464726573733a2063616c6c20746f206e6f6e2d636f6e7472616374000000604482015260640161093e565b5081613fa9565b613fa983838151156141725781518083602001fd5b806040517f08c379a000000000000000000000000000000000000000000000000000000000815260040161093e919061445c565b803573ffffffffffffffffffffffffffffffffffffffff811681146141ca57600080fd5b919050565b6000602082840312156141e0578081fd5b6141e9826141a6565b9392505050565b60008060408385031215614202578081fd5b61420b836141a6565b946020939093013593505050565b60008060006060848603121561422d578081fd5b614236846141a6565b95602085013595506040909401359392505050565b6000806020838503121561425d578182fd5b823567ffffffffffffffff80821115614274578384fd5b818501915085601f830112614287578384fd5b813581811115614295578485fd5b8660208260051b85010111156142a9578485fd5b60209290920196919550909350505050565b6000602082840312156142cc578081fd5b815180151581146141e9578182fd5b6000602082840312156142ec578081fd5b5035919050565b60008060408385031215614305578182fd5b82359150614315602084016141a6565b90509250929050565b60008060408385031215614330578182fd5b50508035926020909101359150565b60028110614376577f4e487b7100000000000000000000000000000000000000000000000000000000600052602160045260246000fd5b9052565b6000825161438c818460208701614552565b9190910192915050565b60608082528451828201819052600091906020906080850190828901855b828110156143d0578151845292840192908401906001016143b4565b50505084810382860152865180825287830191830190855b818110156144215783516143fd84825161433f565b808601518487015260409081015115159084015292840192918501916001016143e8565b505080945050505050826040830152949350505050565b60608101614446828661433f565b8360208301528215156040830152949350505050565b602081526000825180602084015261447b816040850160208701614552565b601f017fffffffffffffffffffffffffffffffffffffffffffffffffffffffffffffffe0169190910160400192915050565b600082198211156144c0576144c06145bb565b500190565b6000826144f9577f4e487b710000000000000000000000000000000000000000000000000000000081526012600452602481fd5b500490565b6000817fffffffffffffffffffffffffffffffffffffffffffffffffffffffffffffffff0483118215151615614536576145366145bb565b500290565b60008282101561454d5761454d6145bb565b500390565b60005b8381101561456d578181015183820152602001614555565b8381111561457c576000848401525b50505050565b60007fffffffffffffffffffffffffffffffffffffffffffffffffffffffffffffffff8214156145b4576145b46145bb565b5060010190565b7f4e487b7100000000000000000000000000000000000000000000000000000000600052601160045260246000fdfea2646970667358221220d6be4dcb086919f26036a7cc661f57cba4ad7ec36364bb222e6c7fe04d3acb7964736f6c63430008040033",
  "linkReferences": {},
  "deployedLinkReferences": {}
}