{
  "_format": "hh-sol-artifact-1",
  "contractName": "PancakePredictionV2",
  "sourceName": "contracts/PancakePredictionV2.sol",
  "abi": [
    {
      "inputs": [
        {
          "internalType": "address",
          "name": "_oracleAddress",
          "type": "address"
        },
        {
          "internalType": "address",
          "name": "_adminAddress",
          "type": "address"
        },
        {
          "internalType": "address",
          "name": "_operatorAddress",
          "type": "address"
        },
        {
          "internalType": "uint256",
          "name": "_intervalSeconds",
          "type": "uint256"
        },
        {
          "internalType": "uint256",
          "name": "_bufferSeconds",
          "type": "uint256"
        },
        {
          "internalType": "uint256",
          "name": "_minBetAmount",
          "type": "uint256"
        },
        {
          "internalType": "uint256",
          "name": "_oracleUpdateAllowance",
          "type": "uint256"
        },
        {
          "internalType": "uint256",
          "name": "_treasuryFee",
          "type": "uint256"
        }
      ],
      "stateMutability": "nonpayable",
      "type": "constructor"
    },
    {
      "anonymous": false,
      "inputs": [
        {
          "indexed": true,
          "internalType": "address",
          "name": "sender",
          "type": "address"
        },
        {
          "indexed": true,
          "internalType": "uint256",
          "name": "epoch",
          "type": "uint256"
        },
        {
          "indexed": false,
          "internalType": "uint256",
          "name": "amount",
          "type": "uint256"
        }
      ],
      "name": "BetBear",
      "type": "event"
    },
    {
      "anonymous": false,
      "inputs": [
        {
          "indexed": true,
          "internalType": "address",
          "name": "sender",
          "type": "address"
        },
        {
          "indexed": true,
          "internalType": "uint256",
          "name": "epoch",
          "type": "uint256"
        },
        {
          "indexed": false,
          "internalType": "uint256",
          "name": "amount",
          "type": "uint256"
        }
      ],
      "name": "BetBull",
      "type": "event"
    },
    {
      "anonymous": false,
      "inputs": [
        {
          "indexed": true,
          "internalType": "address",
          "name": "sender",
          "type": "address"
        },
        {
          "indexed": true,
          "internalType": "uint256",
          "name": "epoch",
          "type": "uint256"
        },
        {
          "indexed": false,
          "internalType": "uint256",
          "name": "amount",
          "type": "uint256"
        }
      ],
      "name": "Claim",
      "type": "event"
    },
    {
      "anonymous": false,
      "inputs": [
        {
          "indexed": true,
          "internalType": "uint256",
          "name": "epoch",
          "type": "uint256"
        },
        {
          "indexed": true,
          "internalType": "uint256",
          "name": "roundId",
          "type": "uint256"
        },
        {
          "indexed": false,
          "internalType": "int256",
          "name": "price",
          "type": "int256"
        }
      ],
      "name": "EndRound",
      "type": "event"
    },
    {
      "anonymous": false,
      "inputs": [
        {
          "indexed": true,
          "internalType": "uint256",
          "name": "epoch",
          "type": "uint256"
        },
        {
          "indexed": true,
          "internalType": "uint256",
          "name": "roundId",
          "type": "uint256"
        },
        {
          "indexed": false,
          "internalType": "int256",
          "name": "price",
          "type": "int256"
        }
      ],
      "name": "LockRound",
      "type": "event"
    },
    {
      "anonymous": false,
      "inputs": [
        {
          "indexed": false,
          "internalType": "address",
          "name": "admin",
          "type": "address"
        }
      ],
      "name": "NewAdminAddress",
      "type": "event"
    },
    {
      "anonymous": false,
      "inputs": [
        {
          "indexed": false,
          "internalType": "uint256",
          "name": "bufferSeconds",
          "type": "uint256"
        },
        {
          "indexed": false,
          "internalType": "uint256",
          "name": "intervalSeconds",
          "type": "uint256"
        }
      ],
      "name": "NewBufferAndIntervalSeconds",
      "type": "event"
    },
    {
      "anonymous": false,
      "inputs": [
        {
          "indexed": true,
          "internalType": "uint256",
          "name": "epoch",
          "type": "uint256"
        },
        {
          "indexed": false,
          "internalType": "uint256",
          "name": "minBetAmount",
          "type": "uint256"
        }
      ],
      "name": "NewMinBetAmount",
      "type": "event"
    },
    {
      "anonymous": false,
      "inputs": [
        {
          "indexed": false,
          "internalType": "address",
          "name": "operator",
          "type": "address"
        }
      ],
      "name": "NewOperatorAddress",
      "type": "event"
    },
    {
      "anonymous": false,
      "inputs": [
        {
          "indexed": false,
          "internalType": "address",
          "name": "oracle",
          "type": "address"
        }
      ],
      "name": "NewOracle",
      "type": "event"
    },
    {
      "anonymous": false,
      "inputs": [
        {
          "indexed": false,
          "internalType": "uint256",
          "name": "oracleUpdateAllowance",
          "type": "uint256"
        }
      ],
      "name": "NewOracleUpdateAllowance",
      "type": "event"
    },
    {
      "anonymous": false,
      "inputs": [
        {
          "indexed": true,
          "internalType": "uint256",
          "name": "epoch",
          "type": "uint256"
        },
        {
          "indexed": false,
          "internalType": "uint256",
          "name": "treasuryFee",
          "type": "uint256"
        }
      ],
      "name": "NewTreasuryFee",
      "type": "event"
    },
    {
      "anonymous": false,
      "inputs": [
        {
          "indexed": true,
          "internalType": "address",
          "name": "previousOwner",
          "type": "address"
        },
        {
          "indexed": true,
          "internalType": "address",
          "name": "newOwner",
          "type": "address"
        }
      ],
      "name": "OwnershipTransferred",
      "type": "event"
    },
    {
      "anonymous": false,
      "inputs": [
        {
          "indexed": true,
          "internalType": "uint256",
          "name": "epoch",
          "type": "uint256"
        }
      ],
      "name": "Pause",
      "type": "event"
    },
    {
      "anonymous": false,
      "inputs": [
        {
          "indexed": false,
          "internalType": "address",
          "name": "account",
          "type": "address"
        }
      ],
      "name": "Paused",
      "type": "event"
    },
    {
      "anonymous": false,
      "inputs": [
        {
          "indexed": true,
          "internalType": "uint256",
          "name": "epoch",
          "type": "uint256"
        },
        {
          "indexed": false,
          "internalType": "uint256",
          "name": "rewardBaseCalAmount",
          "type": "uint256"
        },
        {
          "indexed": false,
          "internalType": "uint256",
          "name": "rewardAmount",
          "type": "uint256"
        },
        {
          "indexed": false,
          "internalType": "uint256",
          "name": "treasuryAmount",
          "type": "uint256"
        }
      ],
      "name": "RewardsCalculated",
      "type": "event"
    },
    {
      "anonymous": false,
      "inputs": [
        {
          "indexed": true,
          "internalType": "uint256",
          "name": "epoch",
          "type": "uint256"
        }
      ],
      "name": "StartRound",
      "type": "event"
    },
    {
      "anonymous": false,
      "inputs": [
        {
          "indexed": true,
          "internalType": "address",
          "name": "token",
          "type": "address"
        },
        {
          "indexed": false,
          "internalType": "uint256",
          "name": "amount",
          "type": "uint256"
        }
      ],
      "name": "TokenRecovery",
      "type": "event"
    },
    {
      "anonymous": false,
      "inputs": [
        {
          "indexed": false,
          "internalType": "uint256",
          "name": "amount",
          "type": "uint256"
        }
      ],
      "name": "TreasuryClaim",
      "type": "event"
    },
    {
      "anonymous": false,
      "inputs": [
        {
          "indexed": true,
          "internalType": "uint256",
          "name": "epoch",
          "type": "uint256"
        }
      ],
      "name": "Unpause",
      "type": "event"
    },
    {
      "anonymous": false,
      "inputs": [
        {
          "indexed": false,
          "internalType": "address",
          "name": "account",
          "type": "address"
        }
      ],
      "name": "Unpaused",
      "type": "event"
    },
    {
      "inputs": [],
      "name": "MAX_TREASURY_FEE",
      "outputs": [
        {
          "internalType": "uint256",
          "name": "",
          "type": "uint256"
        }
      ],
      "stateMutability": "view",
      "type": "function"
    },
    {
      "inputs": [],
      "name": "adminAddress",
      "outputs": [
        {
          "internalType": "address",
          "name": "",
          "type": "address"
        }
      ],
      "stateMutability": "view",
      "type": "function"
    },
    {
      "inputs": [
        {
          "internalType": "uint256",
          "name": "epoch",
          "type": "uint256"
        }
      ],
      "name": "betBear",
      "outputs": [],
      "stateMutability": "payable",
      "type": "function"
    },
    {
      "inputs": [
        {
          "internalType": "uint256",
          "name": "epoch",
          "type": "uint256"
        }
      ],
      "name": "betBull",
      "outputs": [],
      "stateMutability": "payable",
      "type": "function"
    },
    {
      "inputs": [],
      "name": "bufferSeconds",
      "outputs": [
        {
          "internalType": "uint256",
          "name": "",
          "type": "uint256"
        }
      ],
      "stateMutability": "view",
      "type": "function"
    },
    {
      "inputs": [
        {
          "internalType": "uint256[]",
          "name": "epochs",
          "type": "uint256[]"
        }
      ],
      "name": "claim",
      "outputs": [],
      "stateMutability": "nonpayable",
      "type": "function"
    },
    {
      "inputs": [],
      "name": "claimTreasury",
      "outputs": [],
      "stateMutability": "nonpayable",
      "type": "function"
    },
    {
      "inputs": [
        {
          "internalType": "uint256",
          "name": "epoch",
          "type": "uint256"
        },
        {
          "internalType": "address",
          "name": "user",
          "type": "address"
        }
      ],
      "name": "claimable",
      "outputs": [
        {
          "internalType": "bool",
          "name": "",
          "type": "bool"
        }
      ],
      "stateMutability": "view",
      "type": "function"
    },
    {
      "inputs": [],
      "name": "currentEpoch",
      "outputs": [
        {
          "internalType": "uint256",
          "name": "",
          "type": "uint256"
        }
      ],
      "stateMutability": "view",
      "type": "function"
    },
    {
      "inputs": [],
      "name": "executeRound",
      "outputs": [],
      "stateMutability": "nonpayable",
      "type": "function"
    },
    {
      "inputs": [],
      "name": "genesisLockOnce",
      "outputs": [
        {
          "internalType": "bool",
          "name": "",
          "type": "bool"
        }
      ],
      "stateMutability": "view",
      "type": "function"
    },
    {
      "inputs": [],
      "name": "genesisLockRound",
      "outputs": [],
      "stateMutability": "nonpayable",
      "type": "function"
    },
    {
      "inputs": [],
      "name": "genesisStartOnce",
      "outputs": [
        {
          "internalType": "bool",
          "name": "",
          "type": "bool"
        }
      ],
      "stateMutability": "view",
      "type": "function"
    },
    {
      "inputs": [],
      "name": "genesisStartRound",
      "outputs": [],
      "stateMutability": "nonpayable",
      "type": "function"
    },
    {
      "inputs": [
        {
          "internalType": "address",
          "name": "user",
          "type": "address"
        },
        {
          "internalType": "uint256",
          "name": "cursor",
          "type": "uint256"
        },
        {
          "internalType": "uint256",
          "name": "size",
          "type": "uint256"
        }
      ],
      "name": "getUserRounds",
      "outputs": [
        {
          "internalType": "uint256[]",
          "name": "",
          "type": "uint256[]"
        },
        {
          "components": [
            {
              "internalType": "enum PancakePredictionV2.Position",
              "name": "position",
              "type": "uint8"
            },
            {
              "internalType": "uint256",
              "name": "amount",
              "type": "uint256"
            },
            {
              "internalType": "bool",
              "name": "claimed",
              "type": "bool"
            }
          ],
          "internalType": "struct PancakePredictionV2.BetInfo[]",
          "name": "",
          "type": "tuple[]"
        },
        {
          "internalType": "uint256",
          "name": "",
          "type": "uint256"
        }
      ],
      "stateMutability": "view",
      "type": "function"
    },
    {
      "inputs": [
        {
          "internalType": "address",
          "name": "user",
          "type": "address"
        }
      ],
      "name": "getUserRoundsLength",
      "outputs": [
        {
          "internalType": "uint256",
          "name": "",
          "type": "uint256"
        }
      ],
      "stateMutability": "view",
      "type": "function"
    },
    {
      "inputs": [],
      "name": "intervalSeconds",
      "outputs": [
        {
          "internalType": "uint256",
          "name": "",
          "type": "uint256"
        }
      ],
      "stateMutability": "view",
      "type": "function"
    },
    {
      "inputs": [
        {
          "internalType": "uint256",
          "name": "",
          "type": "uint256"
        },
        {
          "internalType": "address",
          "name": "",
          "type": "address"
        }
      ],
      "name": "ledger",
      "outputs": [
        {
          "internalType": "enum PancakePredictionV2.Position",
          "name": "position",
          "type": "uint8"
        },
        {
          "internalType": "uint256",
          "name": "amount",
          "type": "uint256"
        },
        {
          "internalType": "bool",
          "name": "claimed",
          "type": "bool"
        }
      ],
      "stateMutability": "view",
      "type": "function"
    },
    {
      "inputs": [],
      "name": "minBetAmount",
      "outputs": [
        {
          "internalType": "uint256",
          "name": "",
          "type": "uint256"
        }
      ],
      "stateMutability": "view",
      "type": "function"
    },
    {
      "inputs": [],
      "name": "operatorAddress",
      "outputs": [
        {
          "internalType": "address",
          "name": "",
          "type": "address"
        }
      ],
      "stateMutability": "view",
      "type": "function"
    },
    {
      "inputs": [],
      "name": "oracle",
      "outputs": [
        {
          "internalType": "contract AggregatorV3Interface",
          "name": "",
          "type": "address"
        }
      ],
      "stateMutability": "view",
      "type": "function"
    },
    {
      "inputs": [],
      "name": "oracleLatestRoundId",
      "outputs": [
        {
          "internalType": "uint256",
          "name": "",
          "type": "uint256"
        }
      ],
      "stateMutability": "view",
      "type": "function"
    },
    {
      "inputs": [],
      "name": "oracleUpdateAllowance",
      "outputs": [
        {
          "internalType": "uint256",
          "name": "",
          "type": "uint256"
        }
      ],
      "stateMutability": "view",
      "type": "function"
    },
    {
      "inputs": [],
      "name": "owner",
      "outputs": [
        {
          "internalType": "address",
          "name": "",
          "type": "address"
        }
      ],
      "stateMutability": "view",
      "type": "function"
    },
    {
      "inputs": [],
      "name": "pause",
      "outputs": [],
      "stateMutability": "nonpayable",
      "type": "function"
    },
    {
      "inputs": [],
      "name": "paused",
      "outputs": [
        {
          "internalType": "bool",
          "name": "",
          "type": "bool"
        }
      ],
      "stateMutability": "view",
      "type": "function"
    },
    {
      "inputs": [
        {
          "internalType": "address",
          "name": "_token",
          "type": "address"
        },
        {
          "internalType": "uint256",
          "name": "_amount",
          "type": "uint256"
        }
      ],
      "name": "recoverToken",
      "outputs": [],
      "stateMutability": "nonpayable",
      "type": "function"
    },
    {
      "inputs": [
        {
          "internalType": "uint256",
          "name": "epoch",
          "type": "uint256"
        },
        {
          "internalType": "address",
          "name": "user",
          "type": "address"
        }
      ],
      "name": "refundable",
      "outputs": [
        {
          "internalType": "bool",
          "name": "",
          "type": "bool"
        }
      ],
      "stateMutability": "view",
      "type": "function"
    },
    {
      "inputs": [],
      "name": "renounceOwnership",
      "outputs": [],
      "stateMutability": "nonpayable",
      "type": "function"
    },
    {
      "inputs": [
        {
          "internalType": "uint256",
          "name": "",
          "type": "uint256"
        }
      ],
      "name": "rounds",
      "outputs": [
        {
          "internalType": "uint256",
          "name": "epoch",
          "type": "uint256"
        },
        {
          "internalType": "uint256",
          "name": "startTimestamp",
          "type": "uint256"
        },
        {
          "internalType": "uint256",
          "name": "lockTimestamp",
          "type": "uint256"
        },
        {
          "internalType": "uint256",
          "name": "closeTimestamp",
          "type": "uint256"
        },
        {
          "internalType": "int256",
          "name": "lockPrice",
          "type": "int256"
        },
        {
          "internalType": "int256",
          "name": "closePrice",
          "type": "int256"
        },
        {
          "internalType": "uint256",
          "name": "lockOracleId",
          "type": "uint256"
        },
        {
          "internalType": "uint256",
          "name": "closeOracleId",
          "type": "uint256"
        },
        {
          "internalType": "uint256",
          "name": "totalAmount",
          "type": "uint256"
        },
        {
          "internalType": "uint256",
          "name": "bullAmount",
          "type": "uint256"
        },
        {
          "internalType": "uint256",
          "name": "bearAmount",
          "type": "uint256"
        },
        {
          "internalType": "uint256",
          "name": "rewardBaseCalAmount",
          "type": "uint256"
        },
        {
          "internalType": "uint256",
          "name": "rewardAmount",
          "type": "uint256"
        },
        {
          "internalType": "bool",
          "name": "oracleCalled",
          "type": "bool"
        }
      ],
      "stateMutability": "view",
      "type": "function"
    },
    {
      "inputs": [
        {
          "internalType": "address",
          "name": "_adminAddress",
          "type": "address"
        }
      ],
      "name": "setAdmin",
      "outputs": [],
      "stateMutability": "nonpayable",
      "type": "function"
    },
    {
      "inputs": [
        {
          "internalType": "uint256",
          "name": "_bufferSeconds",
          "type": "uint256"
        },
        {
          "internalType": "uint256",
          "name": "_intervalSeconds",
          "type": "uint256"
        }
      ],
      "name": "setBufferAndIntervalSeconds",
      "outputs": [],
      "stateMutability": "nonpayable",
      "type": "function"
    },
    {
      "inputs": [
        {
          "internalType": "uint256",
          "name": "_minBetAmount",
          "type": "uint256"
        }
      ],
      "name": "setMinBetAmount",
      "outputs": [],
      "stateMutability": "nonpayable",
      "type": "function"
    },
    {
      "inputs": [
        {
          "internalType": "address",
          "name": "_operatorAddress",
          "type": "address"
        }
      ],
      "name": "setOperator",
      "outputs": [],
      "stateMutability": "nonpayable",
      "type": "function"
    },
    {
      "inputs": [
        {
          "internalType": "address",
          "name": "_oracle",
          "type": "address"
        }
      ],
      "name": "setOracle",
      "outputs": [],
      "stateMutability": "nonpayable",
      "type": "function"
    },
    {
      "inputs": [
        {
          "internalType": "uint256",
          "name": "_oracleUpdateAllowance",
          "type": "uint256"
        }
      ],
      "name": "setOracleUpdateAllowance",
      "outputs": [],
      "stateMutability": "nonpayable",
      "type": "function"
    },
    {
      "inputs": [
        {
          "internalType": "uint256",
          "name": "_treasuryFee",
          "type": "uint256"
        }
      ],
      "name": "setTreasuryFee",
      "outputs": [],
      "stateMutability": "nonpayable",
      "type": "function"
    },
    {
      "inputs": [
        {
          "internalType": "address",
          "name": "newOwner",
          "type": "address"
        }
      ],
      "name": "transferOwnership",
      "outputs": [],
      "stateMutability": "nonpayable",
      "type": "function"
    },
    {
      "inputs": [],
      "name": "treasuryAmount",
      "outputs": [
        {
          "internalType": "uint256",
          "name": "",
          "type": "uint256"
        }
      ],
      "stateMutability": "view",
      "type": "function"
    },
    {
      "inputs": [],
      "name": "treasuryFee",
      "outputs": [
        {
          "internalType": "uint256",
          "name": "",
          "type": "uint256"
        }
      ],
      "stateMutability": "view",
      "type": "function"
    },
    {
      "inputs": [],
      "name": "unpause",
      "outputs": [],
      "stateMutability": "nonpayable",
      "type": "function"
    },
    {
      "inputs": [
        {
          "internalType": "address",
          "name": "",
          "type": "address"
        },
        {
          "internalType": "uint256",
          "name": "",
          "type": "uint256"
        }
      ],
      "name": "userRounds",
      "outputs": [
        {
          "internalType": "uint256",
          "name": "",
          "type": "uint256"
        }
      ],
      "stateMutability": "view",
      "type": "function"
    }
  ],
  "bytecode": "0x60806040526002805461ffff60a01b191690553480156200001f57600080fd5b5060405162004d7438038062004d7483398101604081905262000042916200017e565b6200004d3362000111565b6000805460ff60a01b19169055600180556103e8811115620000b55760405162461bcd60e51b815260206004820152601560248201527f54726561737572792066656520746f6f20686967680000000000000000000000604482015260640160405180910390fd5b600280546001600160a01b03199081166001600160a01b039a8b1617909155600380548216988a1698909817909755600480549097169590971694909417909455600691909155600555600791909155600c55600855620001f8565b600080546001600160a01b038381166001600160a01b0319831681178455604051919092169283917f8be0079c531659141344cd1fd0a4f28419497f9722a3daafe3b4186f6b6457e09190a35050565b80516001600160a01b03811681146200017957600080fd5b919050565b600080600080600080600080610100898b0312156200019b578384fd5b620001a68962000161565b9750620001b660208a0162000161565b9650620001c660408a0162000161565b9550606089015194506080890151935060a0890151925060c0890151915060e089015190509295985092959890939650565b614b6c80620002086000396000f3fe6080604052600436106102d05760003560e01c80637dc0d1d011610179578063cc32d176116100d6578063ec3247031161008a578063f7fdec2811610064578063f7fdec28146108d1578063fa968eea14610904578063fc6f94681461091a57600080fd5b8063ec32470314610885578063f2b3c8091461089b578063f2fde38b146108b157600080fd5b8063d9d55eac116100bb578063d9d55eac1461083a578063dd1f75961461084f578063eaba23611461086f57600080fd5b8063cc32d17614610804578063cf2f50391461081a57600080fd5b8063951fd6001161012d578063aa6b873a11610112578063aa6b873a146107b1578063b29a8140146107c4578063b3ab15fb146107e457600080fd5b8063951fd60014610762578063a0c7f71c1461079157600080fd5b8063890dc7661161015e578063890dc766146106225780638c65c81f146106425780638da5cb5b1461073757600080fd5b80637dc0d1d0146105e05780638456cb591461060d57600080fd5b80636ba4c1381161023257806376671808116101e65780637b3205f5116101c05780637b3205f5146105955780637bf41254146105aa5780637d1cd04f146105ca57600080fd5b8063766718081461053f57806377e741c7146105555780637adbf9731461057557600080fd5b8063704b6c0211610217578063704b6c02146104af578063715018a6146104cf5780637285c58b146104e457600080fd5b80636ba4c1381461046f5780636c1885931461048f57600080fd5b80633f4ba83a1161028957806357fb096f1161026e57806357fb096f146104165780635c975abb14610429578063605540111461045957600080fd5b80633f4ba83a146103ec578063452fd75a1461040157600080fd5b8063127effb2116102ba578063127effb214610333578063273867d414610385578063368acb09146103d657600080fd5b80623bdc74146102d55780630f74174f146102ec575b600080fd5b3480156102e157600080fd5b506102ea610947565b005b3480156102f857600080fd5b5060025461031e9074010000000000000000000000000000000000000000900460ff1681565b60405190151581526020015b60405180910390f35b34801561033f57600080fd5b506004546103609073ffffffffffffffffffffffffffffffffffffffff1681565b60405173ffffffffffffffffffffffffffffffffffffffff909116815260200161032a565b34801561039157600080fd5b506103c86103a03660046146cc565b73ffffffffffffffffffffffffffffffffffffffff166000908152600f602052604090205490565b60405190815260200161032a565b3480156103e257600080fd5b506103c860095481565b3480156103f857600080fd5b506102ea610a40565b34801561040d57600080fd5b506102ea610b27565b6102ea6104243660046147d8565b610cba565b34801561043557600080fd5b5060005474010000000000000000000000000000000000000000900460ff1661031e565b34801561046557600080fd5b506103c8600c5481565b34801561047b57600080fd5b506102ea61048a366004614748565b61106c565b34801561049b57600080fd5b506102ea6104aa3660046147d8565b611845565b3480156104bb57600080fd5b506102ea6104ca3660046146cc565b611974565b3480156104db57600080fd5b506102ea611a73565b3480156104f057600080fd5b506105306104ff3660046147f0565b600d60209081526000928352604080842090915290825290208054600182015460029092015460ff91821692911683565b60405161032a93929190614984565b34801561054b57600080fd5b506103c8600a5481565b34801561056157600080fd5b506102ea6105703660046147d8565b611a85565b34801561058157600080fd5b506102ea6105903660046146cc565b611bb2565b3480156105a157600080fd5b506102ea611dd4565b3480156105b657600080fd5b5061031e6105c53660046147f0565b611fe7565b3480156105d657600080fd5b506103c860065481565b3480156105ec57600080fd5b506002546103609073ffffffffffffffffffffffffffffffffffffffff1681565b34801561061957600080fd5b506102ea6121b2565b34801561062e57600080fd5b506102ea61063d36600461481b565b612293565b34801561064e57600080fd5b506106cd61065d3660046147d8565b600e60205260009081526040902080546001820154600283015460038401546004850154600586015460068701546007880154600889015460098a0154600a8b0154600b8c0154600c8d0154600d909d01549b9c9a9b999a98999798969795969495939492939192909160ff168e565b604080519e8f5260208f019d909d529b8d019a909a5260608c019890985260808b019690965260a08a019490945260c089019290925260e088015261010087015261012086015261014085015261016084015261018083015215156101a08201526101c00161032a565b34801561074357600080fd5b5060005473ffffffffffffffffffffffffffffffffffffffff16610360565b34801561076e57600080fd5b5061078261077d366004614716565b6123f2565b60405161032a939291906148e2565b34801561079d57600080fd5b5061031e6107ac3660046147f0565b6127d3565b6102ea6107bf3660046147d8565b612a44565b3480156107d057600080fd5b506102ea6107df3660046146ed565b612de6565b3480156107f057600080fd5b506102ea6107ff3660046146cc565b612e63565b34801561081057600080fd5b506103c860085481565b34801561082657600080fd5b506102ea6108353660046147d8565b612fd4565b34801561084657600080fd5b506102ea613092565b34801561085b57600080fd5b506103c861086a3660046146ed565b61330b565b34801561087b57600080fd5b506103c860055481565b34801561089157600080fd5b506103c8600b5481565b3480156108a757600080fd5b506103c86103e881565b3480156108bd57600080fd5b506102ea6108cc3660046146cc565b61333c565b3480156108dd57600080fd5b5060025461031e907501000000000000000000000000000000000000000000900460ff1681565b34801561091057600080fd5b506103c860075481565b34801561092657600080fd5b506003546103609073ffffffffffffffffffffffffffffffffffffffff1681565b61094f6133f0565b60035473ffffffffffffffffffffffffffffffffffffffff1633146109d5576040517f08c379a000000000000000000000000000000000000000000000000000000000815260206004820152600960248201527f4e6f742061646d696e000000000000000000000000000000000000000000000060448201526064015b60405180910390fd5b600980546000909155600354610a019073ffffffffffffffffffffffffffffffffffffffff1682613464565b6040518181527fb9197c6b8e21274bd1e2d9c956a88af5cfee510f630fab3f046300f88b4223619060200160405180910390a150610a3e60018055565b565b610a48613559565b60035473ffffffffffffffffffffffffffffffffffffffff163314610ac9576040517f08c379a000000000000000000000000000000000000000000000000000000000815260206004820152600960248201527f4e6f742061646d696e000000000000000000000000000000000000000000000060448201526064016109cc565b600280547fffffffffffffffffffff0000ffffffffffffffffffffffffffffffffffffffff169055610af96135dd565b600a546040517faaa520fdd7d2c83061d632fa017b0432407e798818af63ea908589fceda39ab790600090a2565b610b2f61365a565b60045473ffffffffffffffffffffffffffffffffffffffff163314610bb0576040517f08c379a000000000000000000000000000000000000000000000000000000000815260206004820152600c60248201527f4e6f74206f70657261746f72000000000000000000000000000000000000000060448201526064016109cc565b6002547501000000000000000000000000000000000000000000900460ff1615610c5c576040517f08c379a000000000000000000000000000000000000000000000000000000000815260206004820152602360248201527f43616e206f6e6c792072756e2067656e657369735374617274526f756e64206f60448201527f6e6365000000000000000000000000000000000000000000000000000000000060648201526084016109cc565b600a54610c6a9060016149f9565b600a819055610c78906136df565b600280547fffffffffffffffffffff00ffffffffffffffffffffffffffffffffffffffffff167501000000000000000000000000000000000000000000179055565b610cc261365a565b610cca6133f0565b333b15610d33576040517f08c379a000000000000000000000000000000000000000000000000000000000815260206004820152601460248201527f436f6e7472616374206e6f7420616c6c6f77656400000000000000000000000060448201526064016109cc565b333214610d9c576040517f08c379a000000000000000000000000000000000000000000000000000000000815260206004820152601a60248201527f50726f787920636f6e7472616374206e6f7420616c6c6f77656400000000000060448201526064016109cc565b600a548114610e07576040517f08c379a000000000000000000000000000000000000000000000000000000000815260206004820152601560248201527f42657420697320746f6f206561726c792f6c617465000000000000000000000060448201526064016109cc565b610e108161375d565b610e76576040517f08c379a000000000000000000000000000000000000000000000000000000000815260206004820152601260248201527f526f756e64206e6f74206265747461626c65000000000000000000000000000060448201526064016109cc565b600754341015610f08576040517f08c379a000000000000000000000000000000000000000000000000000000000815260206004820152602c60248201527f42657420616d6f756e74206d7573742062652067726561746572207468616e2060448201527f6d696e426574416d6f756e74000000000000000000000000000000000000000060648201526084016109cc565b6000818152600d6020908152604080832033845290915290206001015415610f8c576040517f08c379a000000000000000000000000000000000000000000000000000000000815260206004820152601b60248201527f43616e206f6e6c7920626574206f6e63652070657220726f756e64000000000060448201526064016109cc565b6000818152600e602052604090206008810154349190610fad9083906149f9565b60088201556009810154610fc29083906149f9565b60098201556000838152600d602090815260408083203380855290835281842080547fffffffffffffffffffffffffffffffffffffffffffffffffffffffffffffff001681556001808201889055600f855283862080549182018155865294849020909401879055905185815286927f438122d8cff518d18388099a5181f0d17a12b4f1b55faedf6e4a6acee0060c1291015b60405180910390a350505061106960018055565b50565b6110746133f0565b333b156110dd576040517f08c379a000000000000000000000000000000000000000000000000000000000815260206004820152601460248201527f436f6e7472616374206e6f7420616c6c6f77656400000000000000000000000060448201526064016109cc565b333214611146576040517f08c379a000000000000000000000000000000000000000000000000000000000815260206004820152601a60248201527f50726f787920636f6e7472616374206e6f7420616c6c6f77656400000000000060448201526064016109cc565b6000805b8281101561182657600e600085858481811061118f577f4e487b7100000000000000000000000000000000000000000000000000000000600052603260045260246000fd5b9050602002013581526020019081526020016000206001015460001415611212576040517f08c379a000000000000000000000000000000000000000000000000000000000815260206004820152601560248201527f526f756e6420686173206e6f742073746172746564000000000000000000000060448201526064016109cc565b600e600085858481811061124f577f4e487b7100000000000000000000000000000000000000000000000000000000600052603260045260246000fd5b9050602002013581526020019081526020016000206003015442116112d0576040517f08c379a000000000000000000000000000000000000000000000000000000000815260206004820152601360248201527f526f756e6420686173206e6f7420656e6465640000000000000000000000000060448201526064016109cc565b6000600e600086868581811061130f577f4e487b7100000000000000000000000000000000000000000000000000000000600052603260045260246000fd5b60209081029290920135835250810191909152604001600020600d015460ff161561159d5761137d858584818110611370577f4e487b7100000000000000000000000000000000000000000000000000000000600052603260045260246000fd5b90506020020135336127d3565b6113e3576040517f08c379a000000000000000000000000000000000000000000000000000000000815260206004820152601660248201527f4e6f7420656c696769626c6520666f7220636c61696d0000000000000000000060448201526064016109cc565b6000600e6000878786818110611422577f4e487b7100000000000000000000000000000000000000000000000000000000600052603260045260246000fd5b905060200201358152602001908152602001600020604051806101c001604052908160008201548152602001600182015481526020016002820154815260200160038201548152602001600482015481526020016005820154815260200160068201548152602001600782015481526020016008820154815260200160098201548152602001600a8201548152602001600b8201548152602001600c8201548152602001600d820160009054906101000a900460ff1615151515815250509050806101600151816101800151600d600089898881811061152b577f4e487b7100000000000000000000000000000000000000000000000000000000600052603260045260246000fd5b90506020020135815260200190815260200160002060003373ffffffffffffffffffffffffffffffffffffffff1673ffffffffffffffffffffffffffffffffffffffff1681526020019081526020016000206001015461158b9190614a4a565b6115959190614a11565b9150506116e2565b6115e68585848181106115d9577f4e487b7100000000000000000000000000000000000000000000000000000000600052603260045260246000fd5b9050602002013533611fe7565b61164c576040517f08c379a000000000000000000000000000000000000000000000000000000000815260206004820152601760248201527f4e6f7420656c696769626c6520666f7220726566756e6400000000000000000060448201526064016109cc565b600d6000868685818110611689577f4e487b7100000000000000000000000000000000000000000000000000000000600052603260045260246000fd5b90506020020135815260200190815260200160002060003373ffffffffffffffffffffffffffffffffffffffff1673ffffffffffffffffffffffffffffffffffffffff1681526020019081526020016000206001015490505b6001600d6000878786818110611721577f4e487b7100000000000000000000000000000000000000000000000000000000600052603260045260246000fd5b602090810292909201358352508181019290925260409081016000908120338252909252902060020180547fffffffffffffffffffffffffffffffffffffffffffffffffffffffffffffff001691151591909117905561178181846149f9565b92508484838181106117bc577f4e487b7100000000000000000000000000000000000000000000000000000000600052603260045260246000fd5b905060200201353373ffffffffffffffffffffffffffffffffffffffff167f34fcbac0073d7c3d388e51312faf357774904998eeb8fca628b9e6f65ee1cbf78360405161180b91815260200190565b60405180910390a3508061181e81614ace565b91505061114a565b508015611837576118373382613464565b5061184160018055565b5050565b61184d613559565b60035473ffffffffffffffffffffffffffffffffffffffff1633146118ce576040517f08c379a000000000000000000000000000000000000000000000000000000000815260206004820152600960248201527f4e6f742061646d696e000000000000000000000000000000000000000000000060448201526064016109cc565b80611935576040517f08c379a000000000000000000000000000000000000000000000000000000000815260206004820152601560248201527f4d757374206265207375706572696f7220746f2030000000000000000000000060448201526064016109cc565b6007819055600a546040518281527f90eb87c560a0213754ceb3a7fa3012f01acab0a35602c1e1995adf69dabc9d50906020015b60405180910390a250565b61197c6137c8565b73ffffffffffffffffffffffffffffffffffffffff81166119f9576040517f08c379a000000000000000000000000000000000000000000000000000000000815260206004820152601660248201527f43616e6e6f74206265207a65726f20616464726573730000000000000000000060448201526064016109cc565b600380547fffffffffffffffffffffffff00000000000000000000000000000000000000001673ffffffffffffffffffffffffffffffffffffffff83169081179091556040519081527f137b621413925496477d46e5055ac0d56178bdd724ba8bf843afceef18268ba3906020015b60405180910390a150565b611a7b6137c8565b610a3e6000613849565b611a8d613559565b60035473ffffffffffffffffffffffffffffffffffffffff163314611b0e576040517f08c379a000000000000000000000000000000000000000000000000000000000815260206004820152600960248201527f4e6f742061646d696e000000000000000000000000000000000000000000000060448201526064016109cc565b6103e8811115611b7a576040517f08c379a000000000000000000000000000000000000000000000000000000000815260206004820152601560248201527f54726561737572792066656520746f6f2068696768000000000000000000000060448201526064016109cc565b6008819055600a546040518281527fb1c4ee38d35556741133da7ff9b6f7ab0fa88d0406133126ff128f635490a85790602001611969565b611bba613559565b60035473ffffffffffffffffffffffffffffffffffffffff163314611c3b576040517f08c379a000000000000000000000000000000000000000000000000000000000815260206004820152600960248201527f4e6f742061646d696e000000000000000000000000000000000000000000000060448201526064016109cc565b73ffffffffffffffffffffffffffffffffffffffff8116611cb8576040517f08c379a000000000000000000000000000000000000000000000000000000000815260206004820152601660248201527f43616e6e6f74206265207a65726f20616464726573730000000000000000000060448201526064016109cc565b6000600b55600280547fffffffffffffffffffffffff00000000000000000000000000000000000000001673ffffffffffffffffffffffffffffffffffffffff8316908117909155604080517ffeaf968c000000000000000000000000000000000000000000000000000000008152905163feaf968c9160048082019260a092909190829003018186803b158015611d4f57600080fd5b505afa158015611d63573d6000803e3d6000fd5b505050506040513d601f19601f82011682018060405250810190611d87919061483c565b505060405173ffffffffffffffffffffffffffffffffffffffff851681527fb3eacd0e351fafdfefdec84e1cd19679b38dbcd63ea7c2c24da17fd2bc3b3c0e93506020019150611a689050565b611ddc61365a565b60045473ffffffffffffffffffffffffffffffffffffffff163314611e5d576040517f08c379a000000000000000000000000000000000000000000000000000000000815260206004820152600c60248201527f4e6f74206f70657261746f72000000000000000000000000000000000000000060448201526064016109cc565b6002547501000000000000000000000000000000000000000000900460ff168015611ea2575060025474010000000000000000000000000000000000000000900460ff165b611f54576040517f08c379a000000000000000000000000000000000000000000000000000000000815260206004820152604660248201527f43616e206f6e6c792072756e2061667465722067656e6573697353746172745260448201527f6f756e6420616e642067656e657369734c6f636b526f756e642069732074726960648201527f6767657265640000000000000000000000000000000000000000000000000000608482015260a4016109cc565b600080611f5f6138be565b915091508169ffffffffffffffffffff16600b81905550611f8f600a548369ffffffffffffffffffff1683613a1b565b611fb46001600a54611fa19190614a87565b8369ffffffffffffffffffff1683613c74565b611fcb6001600a54611fc69190614a87565b613ee1565b600a54611fd99060016149f9565b600a81905561184190614084565b6000828152600d6020908152604080832073ffffffffffffffffffffffffffffffffffffffff85168452909152808220815160608101909252805483929190829060ff166001811115612063577f4e487b7100000000000000000000000000000000000000000000000000000000600052602160045260246000fd5b600181111561209b577f4e487b7100000000000000000000000000000000000000000000000000000000600052602160045260246000fd5b815260018281015460208084019190915260029384015460ff908116151560409485015260008a8152600e835284902084516101c08101865281548152938101549284019290925293810154928201929092526003820154606082015260048201546080820152600582015460a0820152600682015460c0820152600782015460e082015260088201546101008201526009820154610120820152600a820154610140820152600b820154610160820152600c820154610180820152600d909101549091161580156101a08301819052929350909161217c57508160400151155b80156121985750600554816060015161219591906149f9565b42115b80156121a75750602082015115155b925050505b92915050565b6121ba61365a565b60035473ffffffffffffffffffffffffffffffffffffffff163314806121f7575060045473ffffffffffffffffffffffffffffffffffffffff1633145b61225d576040517f08c379a000000000000000000000000000000000000000000000000000000000815260206004820152601260248201527f4e6f74206f70657261746f722f61646d696e000000000000000000000000000060448201526064016109cc565b612265614299565b600a546040517f68b095021b1f40fe513109f513c66692f0b3219aee674a69f4efc57badb8201d90600090a2565b61229b613559565b60035473ffffffffffffffffffffffffffffffffffffffff16331461231c576040517f08c379a000000000000000000000000000000000000000000000000000000000815260206004820152600960248201527f4e6f742061646d696e000000000000000000000000000000000000000000000060448201526064016109cc565b8082106123ab576040517f08c379a000000000000000000000000000000000000000000000000000000000815260206004820152603160248201527f6275666665725365636f6e6473206d75737420626520696e666572696f72207460448201527f6f20696e74657276616c5365636f6e647300000000000000000000000000000060648201526084016109cc565b6005829055600681905560408051838152602081018390527fe60149e0431fec12df63dfab5fce2a9cefe9a4d3df5f41cb626f579ae1f2b91a910160405180910390a15050565b73ffffffffffffffffffffffffffffffffffffffff83166000908152600f60205260408120546060918291849061242a908790614a87565b8111156124655773ffffffffffffffffffffffffffffffffffffffff87166000908152600f6020526040902054612462908790614a87565b90505b60008167ffffffffffffffff8111156124a7577f4e487b7100000000000000000000000000000000000000000000000000000000600052604160045260246000fd5b6040519080825280602002602001820160405280156124d0578160200160208202803683370190505b50905060008267ffffffffffffffff811115612515577f4e487b7100000000000000000000000000000000000000000000000000000000600052604160045260246000fd5b60405190808252806020026020018201604052801561257e57816020015b60408051606081018252600080825260208083018290529282015282527fffffffffffffffffffffffffffffffffffffffffffffffffffffffffffffffff9092019101816125335790505b50905060005b838110156127b45773ffffffffffffffffffffffffffffffffffffffff8a166000908152600f602052604090206125bb828b6149f9565b815481106125f2577f4e487b7100000000000000000000000000000000000000000000000000000000600052603260045260246000fd5b9060005260206000200154838281518110612636577f4e487b7100000000000000000000000000000000000000000000000000000000600052603260045260246000fd5b602002602001018181525050600d600084838151811061267f577f4e487b7100000000000000000000000000000000000000000000000000000000600052603260045260246000fd5b6020908102919091018101518252818101929092526040908101600090812073ffffffffffffffffffffffffffffffffffffffff8e168252909252908190208151606081019092528054829060ff166001811115612706577f4e487b7100000000000000000000000000000000000000000000000000000000600052602160045260246000fd5b600181111561273e577f4e487b7100000000000000000000000000000000000000000000000000000000600052602160045260246000fd5b81526001820154602082015260029091015460ff1615156040909101528251839083908110612796577f4e487b7100000000000000000000000000000000000000000000000000000000600052603260045260246000fd5b602002602001018190525080806127ac90614ace565b915050612584565b5081816127c1858b6149f9565b95509550955050505093509350939050565b6000828152600d6020908152604080832073ffffffffffffffffffffffffffffffffffffffff85168452909152808220815160608101909252805483929190829060ff16600181111561284f577f4e487b7100000000000000000000000000000000000000000000000000000000600052602160045260246000fd5b6001811115612887577f4e487b7100000000000000000000000000000000000000000000000000000000600052602160045260246000fd5b815260018281015460208084019190915260029384015460ff908116151560409485015260008a8152600e835284902084516101c081018652815481529381015492840192909252938101549282019290925260038201546060820152600482015460808201819052600583015460a08301819052600684015460c0840152600784015460e084015260088401546101008401526009840154610120840152600a840154610140840152600b840154610160840152600c840154610180840152600d9093015490931615156101a0820152929350141561296c576000925050506121ac565b806101a0015180156129815750602082015115155b801561298f57508160400151155b80156121a7575080608001518160a001511380156129e657506000825160018111156129e4577f4e487b7100000000000000000000000000000000000000000000000000000000600052602160045260246000fd5b145b806121a7575080608001518160a001511280156121a75750600182516001811115612a3a577f4e487b7100000000000000000000000000000000000000000000000000000000600052602160045260246000fd5b1495945050505050565b612a4c61365a565b612a546133f0565b333b15612abd576040517f08c379a000000000000000000000000000000000000000000000000000000000815260206004820152601460248201527f436f6e7472616374206e6f7420616c6c6f77656400000000000000000000000060448201526064016109cc565b333214612b26576040517f08c379a000000000000000000000000000000000000000000000000000000000815260206004820152601a60248201527f50726f787920636f6e7472616374206e6f7420616c6c6f77656400000000000060448201526064016109cc565b600a548114612b91576040517f08c379a000000000000000000000000000000000000000000000000000000000815260206004820152601560248201527f42657420697320746f6f206561726c792f6c617465000000000000000000000060448201526064016109cc565b612b9a8161375d565b612c00576040517f08c379a000000000000000000000000000000000000000000000000000000000815260206004820152601260248201527f526f756e64206e6f74206265747461626c65000000000000000000000000000060448201526064016109cc565b600754341015612c92576040517f08c379a000000000000000000000000000000000000000000000000000000000815260206004820152602c60248201527f42657420616d6f756e74206d7573742062652067726561746572207468616e2060448201527f6d696e426574416d6f756e74000000000000000000000000000000000000000060648201526084016109cc565b6000818152600d6020908152604080832033845290915290206001015415612d16576040517f08c379a000000000000000000000000000000000000000000000000000000000815260206004820152601b60248201527f43616e206f6e6c7920626574206f6e63652070657220726f756e64000000000060448201526064016109cc565b6000818152600e602052604090206008810154349190612d379083906149f9565b6008820155600a810154612d4c9083906149f9565b600a8201556000838152600d602090815260408083203380855290835281842080547fffffffffffffffffffffffffffffffffffffffffffffffffffffffffffffff001660019081178255808201889055600f855283862080549182018155865294849020909401879055905185815286927f0d8c1fe3e67ab767116a81f122b83c2557a8c2564019cb7c4f83de1aeb1f1f0d9101611055565b612dee6137c8565b612e0f73ffffffffffffffffffffffffffffffffffffffff83163383614308565b8173ffffffffffffffffffffffffffffffffffffffff167f14f11966a996e0629572e51064726d2057a80fbd34efc066682c06a71dbb6e9882604051612e5791815260200190565b60405180910390a25050565b60035473ffffffffffffffffffffffffffffffffffffffff163314612ee4576040517f08c379a000000000000000000000000000000000000000000000000000000000815260206004820152600960248201527f4e6f742061646d696e000000000000000000000000000000000000000000000060448201526064016109cc565b73ffffffffffffffffffffffffffffffffffffffff8116612f61576040517f08c379a000000000000000000000000000000000000000000000000000000000815260206004820152601660248201527f43616e6e6f74206265207a65726f20616464726573730000000000000000000060448201526064016109cc565b600480547fffffffffffffffffffffffff00000000000000000000000000000000000000001673ffffffffffffffffffffffffffffffffffffffff83169081179091556040519081527fc47d127c07bdd56c5ccba00463ce3bd3c1bca71b4670eea6e5d0c02e4aa156e290602001611a68565b612fdc613559565b60035473ffffffffffffffffffffffffffffffffffffffff16331461305d576040517f08c379a000000000000000000000000000000000000000000000000000000000815260206004820152600960248201527f4e6f742061646d696e000000000000000000000000000000000000000000000060448201526064016109cc565b600c8190556040518181527f93ccaceac092ffb842c46b8718667a13a80e9058dcd0bd403d0b47215b30da0790602001611a68565b61309a61365a565b60045473ffffffffffffffffffffffffffffffffffffffff16331461311b576040517f08c379a000000000000000000000000000000000000000000000000000000000815260206004820152600c60248201527f4e6f74206f70657261746f72000000000000000000000000000000000000000060448201526064016109cc565b6002547501000000000000000000000000000000000000000000900460ff166131c6576040517f08c379a000000000000000000000000000000000000000000000000000000000815260206004820152603160248201527f43616e206f6e6c792072756e2061667465722067656e6573697353746172745260448201527f6f756e642069732074726967676572656400000000000000000000000000000060648201526084016109cc565b60025474010000000000000000000000000000000000000000900460ff1615613271576040517f08c379a000000000000000000000000000000000000000000000000000000000815260206004820152602260248201527f43616e206f6e6c792072756e2067656e657369734c6f636b526f756e64206f6e60448201527f636500000000000000000000000000000000000000000000000000000000000060648201526084016109cc565b60008061327c6138be565b915091508169ffffffffffffffffffff16600b819055506132ac600a548369ffffffffffffffffffff1683613a1b565b600a546132ba9060016149f9565b600a8190556132c8906136df565b5050600280547fffffffffffffffffffffff00ffffffffffffffffffffffffffffffffffffffff1674010000000000000000000000000000000000000000179055565b600f602052816000526040600020818154811061332757600080fd5b90600052602060002001600091509150505481565b6133446137c8565b73ffffffffffffffffffffffffffffffffffffffff81166133e7576040517f08c379a000000000000000000000000000000000000000000000000000000000815260206004820152602660248201527f4f776e61626c653a206e6577206f776e657220697320746865207a65726f206160448201527f646472657373000000000000000000000000000000000000000000000000000060648201526084016109cc565b61106981613849565b6002600154141561345d576040517f08c379a000000000000000000000000000000000000000000000000000000000815260206004820152601f60248201527f5265656e7472616e637947756172643a207265656e7472616e742063616c6c0060448201526064016109cc565b6002600155565b60008273ffffffffffffffffffffffffffffffffffffffff168260405160006040518083038185875af1925050503d80600081146134be576040519150601f19603f3d011682016040523d82523d6000602084013e6134c3565b606091505b5050905080613554576040517f08c379a000000000000000000000000000000000000000000000000000000000815260206004820152602360248201527f5472616e7366657248656c7065723a20424e425f5452414e534645525f46414960448201527f4c4544000000000000000000000000000000000000000000000000000000000060648201526084016109cc565b505050565b60005474010000000000000000000000000000000000000000900460ff16610a3e576040517f08c379a000000000000000000000000000000000000000000000000000000000815260206004820152601460248201527f5061757361626c653a206e6f742070617573656400000000000000000000000060448201526064016109cc565b6135e5613559565b600080547fffffffffffffffffffffff00ffffffffffffffffffffffffffffffffffffffff1690557f5db9ee0a495bf2e6ff9c91a7834c1ba4fdd244a5e8aa4e537bd38aeae4b073aa335b60405173ffffffffffffffffffffffffffffffffffffffff909116815260200160405180910390a1565b60005474010000000000000000000000000000000000000000900460ff1615610a3e576040517f08c379a000000000000000000000000000000000000000000000000000000000815260206004820152601060248201527f5061757361626c653a207061757365640000000000000000000000000000000060448201526064016109cc565b6000818152600e602052604090204260018201819055600654613701916149f9565b60028083019190915560065461371691614a4a565b61372090426149f9565b600382015581815560006008820181905560405183917f939f42374aa9bf1d8d8cd56d8a9110cb040cd8dfeae44080c6fcf2645e51b45291a25050565b6000818152600e60205260408120600101541580159061378d57506000828152600e602052604090206002015415155b80156137a957506000828152600e602052604090206001015442115b80156121ac5750506000908152600e6020526040902060020154421090565b60005473ffffffffffffffffffffffffffffffffffffffff163314610a3e576040517f08c379a000000000000000000000000000000000000000000000000000000000815260206004820181905260248201527f4f776e61626c653a2063616c6c6572206973206e6f7420746865206f776e657260448201526064016109cc565b6000805473ffffffffffffffffffffffffffffffffffffffff8381167fffffffffffffffffffffffff0000000000000000000000000000000000000000831681178455604051919092169283917f8be0079c531659141344cd1fd0a4f28419497f9722a3daafe3b4186f6b6457e09190a35050565b6000806000600c54426138d191906149f9565b90506000806000600260009054906101000a900473ffffffffffffffffffffffffffffffffffffffff1673ffffffffffffffffffffffffffffffffffffffff1663feaf968c6040518163ffffffff1660e01b815260040160a06040518083038186803b15801561394057600080fd5b505afa158015613954573d6000803e3d6000fd5b505050506040513d601f19601f82011682018060405250810190613978919061483c565b509350509250925083811115613a10576040517f08c379a000000000000000000000000000000000000000000000000000000000815260206004820152602e60248201527f4f7261636c6520757064617465206578636565646564206d61782074696d657360448201527f74616d7020616c6c6f77616e636500000000000000000000000000000000000060648201526084016109cc565b509094909350915050565b6000838152600e6020526040902060010154613ab9576040517f08c379a000000000000000000000000000000000000000000000000000000000815260206004820152602b60248201527f43616e206f6e6c79206c6f636b20726f756e6420616674657220726f756e642060448201527f686173207374617274656400000000000000000000000000000000000000000060648201526084016109cc565b6000838152600e6020526040902060020154421015613b5a576040517f08c379a000000000000000000000000000000000000000000000000000000000815260206004820152602760248201527f43616e206f6e6c79206c6f636b20726f756e64206166746572206c6f636b546960448201527f6d657374616d700000000000000000000000000000000000000000000000000060648201526084016109cc565b6005546000848152600e6020526040902060020154613b7991906149f9565b421115613c08576040517f08c379a000000000000000000000000000000000000000000000000000000000815260206004820152602860248201527f43616e206f6e6c79206c6f636b20726f756e642077697468696e20627566666560448201527f725365636f6e647300000000000000000000000000000000000000000000000060648201526084016109cc565b6000838152600e60205260409020600654613c2390426149f9565b60038201556004810182905560068101839055604051828152839085907f482e76a65b448a42deef26e99e58fb20c85e26f075defff8df6aa80459b39006906020015b60405180910390a350505050565b6000838152600e6020526040902060020154613d12576040517f08c379a000000000000000000000000000000000000000000000000000000000815260206004820152602960248201527f43616e206f6e6c7920656e6420726f756e6420616674657220726f756e64206860448201527f6173206c6f636b6564000000000000000000000000000000000000000000000060648201526084016109cc565b6000838152600e6020526040902060030154421015613db3576040517f08c379a000000000000000000000000000000000000000000000000000000000815260206004820152602760248201527f43616e206f6e6c7920656e6420726f756e6420616674657220636c6f7365546960448201527f6d657374616d700000000000000000000000000000000000000000000000000060648201526084016109cc565b6005546000848152600e6020526040902060030154613dd291906149f9565b421115613e61576040517f08c379a000000000000000000000000000000000000000000000000000000000815260206004820152602760248201527f43616e206f6e6c7920656e6420726f756e642077697468696e2062756666657260448201527f5365636f6e64730000000000000000000000000000000000000000000000000060648201526084016109cc565b6000838152600e6020526040908190206005810183905560078101849055600d810180547fffffffffffffffffffffffffffffffffffffffffffffffffffffffffffffff001660011790559051839085907fb6ff1fe915db84788cbbbc017f0d2bef9485fad9fd0bd8ce9340fde0d8410dd890613c669086815260200190565b6000818152600e60205260409020600b0154158015613f0f57506000818152600e60205260409020600c0154155b613f75576040517f08c379a000000000000000000000000000000000000000000000000000000000815260206004820152601260248201527f526577617264732063616c63756c61746564000000000000000000000000000060448201526064016109cc565b6000818152600e6020526040812060048101546005820154919291829182911315613fd957836009015492506127106008548560080154613fb69190614a4a565b613fc09190614a11565b9150818460080154613fd29190614a87565b9050614012565b8360040154846005015412156140055783600a015492506127106008548560080154613fb69190614a4a565b5050506008810154600090815b600b8401839055600c8401819055600980548391906000906140359084906149f9565b9091555050604080518481526020810183905290810183905285907f6dfdfcb09c8804d0058826cd2539f1acfbe3cb887c9be03d928035bce0f1a58d9060600160405180910390a25050505050565b6002547501000000000000000000000000000000000000000000900460ff1661412f576040517f08c379a000000000000000000000000000000000000000000000000000000000815260206004820152603160248201527f43616e206f6e6c792072756e2061667465722067656e6573697353746172745260448201527f6f756e642069732074726967676572656400000000000000000000000000000060648201526084016109cc565b600e600061413e600284614a87565b815260200190815260200160002060030154600014156141e0576040517f08c379a000000000000000000000000000000000000000000000000000000000815260206004820152602e60248201527f43616e206f6e6c7920737461727420726f756e6420616674657220726f756e6460448201527f206e2d322068617320656e64656400000000000000000000000000000000000060648201526084016109cc565b600e60006141ef600284614a87565b815260200190815260200160002060030154421015614290576040517f08c379a000000000000000000000000000000000000000000000000000000000815260206004820152603760248201527f43616e206f6e6c79207374617274206e657720726f756e64206166746572207260448201527f6f756e64206e2d3220636c6f736554696d657374616d7000000000000000000060648201526084016109cc565b611069816136df565b6142a161365a565b600080547fffffffffffffffffffffff00ffffffffffffffffffffffffffffffffffffffff16740100000000000000000000000000000000000000001790557f62e78cea01bee320cd4e420270b5ea74000d11b0c9f74754ebdbfc544b05a2586136303390565b6040805173ffffffffffffffffffffffffffffffffffffffff848116602483015260448083018590528351808403909101815260649092018352602080830180517bffffffffffffffffffffffffffffffffffffffffffffffffffffffff167fa9059cbb0000000000000000000000000000000000000000000000000000000017905283518085019094528084527f5361666545524332303a206c6f772d6c6576656c2063616c6c206661696c656490840152613554928692916000916143d391851690849061447d565b80519091501561355457808060200190518101906143f191906147b8565b613554576040517f08c379a000000000000000000000000000000000000000000000000000000000815260206004820152602a60248201527f5361666545524332303a204552433230206f7065726174696f6e20646964206e60448201527f6f7420737563636565640000000000000000000000000000000000000000000060648201526084016109cc565b606061448c8484600085614494565b949350505050565b606082471015614526576040517f08c379a000000000000000000000000000000000000000000000000000000000815260206004820152602660248201527f416464726573733a20696e73756666696369656e742062616c616e636520666f60448201527f722063616c6c000000000000000000000000000000000000000000000000000060648201526084016109cc565b6000808673ffffffffffffffffffffffffffffffffffffffff16858760405161454f91906148c6565b60006040518083038185875af1925050503d806000811461458c576040519150601f19603f3d011682016040523d82523d6000602084013e614591565b606091505b50915091506145a2878383876145ad565b979650505050505050565b606083156146405782516146395773ffffffffffffffffffffffffffffffffffffffff85163b614639576040517f08c379a000000000000000000000000000000000000000000000000000000000815260206004820152601d60248201527f416464726573733a2063616c6c20746f206e6f6e2d636f6e747261637400000060448201526064016109cc565b508161448c565b61448c83838151156146555781518083602001fd5b806040517f08c379a00000000000000000000000000000000000000000000000000000000081526004016109cc91906149a8565b803573ffffffffffffffffffffffffffffffffffffffff811681146146ad57600080fd5b919050565b805169ffffffffffffffffffff811681146146ad57600080fd5b6000602082840312156146dd578081fd5b6146e682614689565b9392505050565b600080604083850312156146ff578081fd5b61470883614689565b946020939093013593505050565b60008060006060848603121561472a578081fd5b61473384614689565b95602085013595506040909401359392505050565b6000806020838503121561475a578182fd5b823567ffffffffffffffff80821115614771578384fd5b818501915085601f830112614784578384fd5b813581811115614792578485fd5b8660208260051b85010111156147a6578485fd5b60209290920196919550909350505050565b6000602082840312156147c9578081fd5b815180151581146146e6578182fd5b6000602082840312156147e9578081fd5b5035919050565b60008060408385031215614802578182fd5b8235915061481260208401614689565b90509250929050565b6000806040838503121561482d578182fd5b50508035926020909101359150565b600080600080600060a08688031215614853578081fd5b61485c866146b2565b945060208601519350604086015192506060860151915061487f608087016146b2565b90509295509295909350565b600281106148c2577f4e487b7100000000000000000000000000000000000000000000000000000000600052602160045260246000fd5b9052565b600082516148d8818460208701614a9e565b9190910192915050565b60608082528451828201819052600091906020906080850190828901855b8281101561491c57815184529284019290840190600101614900565b50505084810382860152865180825287830191830190855b8181101561496d57835161494984825161488b565b80860151848701526040908101511515908401529284019291850191600101614934565b505080945050505050826040830152949350505050565b60608101614992828661488b565b8360208301528215156040830152949350505050565b60208152600082518060208401526149c7816040850160208701614a9e565b601f017fffffffffffffffffffffffffffffffffffffffffffffffffffffffffffffffe0169190910160400192915050565b60008219821115614a0c57614a0c614b07565b500190565b600082614a45577f4e487b710000000000000000000000000000000000000000000000000000000081526012600452602481fd5b500490565b6000817fffffffffffffffffffffffffffffffffffffffffffffffffffffffffffffffff0483118215151615614a8257614a82614b07565b500290565b600082821015614a9957614a99614b07565b500390565b60005b83811015614ab9578181015183820152602001614aa1565b83811115614ac8576000848401525b50505050565b60007fffffffffffffffffffffffffffffffffffffffffffffffffffffffffffffffff821415614b0057614b00614b07565b5060010190565b7f4e487b7100000000000000000000000000000000000000000000000000000000600052601160045260246000fdfea264697066735822122095309dbeb76ef96ad8998f1a0835350871f6068d8b87b621a26ba54be914c99964736f6c63430008040033",
  "linkReferences": {},
  "deployedLinkReferences": {}
}